{
  "contractName": "IfElse",
  "abi": [
    {
      "constant": true,
      "inputs": [
        {
          "internalType": "uint256",
          "name": "x",
          "type": "uint256"
        }
      ],
      "name": "foo",
      "outputs": [
        {
          "internalType": "uint256",
          "name": "",
          "type": "uint256"
        }
      ],
      "payable": false,
      "stateMutability": "pure",
      "type": "function"
    }
  ],
  "bytecode": "0x608060405234801561001057600080fd5b5060cd8061001f6000396000f3fe6080604052348015600f57600080fd5b506004361060285760003560e01c80632fbebd3814602d575b600080fd5b605660048036036020811015604157600080fd5b8101908080359060200190929190505050606c565b6040518082815260200191505060405180910390f35b6000600a821015607e57600090506093565b6014821015608e57600190506093565b600290505b91905056fea265627a7a7231582063e3ff0ed367d89d4e3460e1def5e8f23285eda198d1abfbe5f24ee24e56328f64736f6c63430005100032",
  "source": "pragma solidity ^0.5.0;\n\ncontract IfElse {\n    function foo(uint x) public pure returns (uint) {\n        if (x < 10) {\n            return 0;\n        } else if (x < 20) {\n            return 1;\n        } else {\n            return 2;\n        }\n    }\n}",
  "sourcePath": "/Users/owner/Desktop/block-chain-labs/Lab-5/smart-contract-if/contracts/IfElse.sol",
  "compiler": {
    "name": "solc",
    "version": "0.5.16+commit.9c3226ce.Emscripten.clang"
  },
  "schemaVersion": "3.4.1",
  "updatedAt": "2021-06-04T16:45:20.604Z",
  "networkType": "ethereum",
  "devdoc": {
    "methods": {}
  },
  "userdoc": {
    "methods": {}
  }
}