{
  "contractName": "Loop",
  "abi": [
    {
      "constant": true,
      "inputs": [
        {
          "internalType": "uint256",
          "name": "x",
          "type": "uint256"
        }
      ],
      "name": "factorial",
      "outputs": [
        {
          "internalType": "uint256",
          "name": "",
          "type": "uint256"
        }
      ],
      "payable": false,
      "stateMutability": "pure",
      "type": "function"
    },
    {
      "constant": true,
      "inputs": [
        {
          "internalType": "uint256",
          "name": "_numberDrawed",
          "type": "uint256"
        }
      ],
      "name": "isPrime",
      "outputs": [
        {
          "internalType": "bool",
          "name": "",
          "type": "bool"
        }
      ],
      "payable": false,
      "stateMutability": "pure",
      "type": "function"
    }
  ],
  "bytecode": "0x608060405234801561001057600080fd5b50610173806100206000396000f3fe608060405234801561001057600080fd5b50600436106100365760003560e01c8063427034941461003b5780638371483414610081575b600080fd5b6100676004803603602081101561005157600080fd5b81019080803590602001909291905050506100c3565b604051808215151515815260200191505060405180910390f35b6100ad6004803603602081101561009757600080fd5b8101908080359060200190929190505050610109565b6040518082815260200191505060405180910390f35b600080829050600060029050818110156101015760008183816100e257fe5b0614156100f457600092505050610104565b6001821192505050610104565b50505b919050565b60008082905060006001840390505b6001811115610134578184029150808060019003915050610118565b508091505091905056fea265627a7a72315820509b277705b0a077e2a4eb2f3252b6ce5c06218f02278ebd22e9c6942cbba88764736f6c63430005100032",
  "source": "pragma solidity ^0.5.0;\n\ncontract Loop {\n    function factorial(uint x) public pure returns (uint) {\n        uint ans = x;\n        // for loop\n        for (uint i = x-1; i > 1; i--) {\n            ans = x * ans;\n        }\n\n        return ans;\n    }\n    function isPrime(uint256 _numberDrawed) pure public returns(bool){\n        uint256 numberDrawed = _numberDrawed;\n        for(uint i = 2; i < numberDrawed; i++){\n            if(numberDrawed % i == 0 ){\n                return false;\n            }\n            return numberDrawed > 1;\n        }\n    }\n}\n",
  "sourcePath": "C:/Users/x20170416/Documents/GitHub/block-app/smart-contract-factorial/contracts/Loop.sol",
  "compiler": {
    "name": "solc",
    "version": "0.5.16+commit.9c3226ce.Emscripten.clang"
  },
  "schemaVersion": "3.4.1",
  "updatedAt": "2021-08-07T16:08:37.836Z",
  "networkType": "ethereum",
  "devdoc": {
    "methods": {}
  },
  "userdoc": {
    "methods": {}
  }
}