{
  "contractName": "Lottery",
  "abi": [
    {
      "constant": true,
      "inputs": [
        {
          "internalType": "uint256",
          "name": "_numberDrawed",
          "type": "uint256"
        }
      ],
      "name": "isPrime",
      "outputs": [
        {
          "internalType": "bool",
          "name": "",
          "type": "bool"
        }
      ],
      "payable": false,
      "stateMutability": "pure",
      "type": "function"
    }
  ],
  "bytecode": "0x608060405234801561001057600080fd5b5060e68061001f6000396000f3fe6080604052348015600f57600080fd5b506004361060285760003560e01c80634270349414602d575b600080fd5b605660048036036020811015604157600080fd5b81019080803590602001909291905050506070565b604051808215151515815260200191505060405180910390f35b6000808290506000600290508181101560a9576000818381608d57fe5b061415609d5760009250505060ac565b600182119250505060ac565b50505b91905056fea265627a7a723158202a04f19dfee6e83bc18d13617de4fb2d11fa9bb8644d2aae3deaa0bf55f61b8964736f6c63430005100032",
  "source": "pragma solidity ^0.5.0;\r\n\r\ncontract Lottery {\r\n  function isPrime(uint256 _numberDrawed) pure public returns(bool){\r\n        uint256 numberDrawed = _numberDrawed;\r\n        for(uint i = 2; i < numberDrawed; i++){\r\n            if(numberDrawed % i == 0 ){\r\n                return false;\r\n            }\r\n            return numberDrawed > 1;\r\n        }\r\n    }\r\n}",
  "sourcePath": "C:/Users/x20170416/Documents/GitHub/primeLottery/contracts/Lottery.sol",
  "compiler": {
    "name": "solc",
    "version": "0.5.16+commit.9c3226ce.Emscripten.clang"
  },
  "schemaVersion": "3.4.1",
  "updatedAt": "2021-08-07T18:01:58.947Z",
  "devdoc": {
    "methods": {}
  },
  "userdoc": {
    "methods": {}
  }
}