{
  "contractName": "SlotMachine",
  "abi": [
    {
      "constant": true,
      "inputs": [
        {
          "internalType": "uint256",
          "name": "_numberDrawed",
          "type": "uint256"
        }
      ],
      "name": "isPrime",
      "outputs": [
        {
          "internalType": "bool",
          "name": "",
          "type": "bool"
        }
      ],
      "payable": false,
      "stateMutability": "pure",
      "type": "function"
    },
    {
      "constant": true,
      "inputs": [],
      "name": "rand",
      "outputs": [
        {
          "internalType": "uint256",
          "name": "",
          "type": "uint256"
        }
      ],
      "payable": false,
      "stateMutability": "view",
      "type": "function"
    }
  ],
  "bytecode": "0x608060405234801561001057600080fd5b5061022a806100206000396000f3fe608060405234801561001057600080fd5b50600436106100365760003560e01c80633b3dca761461003b5780634270349414610059575b600080fd5b61004361009f565b6040518082815260200191505060405180910390f35b6100856004803603602081101561006f57600080fd5b81019080803590602001909291905050506101af565b604051808215151515815260200191505060405180910390f35b600080434233604051602001808273ffffffffffffffffffffffffffffffffffffffff1673ffffffffffffffffffffffffffffffffffffffff1660601b81526014019150506040516020818303038152906040528051906020012060001c8161010457fe5b04454241604051602001808273ffffffffffffffffffffffffffffffffffffffff1673ffffffffffffffffffffffffffffffffffffffff1660601b81526014019150506040516020818303038152906040528051906020012060001c8161016757fe5b0444420101010101604051602001808281526020019150506040516020818303038152906040528051906020012060001c905060648082816101a557fe5b0402810391505090565b600080829050600060029050818110156101ed5760008183816101ce57fe5b0614156101e0576000925050506101f0565b60018211925050506101f0565b50505b91905056fea265627a7a72315820504d59378def3e89c57de932985f62be0b663c82591fb549afecc17903c2c29e64736f6c63430005100032",
  "source": "pragma solidity ^0.5.16;\r\n\r\n\r\ncontract SlotMachine {\r\n    /*// Declare state variables of the contract\r\n    address owner;\r\n\r\n    //constructor set ownership of the slot machine\r\n    constructor() public{\r\n        owner = msg.sender;\r\n    } \r\n\r\n    //Gets the balance of the slot machine in wei\r\n    function slotBalance() view public returns(uint256){\r\n        require (msg.sender == owner, \"You do not have access to this feature\");\r\n        return address(this).balance;\r\n    }\r\n\r\n    //Spin function\r\n    function spin(address payable _player) payable external {\r\n        require(msg.value == 1 ether, \"You must pay 1 ETH per spin\");\r\n        uint256 numberDrawed = rand();\r\n        if (isPrime(numberDrawed)){\r\n            _player.transfer(3 ether);\r\n        }\r\n        else{\r\n            _player.transfer(0 ether);\r\n        }\r\n    } */\r\n    //https://stackoverflow.com/questions/40200089/number-prime-test-in-javascript\r\n    //Check if number us prime. Prime numbers will receive a prize from the slot machine\r\n    function isPrime(uint256 _numberDrawed) pure public returns(bool){\r\n        uint256 numberDrawed = _numberDrawed;\r\n        for(uint i = 2; i < numberDrawed; i++){\r\n            if(numberDrawed % i == 0 ){\r\n                return false;\r\n            }\r\n            return numberDrawed > 1;\r\n        }\r\n    }\r\n\r\n/* Random Number Generator used to draw numbers\r\nhttps://stackoverflow.com/questions/58188832/solidity-generate-unpredictable-random-number-that-does-not-depend-on-input*/\r\n  function rand() public view returns(uint256){\r\n        uint256 seed = uint256(keccak256(abi.encodePacked(\r\n            block.timestamp + block.difficulty +\r\n            ((uint256(keccak256(abi.encodePacked(block.coinbase)))) / (block.timestamp)) +\r\n            block.gaslimit + \r\n            ((uint256(keccak256(abi.encodePacked(msg.sender)))) / (block.timestamp)) +\r\n            block.number\r\n        )));\r\n\r\n        return (seed - ((seed / 100) * 100));\r\n    }\r\n}\r\n\r\n  /*\r\n    //in case I want to log the spins\r\n      struct Spin {\r\n        uint id;\r\n        uint256 numberDrawed;\r\n        bool winner;\r\n    }\r\n    mapping(uint => Spin) public spins;\r\n    uint[] public spinsSpinned;\r\n    \r\n    event SpinCreated(\r\n        uint id,\r\n        string numberDrawed,\r\n        bool winner,\r\n        uint prize\r\n    );\r\n\r\n\r\n   // class example\r\n  uint public roundCount = 0;\r\n\r\n  struct Round {\r\n    uint id;\r\n    string content;\r\n    bool winner;\r\n  }\r\n\r\n  mapping(uint => Round) public rounds;\r\n\r\n  event RoundCreated(\r\n    uint id,\r\n    string content,\r\n    bool winner\r\n  );\r\n\r\n  event RoundWon(\r\n    uint id,\r\n    bool completed\r\n  );\r\n  \r\n  function createTask(string memory _content) public {\r\n    tasks[taskCount] = Task(taskCount, _content, false);\r\n    taskCount ++;\r\n    emit TaskCreated(taskCount, _content, false);\r\n  }\r\n\r\n  function toggleCompleted(uint _id) public {\r\n    Task memory _task = tasks[_id];\r\n    _task.completed = !_task.completed;\r\n    tasks[_id] = _task;\r\n    emit TaskCompleted(_id, _task.completed);\r\n  }\r\n  \r\n  \r\n  function getAll() public view returns (Task[] memory){\r\n    Task[] memory todos = new Task[](taskCount);\r\n    for (uint i = 0; i < taskCount; i++) {\r\n        todos[i] = tasks[i];\r\n    }\r\n    return todos;\r\n  }*/",
  "sourcePath": "C:/Users/x20170416/Documents/GitHub/block-app/slotmchnapp/contracts/SlotMachine.sol",
  "compiler": {
    "name": "solc",
    "version": "0.5.16+commit.9c3226ce.Emscripten.clang"
  },
  "schemaVersion": "3.4.1",
  "updatedAt": "2021-08-07T16:05:13.320Z",
  "devdoc": {
    "methods": {}
  },
  "userdoc": {
    "methods": {}
  }
}