{
  "contractName": "SlotMachine",
  "abi": [
    {
      "inputs": [],
      "payable": false,
      "stateMutability": "nonpayable",
      "type": "constructor"
    },
    {
      "constant": true,
      "inputs": [],
      "name": "slotBalance",
      "outputs": [
        {
          "internalType": "uint256",
          "name": "",
          "type": "uint256"
        }
      ],
      "payable": false,
      "stateMutability": "view",
      "type": "function"
    },
    {
      "constant": false,
      "inputs": [
        {
          "internalType": "address payable",
          "name": "_player",
          "type": "address"
        }
      ],
      "name": "spin",
      "outputs": [],
      "payable": true,
      "stateMutability": "payable",
      "type": "function"
    },
    {
      "constant": true,
      "inputs": [
        {
          "internalType": "uint256",
          "name": "_numberDrawed",
          "type": "uint256"
        }
      ],
      "name": "isPrime",
      "outputs": [
        {
          "internalType": "bool",
          "name": "_winner",
          "type": "bool"
        }
      ],
      "payable": false,
      "stateMutability": "pure",
      "type": "function"
    },
    {
      "constant": true,
      "inputs": [],
      "name": "rand",
      "outputs": [
        {
          "internalType": "uint256",
          "name": "",
          "type": "uint256"
        }
      ],
      "payable": false,
      "stateMutability": "view",
      "type": "function"
    }
  ],
  "bytecode": "0x608060405234801561001057600080fd5b50336000806101000a81548173ffffffffffffffffffffffffffffffffffffffff021916908373ffffffffffffffffffffffffffffffffffffffff1602179055506106a6806100606000396000f3fe60806040526004361061003f5760003560e01c80633b3dca7614610044578063427034941461006f578063f107d45e146100ac578063fcbfc36c146100d7575b600080fd5b34801561005057600080fd5b506100596100f3565b6040516100669190610586565b60405180910390f35b34801561007b57600080fd5b50610096600480360361009191908101906103da565b6101a5565b6040516100a3919061052b565b60405180910390f35b3480156100b857600080fd5b506100c16101eb565b6040516100ce9190610586565b60405180910390f35b6100f160048036036100ec91908101906103b1565b610282565b005b60008043423360405160200161010991906104f5565b6040516020818303038152906040528051906020012060001c8161012957fe5b0445424160405160200161013d91906104f5565b6040516020818303038152906040528051906020012060001c8161015d57fe5b04444201010101016040516020016101759190610510565b6040516020818303038152906040528051906020012060001c9050606480828161019b57fe5b0402810391505090565b600080829050600060029050818110156101e35760008183816101c457fe5b0614156101d6576000925050506101e6565b60018211925050506101e6565b50505b919050565b60008060009054906101000a900473ffffffffffffffffffffffffffffffffffffffff1673ffffffffffffffffffffffffffffffffffffffff163373ffffffffffffffffffffffffffffffffffffffff161461027c576040517f08c379a000000000000000000000000000000000000000000000000000000000815260040161027390610546565b60405180910390fd5b47905090565b670de0b6b3a764000034146102cc576040517f08c379a00000000000000000000000000000000000000000000000000000000081526004016102c390610566565b60405180910390fd5b60006102d66100f3565b90506102e1816101a5565b1561033a578173ffffffffffffffffffffffffffffffffffffffff166108fc6729a2241af62c00009081150290604051600060405180830381858888f19350505050158015610334573d6000803e3d6000fd5b50610383565b8173ffffffffffffffffffffffffffffffffffffffff166108fc60009081150290604051600060405180830381858888f19350505050158015610381573d6000803e3d6000fd5b505b5050565b60008135905061039681610635565b92915050565b6000813590506103ab8161064c565b92915050565b6000602082840312156103c357600080fd5b60006103d184828501610387565b91505092915050565b6000602082840312156103ec57600080fd5b60006103fa8482850161039c565b91505092915050565b61041461040f826105b2565b6105fa565b82525050565b610423816105c4565b82525050565b60006104366026836105a1565b91507f596f7520646f206e6f7420686176652061636365737320746f2074686973206660008301527f65617475726500000000000000000000000000000000000000000000000000006020830152604082019050919050565b600061049c601b836105a1565b91507f596f75206d7573742070617920312045544820706572207370696e00000000006000830152602082019050919050565b6104d8816105f0565b82525050565b6104ef6104ea826105f0565b61061e565b82525050565b60006105018284610403565b60148201915081905092915050565b600061051c82846104de565b60208201915081905092915050565b6000602082019050610540600083018461041a565b92915050565b6000602082019050818103600083015261055f81610429565b9050919050565b6000602082019050818103600083015261057f8161048f565b9050919050565b600060208201905061059b60008301846104cf565b92915050565b600082825260208201905092915050565b60006105bd826105d0565b9050919050565b60008115159050919050565b600073ffffffffffffffffffffffffffffffffffffffff82169050919050565b6000819050919050565b60006106058261060c565b9050919050565b600061061782610628565b9050919050565b6000819050919050565b60008160601b9050919050565b61063e816105b2565b811461064957600080fd5b50565b610655816105f0565b811461066057600080fd5b5056fea365627a7a72315820eb583deb9da167a99b97658ea0853a6b0b1471e2898ea99c560e917ce720e1946c6578706572696d656e74616cf564736f6c63430005100040",
  "source": "pragma solidity ^0.5.16;\r\npragma experimental ABIEncoderV2;\r\n\r\ncontract SlotMachine {\r\n    // Declare state variables of the contract\r\n    address owner;\r\n\r\n    //constructor set ownership of the slot machine\r\n    constructor() public{\r\n        owner = msg.sender;\r\n    } \r\n\r\n    //Gets the balance of the slot machine in wei\r\n    function slotBalance() view public returns(uint256){\r\n        require (msg.sender == owner, \"You do not have access to this feature\");\r\n        return address(this).balance;\r\n    }\r\n\r\n    //Spin function\r\n    function spin(address payable _player) payable external {\r\n        require(msg.value == 1 ether, \"You must pay 1 ETH per spin\");\r\n        uint256 numberDrawed = rand();\r\n        if (isPrime(numberDrawed)){\r\n            _player.transfer(3 ether);\r\n        }\r\n        else{\r\n            _player.transfer(0 ether);\r\n        }\r\n    } \r\n    //https://stackoverflow.com/questions/40200089/number-prime-test-in-javascript\r\n    //Check if number us prime. Prime numbers will receive a prize from the slot machine\r\n    function isPrime(uint256 _numberDrawed) pure public returns(bool _winner){\r\n        uint256 numberDrawed = _numberDrawed;\r\n        for(uint i = 2; i < numberDrawed; i++){\r\n            if(numberDrawed % i == 0 ){\r\n                return false;\r\n            }\r\n            return numberDrawed > 1;\r\n        }\r\n    }\r\n\r\n/* Random Number Generator used to draw numbers\r\nhttps://stackoverflow.com/questions/58188832/solidity-generate-unpredictable-random-number-that-does-not-depend-on-input*/\r\n  function rand() public view returns(uint256){\r\n        uint256 seed = uint256(keccak256(abi.encodePacked(\r\n            block.timestamp + block.difficulty +\r\n            ((uint256(keccak256(abi.encodePacked(block.coinbase)))) / (block.timestamp)) +\r\n            block.gaslimit + \r\n            ((uint256(keccak256(abi.encodePacked(msg.sender)))) / (block.timestamp)) +\r\n            block.number\r\n        )));\r\n\r\n        return (seed - ((seed / 100) * 100));\r\n    }\r\n}\r\n\r\n  /*\r\n    //in case I want to log the spins\r\n      struct Spin {\r\n        uint id;\r\n        uint256 numberDrawed;\r\n        bool winner;\r\n    }\r\n    mapping(uint => Spin) public spins;\r\n    uint[] public spinsSpinned;\r\n    \r\n    event SpinCreated(\r\n        uint id,\r\n        string numberDrawed,\r\n        bool winner,\r\n        uint prize\r\n    );\r\n\r\n\r\n   // class example\r\n  uint public roundCount = 0;\r\n\r\n  struct Round {\r\n    uint id;\r\n    string content;\r\n    bool winner;\r\n  }\r\n\r\n  mapping(uint => Round) public rounds;\r\n\r\n  event RoundCreated(\r\n    uint id,\r\n    string content,\r\n    bool winner\r\n  );\r\n\r\n  event RoundWon(\r\n    uint id,\r\n    bool completed\r\n  );\r\n  \r\n  function createTask(string memory _content) public {\r\n    tasks[taskCount] = Task(taskCount, _content, false);\r\n    taskCount ++;\r\n    emit TaskCreated(taskCount, _content, false);\r\n  }\r\n\r\n  function toggleCompleted(uint _id) public {\r\n    Task memory _task = tasks[_id];\r\n    _task.completed = !_task.completed;\r\n    tasks[_id] = _task;\r\n    emit TaskCompleted(_id, _task.completed);\r\n  }\r\n  \r\n  \r\n  function getAll() public view returns (Task[] memory){\r\n    Task[] memory todos = new Task[](taskCount);\r\n    for (uint i = 0; i < taskCount; i++) {\r\n        todos[i] = tasks[i];\r\n    }\r\n    return todos;\r\n  }*/",
  "sourcePath": "C:/Users/x20170416/Documents/GitHub/block-app/slotmchnapp/contracts/SlotMachine.sol",
  "compiler": {
    "name": "solc",
    "version": "0.5.16+commit.9c3226ce.Emscripten.clang"
  },
  "schemaVersion": "3.4.1",
  "updatedAt": "2021-08-07T15:25:07.476Z",
  "devdoc": {
    "methods": {}
  },
  "userdoc": {
    "methods": {}
  }
}