{
  "contractName": "MathsQuestion",
  "abi": [
    {
      "constant": true,
      "inputs": [
        {
          "internalType": "uint256",
          "name": "n",
          "type": "uint256"
        }
      ],
      "name": "computeProduct",
      "outputs": [
        {
          "internalType": "uint256",
          "name": "",
          "type": "uint256"
        }
      ],
      "payable": false,
      "stateMutability": "pure",
      "type": "function"
    }
  ],
  "bytecode": "0x608060405234801561001057600080fd5b5060e58061001f6000396000f3fe6080604052348015600f57600080fd5b506004361060285760003560e01c806399cf1fba14602d575b600080fd5b605660048036036020811015604157600080fd5b8101908080359060200190929190505050606c565b6040518082815260200191505060405180910390f35b6000806000905060018310156083578091505060ab565b600190506000600190505b83811160a55780820291508080600101915050608e565b50809150505b91905056fea265627a7a72315820bcd063b4f18f875acad43ec05f2f9b8d3dc473149bfa146b3af9c8c9b66b088464736f6c63430005100032",
  "source": "pragma solidity ^0.5.0;\n\n// In Mathematics there is an operation call the product this refers to the multiplication of a number of numbers.\n// 0\n// Given a number compute the product of 1 through that number N calculating the product of all numbers between 1 and n where n is inclusive where n is supplied to the smart contract where n > 0.\n\ncontract MathsQuestion {\n    \n    function computeProduct(uint n) public pure returns (uint) {\n        uint product = 0;\n        if(n < 1) {\n            return product;\n        } else {\n            product = 1;\n            for (uint i = 1; i <= n; i++) {\n                product = product * i;\n            }\n            return product;\n        }\n    }\n\n}\n// 1*2*3 = 6",
  "sourcePath": "C:/Users/x20170416/Documents/GitHub/block-app/smart-contract-TABA-revision-product/contracts/MathsQuestion.sol",
  "compiler": {
    "name": "solc",
    "version": "0.5.16+commit.9c3226ce.Emscripten.clang"
  },
  "schemaVersion": "3.4.1",
  "updatedAt": "2021-08-07T17:44:27.744Z",
  "devdoc": {
    "methods": {}
  },
  "userdoc": {
    "methods": {}
  }
}