{
  "contractName": "HelloWorld",
  "abi": [
    {
      "constant": false,
      "inputs": [
        {
          "internalType": "string",
          "name": "name",
          "type": "string"
        }
      ],
      "name": "helloWorld",
      "outputs": [
        {
          "internalType": "string",
          "name": "",
          "type": "string"
        }
      ],
      "payable": false,
      "stateMutability": "nonpayable",
      "type": "function"
    }
  ],
  "bytecode": "0x608060405234801561001057600080fd5b5061025d806100206000396000f3fe608060405234801561001057600080fd5b506004361061002b5760003560e01c80635776508314610030575b600080fd5b6100e96004803603602081101561004657600080fd5b810190808035906020019064010000000081111561006357600080fd5b82018360208201111561007557600080fd5b8035906020019184600183028401116401000000008311171561009757600080fd5b91908080601f016020809104026020016040519081016040528093929190818152602001838380828437600081840152601f19601f820116905080830192505050505050509192919290505050610164565b6040518080602001828103825283818151815260200191508051906020019080838360005b8381101561012957808201518184015260208101905061010e565b50505050905090810190601f1680156101565780820380516001836020036101000a031916815260200191505b509250505060405180910390f35b60608160405160200180807f48656c6c6f000000000000000000000000000000000000000000000000000000815250600501807f200000000000000000000000000000000000000000000000000000000000000081525060010182805190602001908083835b602083106101ed57805182526020820191506020810190506020830392506101ca565b6001836020036101000a038019825116818451168082178552505050505050905001915050604051602081830303815290604052905091905056fea265627a7a723158208593707dc91339761000dafa4f2eb85cc5dcb3c49e351520862b4f9793a39b2e64736f6c63430005100032",
  "source": "pragma solidity ^0.5.0;\n\ncontract HelloWorld {\n     \n    function helloWorld(string memory name) public returns (string memory) {\n        return string(abi.encodePacked(\"Hello\",\" \",name));\n    }\n\n}",
  "sourcePath": "/Users/owner/Desktop/block-chain-labs/Lab-4/smart-contract-hello-name/contracts/HelloWorld.sol",
  "compiler": {
    "name": "solc",
    "version": "0.5.16+commit.9c3226ce.Emscripten.clang"
  },
  "schemaVersion": "3.4.1",
  "updatedAt": "2021-06-03T21:18:17.358Z",
  "devdoc": {
    "methods": {}
  },
  "userdoc": {
    "methods": {}
  }
}