{
  "contractName": "BookList",
  "abi": [
    {
      "anonymous": false,
      "inputs": [
        {
          "indexed": false,
          "internalType": "uint256",
          "name": "id",
          "type": "uint256"
        },
        {
          "indexed": false,
          "internalType": "string",
          "name": "name",
          "type": "string"
        }
      ],
      "name": "BookCreated",
      "type": "event"
    },
    {
      "anonymous": false,
      "inputs": [
        {
          "indexed": false,
          "internalType": "uint256",
          "name": "id",
          "type": "uint256"
        },
        {
          "indexed": false,
          "internalType": "string",
          "name": "name",
          "type": "string"
        }
      ],
      "name": "BookUpdated",
      "type": "event"
    },
    {
      "constant": true,
      "inputs": [
        {
          "internalType": "uint256",
          "name": "",
          "type": "uint256"
        }
      ],
      "name": "books",
      "outputs": [
        {
          "internalType": "uint256",
          "name": "id",
          "type": "uint256"
        },
        {
          "internalType": "string",
          "name": "name",
          "type": "string"
        },
        {
          "internalType": "uint256",
          "name": "user_id",
          "type": "uint256"
        }
      ],
      "payable": false,
      "stateMutability": "view",
      "type": "function"
    },
    {
      "constant": true,
      "inputs": [],
      "name": "taskCount",
      "outputs": [
        {
          "internalType": "uint256",
          "name": "",
          "type": "uint256"
        }
      ],
      "payable": false,
      "stateMutability": "view",
      "type": "function"
    },
    {
      "constant": false,
      "inputs": [
        {
          "internalType": "string",
          "name": "_name",
          "type": "string"
        },
        {
          "internalType": "uint256",
          "name": "_user_id",
          "type": "uint256"
        }
      ],
      "name": "newBook",
      "outputs": [],
      "payable": false,
      "stateMutability": "nonpayable",
      "type": "function"
    },
    {
      "constant": false,
      "inputs": [
        {
          "internalType": "uint256",
          "name": "_id",
          "type": "uint256"
        },
        {
          "internalType": "string",
          "name": "_name",
          "type": "string"
        },
        {
          "internalType": "uint256",
          "name": "_user_id",
          "type": "uint256"
        }
      ],
      "name": "editBook",
      "outputs": [],
      "payable": false,
      "stateMutability": "nonpayable",
      "type": "function"
    },
    {
      "constant": true,
      "inputs": [],
      "name": "getAll",
      "outputs": [
        {
          "components": [
            {
              "internalType": "uint256",
              "name": "id",
              "type": "uint256"
            },
            {
              "internalType": "string",
              "name": "name",
              "type": "string"
            },
            {
              "internalType": "uint256",
              "name": "user_id",
              "type": "uint256"
            }
          ],
          "internalType": "struct BookList.Book[]",
          "name": "",
          "type": "tuple[]"
        }
      ],
      "payable": false,
      "stateMutability": "view",
      "type": "function"
    }
  ],
  "bytecode": "0x60806040526000805534801561001457600080fd5b50610a52806100246000396000f3fe608060405234801561001057600080fd5b50600436106100575760003560e01c806343c533f21461005c57806353ed51431461007857806368744046146100965780637231e6e1146100c8578063b6cb58a5146100e4575b600080fd5b610076600480360361007191908101906105a0565b610102565b005b6100806101b7565b60405161008d9190610826565b60405180910390f35b6100b060048036036100ab91908101906105f4565b610309565b6040516100bf93929190610893565b60405180910390f35b6100e260048036036100dd919081019061061d565b6103cb565b005b6100ec61046b565b6040516100f99190610848565b60405180910390f35b60405180606001604052806000548152602001838152602001828152506001600080548152602001908152602001600020600082015181600001556020820151816001019080519060200190610159929190610471565b506040820151816002015590505060008081548092919060010191905055507f1e61067783088faa6beb3e219b52f2b2e10ccdd51adb2d86d786c3d15bb9c629600054836040516101ab929190610863565b60405180910390a15050565b6060806000546040519080825280602002602001820160405280156101f657816020015b6101e36104f1565b8152602001906001900390816101db5790505b50905060008090505b600054811015610301576001600082815260200190815260200160002060405180606001604052908160008201548152602001600182018054600181600116156101000203166002900480601f0160208091040260200160405190810160405280929190818152602001828054600181600116156101000203166002900480156102ca5780601f1061029f576101008083540402835291602001916102ca565b820191906000526020600020905b8154815290600101906020018083116102ad57829003601f168201915b505050505081526020016002820154815250508282815181106102e957fe5b602002602001018190525080806001019150506101ff565b508091505090565b6001602052806000526040600020600091509050806000015490806001018054600181600116156101000203166002900480601f0160208091040260200160405190810160405280929190818152602001828054600181600116156101000203166002900480156103bb5780601f10610390576101008083540402835291602001916103bb565b820191906000526020600020905b81548152906001019060200180831161039e57829003601f168201915b5050505050908060020154905083565b6040518060600160405280848152602001838152602001828152506001600085815260200190815260200160002060008201518160000155602082015181600101908051906020019061041f929190610471565b50604082015181600201559050507fb030156e564f37ef93bd3068336d75e7e195fcaa794ab6c171818a5224982ac7838360405161045e929190610863565b60405180910390a1505050565b60005481565b828054600181600116156101000203166002900490600052602060002090601f016020900481019282601f106104b257805160ff19168380011785556104e0565b828001600101855582156104e0579182015b828111156104df5782518255916020019190600101906104c4565b5b5090506104ed9190610512565b5090565b60405180606001604052806000815260200160608152602001600081525090565b61053491905b80821115610530576000816000905550600101610518565b5090565b90565b600082601f83011261054857600080fd5b813561055b610556826108fe565b6108d1565b9150808252602083016020830185838301111561057757600080fd5b6105828382846109a5565b50505092915050565b60008135905061059a816109f8565b92915050565b600080604083850312156105b357600080fd5b600083013567ffffffffffffffff8111156105cd57600080fd5b6105d985828601610537565b92505060206105ea8582860161058b565b9150509250929050565b60006020828403121561060657600080fd5b60006106148482850161058b565b91505092915050565b60008060006060848603121561063257600080fd5b60006106408682870161058b565b935050602084013567ffffffffffffffff81111561065d57600080fd5b61066986828701610537565b925050604061067a8682870161058b565b9150509250925092565b600061069083836107b8565b905092915050565b60006106a38261093a565b6106ad8185610968565b9350836020820285016106bf8561092a565b8060005b858110156106fb57848403895281516106dc8582610684565b94506106e78361095b565b925060208a019950506001810190506106c3565b50829750879550505050505092915050565b600061071882610950565b610722818561098a565b93506107328185602086016109b4565b61073b816109e7565b840191505092915050565b600061075182610945565b61075b8185610979565b935061076b8185602086016109b4565b610774816109e7565b840191505092915050565b600061078a82610945565b610794818561098a565b93506107a48185602086016109b4565b6107ad816109e7565b840191505092915050565b60006060830160008301516107d06000860182610808565b50602083015184820360208601526107e88282610746565b91505060408301516107fd6040860182610808565b508091505092915050565b6108118161099b565b82525050565b6108208161099b565b82525050565b600060208201905081810360008301526108408184610698565b905092915050565b600060208201905061085d6000830184610817565b92915050565b60006040820190506108786000830185610817565b818103602083015261088a818461070d565b90509392505050565b60006060820190506108a86000830186610817565b81810360208301526108ba818561077f565b90506108c96040830184610817565b949350505050565b6000604051905081810181811067ffffffffffffffff821117156108f457600080fd5b8060405250919050565b600067ffffffffffffffff82111561091557600080fd5b601f19601f8301169050602081019050919050565b6000819050602082019050919050565b600081519050919050565b600081519050919050565b600081519050919050565b6000602082019050919050565b600082825260208201905092915050565b600082825260208201905092915050565b600082825260208201905092915050565b6000819050919050565b82818337600083830152505050565b60005b838110156109d25780820151818401526020810190506109b7565b838111156109e1576000848401525b50505050565b6000601f19601f8301169050919050565b610a018161099b565b8114610a0c57600080fd5b5056fea365627a7a723158205dd0b5f7bd33fe1c362ac5bcb3f07b58c2c2eb2bea98ad89c815011886a31ffa6c6578706572696d656e74616cf564736f6c63430005100040",
  "source": "pragma solidity ^0.5.0;\npragma experimental ABIEncoderV2;\n\ncontract BookList {\n  uint public taskCount = 0;\n\n  struct Book {\n    uint id;\n    string name;\n    uint user_id;\n  }\n\n  mapping(uint => Book) public books;\n\n  event BookCreated(\n    uint id,\n    string name\n  );\n\n  event BookUpdated(\n    uint id,\n    string name\n  );\n\n  function newBook(string memory _name, uint _user_id) public {\n    books[taskCount] = Book(taskCount, _name, _user_id);\n    taskCount++;\n    emit BookCreated(taskCount, _name);\n  }\n\n  function editBook(uint _id, string memory _name, uint _user_id) public {\n    books[_id] = Book(_id, _name, _user_id);\n    emit BookUpdated(_id, _name);\n  }\n\n  function getAll() public view returns (Book[] memory){\n    Book[] memory _books = new Book[](taskCount);\n    for (uint i = 0; i < taskCount; i++) {\n        _books[i] = books[i];\n    }\n    return _books;\n  }\n\n}\n\n",
  "sourcePath": "/Users/owner/Desktop/express-book-list-auth-completed/contracts/BookList.sol",
  "compiler": {
    "name": "solc",
    "version": "0.5.16+commit.9c3226ce.Emscripten.clang"
  },
  "schemaVersion": "3.4.1",
  "updatedAt": "2021-07-12T19:15:10.201Z",
  "devdoc": {
    "methods": {}
  },
  "userdoc": {
    "methods": {}
  }
}