{
  "contractName": "Lottery",
  "abi": [
    {
      "constant": true,
      "inputs": [
        {
          "internalType": "uint256",
          "name": "x",
          "type": "uint256"
        }
      ],
      "name": "factorial",
      "outputs": [
        {
          "internalType": "uint256",
          "name": "",
          "type": "uint256"
        }
      ],
      "payable": false,
      "stateMutability": "pure",
      "type": "function"
    },
    {
      "constant": true,
      "inputs": [
        {
          "internalType": "uint256",
          "name": "_numberDrawed",
          "type": "uint256"
        }
      ],
      "name": "isPrime",
      "outputs": [
        {
          "internalType": "bool",
          "name": "",
          "type": "bool"
        }
      ],
      "payable": false,
      "stateMutability": "pure",
      "type": "function"
    }
  ],
  "bytecode": "0x608060405234801561001057600080fd5b50610218806100206000396000f3fe608060405234801561001057600080fd5b50600436106100365760003560e01c8063427034941461003b578063837148341461006b575b600080fd5b6100556004803603610050919081019061012b565b61009b565b6040516100629190610172565b60405180910390f35b6100856004803603610080919081019061012b565b6100e1565b604051610092919061018d565b60405180910390f35b600080829050600060029050818110156100d95760008183816100ba57fe5b0614156100cc576000925050506100dc565b60018211925050506100dc565b50505b919050565b60008082905060006001840390505b600181111561010c5781840291508080600190039150506100f0565b5080915050919050565b600081359050610125816101be565b92915050565b60006020828403121561013d57600080fd5b600061014b84828501610116565b91505092915050565b61015d816101a8565b82525050565b61016c816101b4565b82525050565b60006020820190506101876000830184610154565b92915050565b60006020820190506101a26000830184610163565b92915050565b60008115159050919050565b6000819050919050565b6101c7816101b4565b81146101d257600080fd5b5056fea365627a7a723158208555264dc8e721fbbb786f4e8745ef317f61cc4206c6ea3d4122f3d38883b1b86c6578706572696d656e74616cf564736f6c63430005100040",
  "source": "pragma solidity ^0.5.0;\npragma experimental ABIEncoderV2;\n\ncontract Lottery {\n    function factorial(uint x) public pure returns (uint) {\n        uint ans = x;\n        // for loop\n        for (uint i = x-1; i > 1; i--) {\n            ans = x * ans;\n        }\n\n        return ans;\n    }\n  function isPrime(uint256 _numberDrawed) pure public returns(bool){\n        uint256 num = _numberDrawed;\n        for(uint i = 2; i < num; i++){\n            if(num % i == 0 ){\n                return false;\n            }\n            return num > 1;\n        }\n    }\n}",
  "sourcePath": "C:/Users/x20170416/Documents/GitHub/block-app/express-book-list-auth-completed/contracts/Lottery.sol",
  "compiler": {
    "name": "solc",
    "version": "0.5.16+commit.9c3226ce.Emscripten.clang"
  },
  "schemaVersion": "3.4.1",
  "updatedAt": "2021-08-09T15:26:58.610Z",
  "devdoc": {
    "methods": {}
  },
  "userdoc": {
    "methods": {}
  }
}