{
  "contractName": "Lottery",
  "abi": [
    {
      "inputs": [],
      "payable": true,
      "stateMutability": "payable",
      "type": "constructor"
    },
    {
      "anonymous": false,
      "inputs": [
        {
          "indexed": false,
          "internalType": "uint256",
          "name": "numDrawed",
          "type": "uint256"
        },
        {
          "indexed": false,
          "internalType": "bool",
          "name": "winner",
          "type": "bool"
        },
        {
          "indexed": false,
          "internalType": "address",
          "name": "player",
          "type": "address"
        }
      ],
      "name": "DrawCreated",
      "type": "event"
    },
    {
      "payable": true,
      "stateMutability": "payable",
      "type": "fallback"
    },
    {
      "constant": true,
      "inputs": [],
      "name": "drawIndex",
      "outputs": [
        {
          "internalType": "uint256",
          "name": "",
          "type": "uint256"
        }
      ],
      "payable": false,
      "stateMutability": "view",
      "type": "function"
    },
    {
      "constant": true,
      "inputs": [
        {
          "internalType": "uint256",
          "name": "",
          "type": "uint256"
        }
      ],
      "name": "draws",
      "outputs": [
        {
          "internalType": "uint256",
          "name": "id",
          "type": "uint256"
        },
        {
          "internalType": "uint256",
          "name": "number",
          "type": "uint256"
        },
        {
          "internalType": "bool",
          "name": "winner",
          "type": "bool"
        },
        {
          "internalType": "address",
          "name": "player",
          "type": "address"
        }
      ],
      "payable": false,
      "stateMutability": "view",
      "type": "function"
    },
    {
      "constant": true,
      "inputs": [],
      "name": "getBalance",
      "outputs": [
        {
          "internalType": "uint256",
          "name": "",
          "type": "uint256"
        }
      ],
      "payable": false,
      "stateMutability": "view",
      "type": "function"
    },
    {
      "constant": false,
      "inputs": [],
      "name": "withdraw",
      "outputs": [],
      "payable": false,
      "stateMutability": "nonpayable",
      "type": "function"
    },
    {
      "constant": false,
      "inputs": [],
      "name": "withdrawAll",
      "outputs": [],
      "payable": false,
      "stateMutability": "nonpayable",
      "type": "function"
    },
    {
      "constant": false,
      "inputs": [],
      "name": "addFunds",
      "outputs": [],
      "payable": true,
      "stateMutability": "payable",
      "type": "function"
    },
    {
      "constant": false,
      "inputs": [],
      "name": "tryYourLuck",
      "outputs": [],
      "payable": true,
      "stateMutability": "payable",
      "type": "function"
    },
    {
      "constant": true,
      "inputs": [],
      "name": "rand",
      "outputs": [
        {
          "internalType": "uint256",
          "name": "",
          "type": "uint256"
        }
      ],
      "payable": false,
      "stateMutability": "view",
      "type": "function"
    },
    {
      "constant": true,
      "inputs": [
        {
          "internalType": "uint256",
          "name": "_numberDrawed",
          "type": "uint256"
        }
      ],
      "name": "isPrime",
      "outputs": [
        {
          "internalType": "bool",
          "name": "",
          "type": "bool"
        }
      ],
      "payable": false,
      "stateMutability": "pure",
      "type": "function"
    },
    {
      "constant": true,
      "inputs": [],
      "name": "getAllDraws",
      "outputs": [
        {
          "components": [
            {
              "internalType": "uint256",
              "name": "id",
              "type": "uint256"
            },
            {
              "internalType": "uint256",
              "name": "number",
              "type": "uint256"
            },
            {
              "internalType": "bool",
              "name": "winner",
              "type": "bool"
            },
            {
              "internalType": "address",
              "name": "player",
              "type": "address"
            }
          ],
          "internalType": "struct Lottery.Draw[]",
          "name": "",
          "type": "tuple[]"
        }
      ],
      "payable": false,
      "stateMutability": "view",
      "type": "function"
    }
  ],
  "bytecode": "0x6080604052600060025566b1a2bc2ec50000341015610053576040517f08c379a000000000000000000000000000000000000000000000000000000000815260040161004a90610126565b60405180910390fd5b336000806101000a81548173ffffffffffffffffffffffffffffffffffffffff021916908373ffffffffffffffffffffffffffffffffffffffff160217905550346001819055503073ffffffffffffffffffffffffffffffffffffffff166108fc349081150290604051600060405180830381858888f193505050501580156100e0573d6000803e3d6000fd5b50610157565b60006100f3601683610146565b91507f496e697469616c2066756e6473207265717569726564000000000000000000006000830152602082019050919050565b6000602082019050818103600083015261013f816100e6565b9050919050565b600082825260208201905092915050565b611028806101666000396000f3fe6080604052600436106100915760003560e01c80634270349411610059578063427034941461016b57806383a2f647146101a8578063853828b6146101b2578063a26759cb146101c9578063cbd53315146101d357610091565b806304b0726c146100935780630cc36c36146100be57806312065fe0146100fe5780633b3dca76146101295780633ccfd60b14610154575b005b34801561009f57600080fd5b506100a86101fe565b6040516100b59190610d65565b60405180910390f35b3480156100ca57600080fd5b506100e560048036036100e09190810190610a58565b61031f565b6040516100f59493929190610e74565b60405180910390f35b34801561010a57600080fd5b5061011361037c565b6040516101209190610e22565b60405180910390f35b34801561013557600080fd5b5061013e610413565b60405161014b9190610e22565b60405180910390f35b34801561016057600080fd5b506101696104c8565b005b34801561017757600080fd5b50610192600480360361018d9190810190610a58565b610609565b60405161019f9190610d87565b60405180910390f35b6101b0610656565b005b3480156101be57600080fd5b506101c7610878565b005b6101d1610925565b005b3480156101df57600080fd5b506101e86109fd565b6040516101f59190610e22565b60405180910390f35b60608060025460405190808252806020026020018201604052801561023d57816020015b61022a610a03565b8152602001906001900390816102225790505b50905060008090505b600254811015610317576003600082815260200190815260200160002060405180608001604052908160008201548152602001600182015481526020016002820160009054906101000a900460ff161515151581526020016002820160019054906101000a900473ffffffffffffffffffffffffffffffffffffffff1673ffffffffffffffffffffffffffffffffffffffff1673ffffffffffffffffffffffffffffffffffffffff16815250508282815181106102ff57fe5b60200260200101819052508080600101915050610246565b508091505090565b60036020528060005260406000206000915090508060000154908060010154908060020160009054906101000a900460ff16908060020160019054906101000a900473ffffffffffffffffffffffffffffffffffffffff16905084565b60008060009054906101000a900473ffffffffffffffffffffffffffffffffffffffff1673ffffffffffffffffffffffffffffffffffffffff163373ffffffffffffffffffffffffffffffffffffffff161461040d576040517f08c379a000000000000000000000000000000000000000000000000000000000815260040161040490610dc2565b60405180910390fd5b47905090565b6000804342336040516020016104299190610d2f565b6040516020818303038152906040528051906020012060001c8161044957fe5b0445424160405160200161045d9190610d2f565b6040516020818303038152906040528051906020012060001c8161047d57fe5b04444201010101016040516020016104959190610d4a565b6040516020818303038152906040528051906020012060001c9050600160648083816104bd57fe5b040282030191505090565b6000809054906101000a900473ffffffffffffffffffffffffffffffffffffffff1673ffffffffffffffffffffffffffffffffffffffff163373ffffffffffffffffffffffffffffffffffffffff1614610557576040517f08c379a000000000000000000000000000000000000000000000000000000000815260040161054e90610dc2565b60405180910390fd5b600154471161059b576040517f08c379a000000000000000000000000000000000000000000000000000000000815260040161059290610e02565b60405180910390fd5b6000809054906101000a900473ffffffffffffffffffffffffffffffffffffffff1673ffffffffffffffffffffffffffffffffffffffff166108fc60015447039081150290604051600060405180830381858888f19350505050158015610606573d6000803e3d6000fd5b50565b6000808290506000600290505b8181101561064857600081838161062957fe5b06141561063b57600092505050610651565b8080600101915050610616565b60018211925050505b919050565b670de0b6b3a764000034146106a0576040517f08c379a000000000000000000000000000000000000000000000000000000000815260040161069790610de2565b60405180910390fd5b6729a2241af62c000047116106ea576040517f08c379a00000000000000000000000000000000000000000000000000000000081526004016106e190610da2565b60405180910390fd5b60006106f4610413565b9050600061070182610609565b90508015610759573373ffffffffffffffffffffffffffffffffffffffff166108fc6729a2241af62c00009081150290604051600060405180830381858888f19350505050158015610757573d6000803e3d6000fd5b505b6040518060800160405280600254815260200183815260200182151581526020013373ffffffffffffffffffffffffffffffffffffffff16815250600360006002548152602001908152602001600020600082015181600001556020820151816001015560408201518160020160006101000a81548160ff02191690831515021790555060608201518160020160016101000a81548173ffffffffffffffffffffffffffffffffffffffff021916908373ffffffffffffffffffffffffffffffffffffffff1602179055509050506002600081548092919060010191905055507fc487e908651de449f014e4b75325e7ed04d9b964cef13b5096f5335a5570a1ad82823360405161086c93929190610e3d565b60405180910390a15050565b600047116108bb576040517f08c379a00000000000000000000000000000000000000000000000000000000081526004016108b290610e02565b60405180910390fd5b6000809054906101000a900473ffffffffffffffffffffffffffffffffffffffff1673ffffffffffffffffffffffffffffffffffffffff166108fc479081150290604051600060405180830381858888f19350505050158015610922573d6000803e3d6000fd5b50565b6000809054906101000a900473ffffffffffffffffffffffffffffffffffffffff1673ffffffffffffffffffffffffffffffffffffffff163373ffffffffffffffffffffffffffffffffffffffff16146109b4576040517f08c379a00000000000000000000000000000000000000000000000000000000081526004016109ab90610dc2565b60405180910390fd5b3073ffffffffffffffffffffffffffffffffffffffff166108fc349081150290604051600060405180830381858888f193505050501580156109fa573d6000803e3d6000fd5b50565b60025481565b60405180608001604052806000815260200160008152602001600015158152602001600073ffffffffffffffffffffffffffffffffffffffff1681525090565b600081359050610a5281610fce565b92915050565b600060208284031215610a6a57600080fd5b6000610a7884828501610a43565b91505092915050565b6000610a8d8383610ca5565b60808301905092915050565b610aa281610f5d565b82525050565b610ab9610ab482610f15565b610f93565b82525050565b610ac881610f03565b82525050565b610ad781610f03565b82525050565b6000610ae882610ec9565b610af28185610ee1565b9350610afd83610eb9565b8060005b83811015610b2e578151610b158882610a81565b9750610b2083610ed4565b925050600181019050610b01565b5085935050505092915050565b610b4481610f27565b82525050565b610b5381610f27565b82525050565b6000610b66601c83610ef2565b91507f4c6f7474657279206d616368696e6520686173206e6f2066756e6473000000006000830152602082019050919050565b6000610ba6602983610ef2565b91507f4f6e6c7920746865206f776e6572206861732061636365737320746f2074686960008301527f73206665617475726500000000000000000000000000000000000000000000006020830152604082019050919050565b6000610c0c601f83610ef2565b91507f596f75206e65656420746f20706179203120657468657220746f20706c6179006000830152602082019050919050565b6000610c4c602c83610ef2565b91507f746865726520617265206e6f2066756e647320696e2074686520636f6e74726160008301527f63742773206163636f756e7400000000000000000000000000000000000000006020830152604082019050919050565b608082016000820151610cbb6000850182610cfa565b506020820151610cce6020850182610cfa565b506040820151610ce16040850182610b3b565b506060820151610cf46060850182610abf565b50505050565b610d0381610f53565b82525050565b610d1281610f53565b82525050565b610d29610d2482610f53565b610fb7565b82525050565b6000610d3b8284610aa8565b60148201915081905092915050565b6000610d568284610d18565b60208201915081905092915050565b60006020820190508181036000830152610d7f8184610add565b905092915050565b6000602082019050610d9c6000830184610b4a565b92915050565b60006020820190508181036000830152610dbb81610b59565b9050919050565b60006020820190508181036000830152610ddb81610b99565b9050919050565b60006020820190508181036000830152610dfb81610bff565b9050919050565b60006020820190508181036000830152610e1b81610c3f565b9050919050565b6000602082019050610e376000830184610d09565b92915050565b6000606082019050610e526000830186610d09565b610e5f6020830185610b4a565b610e6c6040830184610a99565b949350505050565b6000608082019050610e896000830187610d09565b610e966020830186610d09565b610ea36040830185610b4a565b610eb06060830184610ace565b95945050505050565b6000819050602082019050919050565b600081519050919050565b6000602082019050919050565b600082825260208201905092915050565b600082825260208201905092915050565b6000610f0e82610f33565b9050919050565b6000610f2082610f33565b9050919050565b60008115159050919050565b600073ffffffffffffffffffffffffffffffffffffffff82169050919050565b6000819050919050565b6000610f6882610f6f565b9050919050565b6000610f7a82610f81565b9050919050565b6000610f8c82610f33565b9050919050565b6000610f9e82610fa5565b9050919050565b6000610fb082610fc1565b9050919050565b6000819050919050565b60008160601b9050919050565b610fd781610f53565b8114610fe257600080fd5b5056fea365627a7a72315820cb83c2663e89136a0346554f7a59874d2a729052c255c072ffc35328f43f2d9d6c6578706572696d656e74616cf564736f6c63430005100040",
  "source": "pragma solidity ^0.5.0;\r\npragma experimental ABIEncoderV2;\r\n\r\ncontract Lottery{\r\n   address payable owner;\r\n   uint private initialFund;\r\n   \r\n   constructor () payable public{\r\n       require(msg.value >= 50000000000000000, \"Initial funds required\");\r\n       owner = msg.sender;\r\n       initialFund = msg.value;\r\n       address(this).transfer(msg.value);\r\n   }\r\n   //restricts the execution of certain functions to the owner of the contract \r\n   modifier onlyOwner {\r\n       require(msg.sender == owner, \"Only the owner has access to this feature\");\r\n       _;\r\n   }\r\n   \r\n/*===================================================================================================================*/\r\n// LOTTERY GOVERNANCE\r\n/*===================================================================================================================*/\r\n   \r\n   //Required to send ethereum to a contract's address\r\n    function () external payable{\r\n    }\r\n    \r\n    //get balance of money in lottery account\r\n    function getBalance() public view onlyOwner returns (uint){\r\n        return address(this).balance;\r\n    }\r\n\r\n    //Transfer any profits to the contract owner\r\n    function withdraw() public onlyOwner {\r\n        require(address(this).balance > initialFund, \"there are no funds in the contract's account\");\r\n        owner.transfer(address(this).balance - initialFund);\r\n    }\r\n    \r\n    //Transfer any and all ether to the owner\r\n    function withdrawAll() public {\r\n        require(address(this).balance > 0, \"there are no funds in the contract's account\");\r\n        owner.transfer(address(this).balance);\r\n    }\r\n    \r\n    //pay ether to the lottery\r\n    function addFunds() payable public onlyOwner {\r\n        address(this).transfer(msg.value);\r\n    }\r\n    \r\n/*===================================================================================================================*/\r\n// LOTTERY FUNCTIONALLITY\r\n/*===================================================================================================================*/\r\n    uint public drawIndex = 0;\r\n    mapping (uint => Draw) public draws;\r\n\r\n    struct Draw{\r\n        uint id;\r\n        uint256 number;\r\n        bool winner;\r\n        address player;\r\n    }\r\n\r\n    event DrawCreated(\r\n     uint256 numDrawed,\r\n     bool winner,\r\n     address player\r\n    );\r\n\r\n   //Player draw a number  \r\n   function tryYourLuck() payable public {\r\n       //conditions\r\n       require(msg.value == 1 ether, \"You need to pay 1 ether to play\");\r\n       require(address(this).balance > 3 ether, \"Lottery machine has no funds\");\r\n       //2 function calls for the draw (draw number, chack if winner)\r\n       uint myNumber = rand();\r\n       bool winner = isPrime(myNumber);\r\n       // transfer ether if winner\r\n       if (winner){\r\n           msg.sender.transfer(3000000000000000000);\r\n       }\r\n       //Log the draw in a mapping \r\n       draws[drawIndex] = Draw(drawIndex, myNumber, winner, msg.sender);\r\n       drawIndex++;\r\n       emit DrawCreated(myNumber, winner, msg.sender);\r\n   }\r\n  \r\n  \r\n   //pseudo-random number generator. Source: https://stackoverflow.com/questions/58188832/solidity-generate-unpredictable-random-number-that-does-not-depend-on-input\r\n   function rand() public view  returns(uint256) {\r\n        uint256 seed = uint256(keccak256(abi.encodePacked(\r\n            block.timestamp + block.difficulty +\r\n            ((uint256(keccak256(abi.encodePacked(block.coinbase)))) / (block.timestamp)) +\r\n            block.gaslimit + \r\n            ((uint256(keccak256(abi.encodePacked(msg.sender)))) / (block.timestamp)) +\r\n            block.number\r\n        )));\r\n        //Draw numbers 1-100 (there are 25 prime numbers, chance of winning 1/4)\r\n        return ((seed - ((seed / 100) * 100))+1);\r\n    }\r\n\r\n   //only prime numbers get a prize. Adapted from: https://stackoverflow.com/questions/40200089/number-prime-test-in-javascript\r\n    function isPrime(uint256 _numberDrawed) pure public returns(bool){\r\n        uint256 num = _numberDrawed;\r\n        uint256 index = 2;\r\n        while(index < num){\r\n            if(num % index == 0 ){\r\n                return false;\r\n            }\r\n            index++;\r\n        } \r\n        return num > 1;\r\n    }\r\n    //get all draws, used for display\r\n    function getAllDraws() public view returns (Draw[] memory){\r\n        Draw[] memory _draws = new Draw[](drawIndex);\r\n        for (uint i = 0; i < drawIndex; i++) {\r\n            _draws[i] = draws[i];\r\n        }\r\n        return _draws;\r\n    }\r\n}",
  "sourcePath": "C:/Users/x20170416/Documents/GitHub/block-app/lottery/contracts/Lottery.sol",
  "compiler": {
    "name": "solc",
    "version": "0.5.16+commit.9c3226ce.Emscripten.clang"
  },
  "schemaVersion": "3.4.1",
  "updatedAt": "2021-08-09T12:30:54.493Z",
  "devdoc": {
    "methods": {}
  },
  "userdoc": {
    "methods": {}
  }
}