{
  "contractName": "Lottery",
  "abi": [
    {
      "inputs": [],
      "payable": true,
      "stateMutability": "payable",
      "type": "constructor"
    },
    {
      "anonymous": false,
      "inputs": [
        {
          "indexed": false,
          "internalType": "uint256",
          "name": "numDrawed",
          "type": "uint256"
        },
        {
          "indexed": false,
          "internalType": "bool",
          "name": "winner",
          "type": "bool"
        },
        {
          "indexed": false,
          "internalType": "address",
          "name": "player",
          "type": "address"
        }
      ],
      "name": "DrawCreated",
      "type": "event"
    },
    {
      "payable": true,
      "stateMutability": "payable",
      "type": "fallback"
    },
    {
      "constant": true,
      "inputs": [],
      "name": "drawIndex",
      "outputs": [
        {
          "internalType": "uint256",
          "name": "",
          "type": "uint256"
        }
      ],
      "payable": false,
      "stateMutability": "view",
      "type": "function"
    },
    {
      "constant": true,
      "inputs": [
        {
          "internalType": "uint256",
          "name": "",
          "type": "uint256"
        }
      ],
      "name": "draws",
      "outputs": [
        {
          "internalType": "uint256",
          "name": "id",
          "type": "uint256"
        },
        {
          "internalType": "uint256",
          "name": "number",
          "type": "uint256"
        },
        {
          "internalType": "bool",
          "name": "winner",
          "type": "bool"
        },
        {
          "internalType": "address",
          "name": "player",
          "type": "address"
        }
      ],
      "payable": false,
      "stateMutability": "view",
      "type": "function"
    },
    {
      "constant": true,
      "inputs": [],
      "name": "getBalance",
      "outputs": [
        {
          "internalType": "uint256",
          "name": "",
          "type": "uint256"
        }
      ],
      "payable": false,
      "stateMutability": "view",
      "type": "function"
    },
    {
      "constant": false,
      "inputs": [],
      "name": "withdraw",
      "outputs": [],
      "payable": false,
      "stateMutability": "nonpayable",
      "type": "function"
    },
    {
      "constant": false,
      "inputs": [],
      "name": "withdrawAll",
      "outputs": [],
      "payable": false,
      "stateMutability": "nonpayable",
      "type": "function"
    },
    {
      "constant": false,
      "inputs": [],
      "name": "addFunds",
      "outputs": [],
      "payable": true,
      "stateMutability": "payable",
      "type": "function"
    },
    {
      "constant": false,
      "inputs": [],
      "name": "tryYourLuck",
      "outputs": [],
      "payable": true,
      "stateMutability": "payable",
      "type": "function"
    },
    {
      "constant": true,
      "inputs": [],
      "name": "rand",
      "outputs": [
        {
          "internalType": "uint256",
          "name": "",
          "type": "uint256"
        }
      ],
      "payable": false,
      "stateMutability": "view",
      "type": "function"
    },
    {
      "constant": true,
      "inputs": [
        {
          "internalType": "uint256",
          "name": "_numberDrawed",
          "type": "uint256"
        }
      ],
      "name": "isPrime",
      "outputs": [
        {
          "internalType": "bool",
          "name": "",
          "type": "bool"
        }
      ],
      "payable": false,
      "stateMutability": "pure",
      "type": "function"
    },
    {
      "constant": true,
      "inputs": [],
      "name": "getAllDraws",
      "outputs": [
        {
          "components": [
            {
              "internalType": "uint256",
              "name": "id",
              "type": "uint256"
            },
            {
              "internalType": "uint256",
              "name": "number",
              "type": "uint256"
            },
            {
              "internalType": "bool",
              "name": "winner",
              "type": "bool"
            },
            {
              "internalType": "address",
              "name": "player",
              "type": "address"
            }
          ],
          "internalType": "struct Lottery.Draw[]",
          "name": "",
          "type": "tuple[]"
        }
      ],
      "payable": false,
      "stateMutability": "view",
      "type": "function"
    }
  ],
  "bytecode": "0x608060405260006002556706f05b59d3b20000341015610054576040517f08c379a000000000000000000000000000000000000000000000000000000000815260040161004b90610127565b60405180910390fd5b326000806101000a81548173ffffffffffffffffffffffffffffffffffffffff021916908373ffffffffffffffffffffffffffffffffffffffff160217905550346001819055503073ffffffffffffffffffffffffffffffffffffffff166108fc349081150290604051600060405180830381858888f193505050501580156100e1573d6000803e3d6000fd5b50610158565b60006100f4601683610147565b91507f496e697469616c2066756e6473207265717569726564000000000000000000006000830152602082019050919050565b60006020820190508181036000830152610140816100e7565b9050919050565b600082825260208201905092915050565b611164806101676000396000f3fe6080604052600436106100915760003560e01c80634270349411610059578063427034941461016b57806383a2f647146101a8578063853828b6146101b2578063a26759cb146101c9578063cbd53315146101d357610091565b806304b0726c146100935780630cc36c36146100be57806312065fe0146100fe5780633b3dca76146101295780633ccfd60b14610154575b005b34801561009f57600080fd5b506100a86101fe565b6040516100b59190610e81565b60405180910390f35b3480156100ca57600080fd5b506100e560048036036100e09190810190610ae8565b61031f565b6040516100f59493929190610fb0565b60405180910390f35b34801561010a57600080fd5b5061011361037c565b6040516101209190610f5e565b60405180910390f35b34801561013557600080fd5b5061013e610413565b60405161014b9190610f5e565b60405180910390f35b34801561016057600080fd5b506101696104c8565b005b34801561017757600080fd5b50610192600480360361018d9190810190610ae8565b610609565b60405161019f9190610ea3565b60405180910390f35b6101b0610656565b005b3480156101be57600080fd5b506101c7610876565b005b6101d16109b2565b005b3480156101df57600080fd5b506101e8610a8d565b6040516101f59190610f5e565b60405180910390f35b60608060025460405190808252806020026020018201604052801561023d57816020015b61022a610a93565b8152602001906001900390816102225790505b50905060008090505b600254811015610317576003600082815260200190815260200160002060405180608001604052908160008201548152602001600182015481526020016002820160009054906101000a900460ff161515151581526020016002820160019054906101000a900473ffffffffffffffffffffffffffffffffffffffff1673ffffffffffffffffffffffffffffffffffffffff1673ffffffffffffffffffffffffffffffffffffffff16815250508282815181106102ff57fe5b60200260200101819052508080600101915050610246565b508091505090565b60036020528060005260406000206000915090508060000154908060010154908060020160009054906101000a900460ff16908060020160019054906101000a900473ffffffffffffffffffffffffffffffffffffffff16905084565b60008060009054906101000a900473ffffffffffffffffffffffffffffffffffffffff1673ffffffffffffffffffffffffffffffffffffffff163273ffffffffffffffffffffffffffffffffffffffff161461040d576040517f08c379a000000000000000000000000000000000000000000000000000000000815260040161040490610efe565b60405180910390fd5b47905090565b6000804342336040516020016104299190610e4b565b6040516020818303038152906040528051906020012060001c8161044957fe5b0445424160405160200161045d9190610e4b565b6040516020818303038152906040528051906020012060001c8161047d57fe5b04444201010101016040516020016104959190610e66565b6040516020818303038152906040528051906020012060001c9050600160648083816104bd57fe5b040282030191505090565b6000809054906101000a900473ffffffffffffffffffffffffffffffffffffffff1673ffffffffffffffffffffffffffffffffffffffff163273ffffffffffffffffffffffffffffffffffffffff1614610557576040517f08c379a000000000000000000000000000000000000000000000000000000000815260040161054e90610efe565b60405180910390fd5b600154471161059b576040517f08c379a000000000000000000000000000000000000000000000000000000000815260040161059290610f1e565b60405180910390fd5b6000809054906101000a900473ffffffffffffffffffffffffffffffffffffffff1673ffffffffffffffffffffffffffffffffffffffff166108fc60015447039081150290604051600060405180830381858888f19350505050158015610606573d6000803e3d6000fd5b50565b6000808290506000600290505b8181101561064857600081838161062957fe5b06141561063b57600092505050610651565b8080600101915050610616565b60018211925050505b919050565b662386f26fc10000341461069f576040517f08c379a000000000000000000000000000000000000000000000000000000000815260040161069690610f3e565b60405180910390fd5b666a94d74f4300004710156106e9576040517f08c379a00000000000000000000000000000000000000000000000000000000081526004016106e090610ebe565b60405180910390fd5b60006106f3610413565b9050600061070082610609565b90508015610757573373ffffffffffffffffffffffffffffffffffffffff166108fc666a94d74f4300009081150290604051600060405180830381858888f19350505050158015610755573d6000803e3d6000fd5b505b6040518060800160405280600254815260200183815260200182151581526020013373ffffffffffffffffffffffffffffffffffffffff16815250600360006002548152602001908152602001600020600082015181600001556020820151816001015560408201518160020160006101000a81548160ff02191690831515021790555060608201518160020160016101000a81548173ffffffffffffffffffffffffffffffffffffffff021916908373ffffffffffffffffffffffffffffffffffffffff1602179055509050506002600081548092919060010191905055507fc487e908651de449f014e4b75325e7ed04d9b964cef13b5096f5335a5570a1ad82823360405161086a93929190610f79565b60405180910390a15050565b6000809054906101000a900473ffffffffffffffffffffffffffffffffffffffff1673ffffffffffffffffffffffffffffffffffffffff163273ffffffffffffffffffffffffffffffffffffffff1614610905576040517f08c379a00000000000000000000000000000000000000000000000000000000081526004016108fc90610efe565b60405180910390fd5b60004711610948576040517f08c379a000000000000000000000000000000000000000000000000000000000815260040161093f90610f1e565b60405180910390fd5b6000809054906101000a900473ffffffffffffffffffffffffffffffffffffffff1673ffffffffffffffffffffffffffffffffffffffff166108fc479081150290604051600060405180830381858888f193505050501580156109af573d6000803e3d6000fd5b50565b6000809054906101000a900473ffffffffffffffffffffffffffffffffffffffff1673ffffffffffffffffffffffffffffffffffffffff163273ffffffffffffffffffffffffffffffffffffffff1614610a41576040517f08c379a0000000000000000000000000000000000000000000000000000000008152600401610a3890610efe565b60405180910390fd5b662386f26fc10000341015610a8b576040517f08c379a0000000000000000000000000000000000000000000000000000000008152600401610a8290610ede565b60405180910390fd5b565b60025481565b60405180608001604052806000815260200160008152602001600015158152602001600073ffffffffffffffffffffffffffffffffffffffff1681525090565b600081359050610ae28161110a565b92915050565b600060208284031215610afa57600080fd5b6000610b0884828501610ad3565b91505092915050565b6000610b1d8383610dc1565b60808301905092915050565b610b3281611099565b82525050565b610b49610b4482611051565b6110cf565b82525050565b610b588161103f565b82525050565b610b678161103f565b82525050565b6000610b7882611005565b610b82818561101d565b9350610b8d83610ff5565b8060005b83811015610bbe578151610ba58882610b11565b9750610bb083611010565b925050600181019050610b91565b5085935050505092915050565b610bd481611063565b82525050565b610be381611063565b82525050565b6000610bf6601c8361102e565b91507f4c6f7474657279206d616368696e6520686173206e6f2066756e6473000000006000830152602082019050919050565b6000610c3660368361102e565b91507f596f75206d757374206164642031302066696e6e6579206f72206d6f7265207460008301527f6f2074686520636f6e7472616374206163636f756e74000000000000000000006020830152604082019050919050565b6000610c9c60298361102e565b91507f4f6e6c7920746865206f776e6572206861732061636365737320746f2074686960008301527f73206665617475726500000000000000000000000000000000000000000000006020830152604082019050919050565b6000610d02602c8361102e565b91507f746865726520617265206e6f2066756e647320696e2074686520636f6e74726160008301527f63742773206163636f756e7400000000000000000000000000000000000000006020830152604082019050919050565b6000610d6860218361102e565b91507f596f75206e65656420746f207061792031302066696e6e657920746f20706c6160008301527f79000000000000000000000000000000000000000000000000000000000000006020830152604082019050919050565b608082016000820151610dd76000850182610e16565b506020820151610dea6020850182610e16565b506040820151610dfd6040850182610bcb565b506060820151610e106060850182610b4f565b50505050565b610e1f8161108f565b82525050565b610e2e8161108f565b82525050565b610e45610e408261108f565b6110f3565b82525050565b6000610e578284610b38565b60148201915081905092915050565b6000610e728284610e34565b60208201915081905092915050565b60006020820190508181036000830152610e9b8184610b6d565b905092915050565b6000602082019050610eb86000830184610bda565b92915050565b60006020820190508181036000830152610ed781610be9565b9050919050565b60006020820190508181036000830152610ef781610c29565b9050919050565b60006020820190508181036000830152610f1781610c8f565b9050919050565b60006020820190508181036000830152610f3781610cf5565b9050919050565b60006020820190508181036000830152610f5781610d5b565b9050919050565b6000602082019050610f736000830184610e25565b92915050565b6000606082019050610f8e6000830186610e25565b610f9b6020830185610bda565b610fa86040830184610b29565b949350505050565b6000608082019050610fc56000830187610e25565b610fd26020830186610e25565b610fdf6040830185610bda565b610fec6060830184610b5e565b95945050505050565b6000819050602082019050919050565b600081519050919050565b6000602082019050919050565b600082825260208201905092915050565b600082825260208201905092915050565b600061104a8261106f565b9050919050565b600061105c8261106f565b9050919050565b60008115159050919050565b600073ffffffffffffffffffffffffffffffffffffffff82169050919050565b6000819050919050565b60006110a4826110ab565b9050919050565b60006110b6826110bd565b9050919050565b60006110c88261106f565b9050919050565b60006110da826110e1565b9050919050565b60006110ec826110fd565b9050919050565b6000819050919050565b60008160601b9050919050565b6111138161108f565b811461111e57600080fd5b5056fea365627a7a72315820fb658fe876b3271d329f66f2bebd295a5aaca932ed1fe7fecc1d90806659c1e06c6578706572696d656e74616cf564736f6c63430005100040",
  "source": "pragma solidity ^0.5.0;\r\npragma experimental ABIEncoderV2;\r\n\r\ncontract Lottery{\r\n   address payable owner;\r\n   uint private initialFund;\r\n   \r\n   constructor () payable public{\r\n       require(msg.value >= 500 finney, \"Initial funds required\");\r\n       owner = tx.origin;\r\n       initialFund = msg.value;\r\n       address(this).transfer(msg.value);\r\n   }\r\n   //restricts the execution of certain functions to the owner of the contract \r\n   modifier onlyOwner {\r\n       require(tx.origin == owner, \"Only the owner has access to this feature\");\r\n       _;\r\n   }\r\n   \r\n/*===================================================================================================================*/\r\n// LOTTERY GOVERNANCE\r\n/*===================================================================================================================*/\r\n   \r\n   //Required to send ethereum to a contract's address\r\n    function () external payable{\r\n    }\r\n    \r\n    //get balance of money in lottery account\r\n    function getBalance() public view onlyOwner returns (uint){\r\n        return address(this).balance;\r\n    }\r\n\r\n    //Transfer any profits to the contract owner\r\n    function withdraw() public onlyOwner {\r\n        require(address(this).balance > initialFund, \"there are no funds in the contract's account\");\r\n        owner.transfer(address(this).balance - initialFund);\r\n    }\r\n    \r\n    //Transfer any and all ether to the owner\r\n    function withdrawAll() public onlyOwner {\r\n        require(address(this).balance > 0, \"there are no funds in the contract's account\");\r\n        owner.transfer(address(this).balance);\r\n    }\r\n    \r\n    //pay ether to the lottery\r\n    function addFunds() payable public onlyOwner {\r\n        require(msg.value >= 10 finney, \"You must add 10 finney or more to the contract account\");\r\n    }\r\n    \r\n/*===================================================================================================================*/\r\n// LOTTERY FUNCTIONALLITY\r\n/*===================================================================================================================*/\r\n    uint public drawIndex = 0;\r\n    mapping (uint => Draw) public draws;\r\n\r\n    struct Draw{\r\n        uint id;\r\n        uint256 number;\r\n        bool winner;\r\n        address player;\r\n    }\r\n\r\n    event DrawCreated(\r\n     uint256 numDrawed,\r\n     bool winner,\r\n     address player\r\n    );\r\n\r\n   //Player draw a number  \r\n   function tryYourLuck() payable public {\r\n       //conditions\r\n       require(msg.value == 10 finney, \"You need to pay 10 finney to play\");\r\n       require(address(this).balance >= 30 finney, \"Lottery machine has no funds\");\r\n       //2 function calls for the draw (draw number, chack if winner)\r\n       uint myNumber = rand();\r\n       bool winner = isPrime(myNumber);\r\n       // transfer ether if winner\r\n       if (winner){\r\n           msg.sender.transfer(30 finney);\r\n       }\r\n       //Log the draw in a mapping \r\n       draws[drawIndex] = Draw(drawIndex, myNumber, winner, msg.sender);\r\n       drawIndex++;\r\n       emit DrawCreated(myNumber, winner, msg.sender);\r\n   }\r\n  \r\n  \r\n   //pseudo-random number generator. Source: https://stackoverflow.com/questions/58188832/solidity-generate-unpredictable-random-number-that-does-not-depend-on-input\r\n   function rand() public view  returns(uint256) {\r\n        uint256 seed = uint256(keccak256(abi.encodePacked(\r\n            block.timestamp + block.difficulty +\r\n            ((uint256(keccak256(abi.encodePacked(block.coinbase)))) / (block.timestamp)) +\r\n            block.gaslimit + \r\n            ((uint256(keccak256(abi.encodePacked(msg.sender)))) / (block.timestamp)) +\r\n            block.number\r\n        )));\r\n        //Draw numbers 1-100 (there are 25 prime numbers, chance of winning 1/4)\r\n        return ((seed - ((seed / 100) * 100))+1);\r\n    }\r\n\r\n   //only prime numbers get a prize. Adapted from: https://stackoverflow.com/questions/40200089/number-prime-test-in-javascript\r\n    function isPrime(uint256 _numberDrawed) pure public returns(bool){\r\n        uint256 num = _numberDrawed;\r\n        uint256 index = 2;\r\n        while(index < num){\r\n            if(num % index == 0 ){\r\n                return false;\r\n            }\r\n            index++;\r\n        } \r\n        return num > 1;\r\n    }\r\n    //get all draws, used for display\r\n    function getAllDraws() public view returns (Draw[] memory){\r\n        Draw[] memory _draws = new Draw[](drawIndex);\r\n        for (uint i = 0; i < drawIndex; i++) {\r\n            _draws[i] = draws[i];\r\n        }\r\n        return _draws;\r\n    }\r\n}",
  "sourcePath": "C:/Users/x20170416/Documents/GitHub/block-app/lottery/contracts/Lottery.sol",
  "compiler": {
    "name": "solc",
    "version": "0.5.16+commit.9c3226ce.Emscripten.clang"
  },
  "schemaVersion": "3.4.1",
  "updatedAt": "2021-08-09T18:15:43.885Z",
  "networkType": "ethereum",
  "devdoc": {
    "methods": {}
  },
  "userdoc": {
    "methods": {}
  }
}