{
  "contractName": "Lottery",
  "abi": [
    {
      "inputs": [],
      "payable": true,
      "stateMutability": "payable",
      "type": "constructor"
    },
    {
      "anonymous": false,
      "inputs": [
        {
          "indexed": false,
          "internalType": "uint256",
          "name": "numDrawed",
          "type": "uint256"
        },
        {
          "indexed": false,
          "internalType": "bool",
          "name": "winner",
          "type": "bool"
        },
        {
          "indexed": false,
          "internalType": "address",
          "name": "player",
          "type": "address"
        }
      ],
      "name": "DrawCreated",
      "type": "event"
    },
    {
      "payable": true,
      "stateMutability": "payable",
      "type": "fallback"
    },
    {
      "constant": true,
      "inputs": [],
      "name": "drawIndex",
      "outputs": [
        {
          "internalType": "uint256",
          "name": "",
          "type": "uint256"
        }
      ],
      "payable": false,
      "stateMutability": "view",
      "type": "function"
    },
    {
      "constant": true,
      "inputs": [
        {
          "internalType": "uint256",
          "name": "",
          "type": "uint256"
        }
      ],
      "name": "draws",
      "outputs": [
        {
          "internalType": "uint256",
          "name": "id",
          "type": "uint256"
        },
        {
          "internalType": "uint256",
          "name": "number",
          "type": "uint256"
        },
        {
          "internalType": "bool",
          "name": "winner",
          "type": "bool"
        },
        {
          "internalType": "address",
          "name": "player",
          "type": "address"
        }
      ],
      "payable": false,
      "stateMutability": "view",
      "type": "function"
    },
    {
      "constant": true,
      "inputs": [],
      "name": "getBalance",
      "outputs": [
        {
          "internalType": "uint256",
          "name": "",
          "type": "uint256"
        }
      ],
      "payable": false,
      "stateMutability": "view",
      "type": "function"
    },
    {
      "constant": false,
      "inputs": [],
      "name": "withdraw",
      "outputs": [],
      "payable": false,
      "stateMutability": "nonpayable",
      "type": "function"
    },
    {
      "constant": false,
      "inputs": [],
      "name": "withdrawAll",
      "outputs": [],
      "payable": false,
      "stateMutability": "nonpayable",
      "type": "function"
    },
    {
      "constant": false,
      "inputs": [],
      "name": "addFunds",
      "outputs": [],
      "payable": true,
      "stateMutability": "payable",
      "type": "function"
    },
    {
      "constant": false,
      "inputs": [],
      "name": "tryYourLuck",
      "outputs": [],
      "payable": true,
      "stateMutability": "payable",
      "type": "function"
    },
    {
      "constant": true,
      "inputs": [],
      "name": "rand",
      "outputs": [
        {
          "internalType": "uint256",
          "name": "",
          "type": "uint256"
        }
      ],
      "payable": false,
      "stateMutability": "view",
      "type": "function"
    },
    {
      "constant": true,
      "inputs": [
        {
          "internalType": "uint256",
          "name": "_numberDrawed",
          "type": "uint256"
        }
      ],
      "name": "isPrime",
      "outputs": [
        {
          "internalType": "bool",
          "name": "",
          "type": "bool"
        }
      ],
      "payable": false,
      "stateMutability": "pure",
      "type": "function"
    }
  ],
  "bytecode": "0x6080604052681b1ae4d6e2ef5000006001556000600255336000806101000a81548173ffffffffffffffffffffffffffffffffffffffff021916908373ffffffffffffffffffffffffffffffffffffffff1602179055503073ffffffffffffffffffffffffffffffffffffffff166108fc349081150290604051600060405180830381858888f1935050505015801561009c573d6000803e3d6000fd5b50610c00806100ac6000396000f3fe6080604052600436106100865760003560e01c80634270349411610059578063427034941461018957806383a2f647146101dc578063853828b6146101e6578063a26759cb146101fd578063cbd533151461020757610086565b80630cc36c361461008857806312065fe01461011c5780633b3dca76146101475780633ccfd60b14610172575b005b34801561009457600080fd5b506100c1600480360360208110156100ab57600080fd5b8101908080359060200190929190505050610232565b60405180858152602001848152602001831515151581526020018273ffffffffffffffffffffffffffffffffffffffff1673ffffffffffffffffffffffffffffffffffffffff16815260200194505050505060405180910390f35b34801561012857600080fd5b5061013161028f565b6040518082815260200191505060405180910390f35b34801561015357600080fd5b5061015c61033c565b6040518082815260200191505060405180910390f35b34801561017e57600080fd5b5061018761044c565b005b34801561019557600080fd5b506101c2600480360360208110156101ac57600080fd5b81019080803590602001909291905050506105b9565b604051808215151515815260200191505060405180910390f35b6101e4610606565b005b3480156101f257600080fd5b506101fb6108ca565b005b610205610a32565b005b34801561021357600080fd5b5061021c610b3d565b6040518082815260200191505060405180910390f35b60036020528060005260406000206000915090508060000154908060010154908060020160009054906101000a900460ff16908060020160019054906101000a900473ffffffffffffffffffffffffffffffffffffffff16905084565b60008060009054906101000a900473ffffffffffffffffffffffffffffffffffffffff1673ffffffffffffffffffffffffffffffffffffffff163373ffffffffffffffffffffffffffffffffffffffff1614610336576040517f08c379a0000000000000000000000000000000000000000000000000000000008152600401808060200182810382526030815260200180610b706030913960400191505060405180910390fd5b47905090565b600080434233604051602001808273ffffffffffffffffffffffffffffffffffffffff1673ffffffffffffffffffffffffffffffffffffffff1660601b81526014019150506040516020818303038152906040528051906020012060001c816103a157fe5b04454241604051602001808273ffffffffffffffffffffffffffffffffffffffff1673ffffffffffffffffffffffffffffffffffffffff1660601b81526014019150506040516020818303038152906040528051906020012060001c8161040457fe5b0444420101010101604051602001808281526020019150506040516020818303038152906040528051906020012060001c9050606480828161044257fe5b0402810391505090565b6000809054906101000a900473ffffffffffffffffffffffffffffffffffffffff1673ffffffffffffffffffffffffffffffffffffffff163373ffffffffffffffffffffffffffffffffffffffff16146104f1576040517f08c379a000000000000000000000000000000000000000000000000000000000815260040180806020018281038252602c815260200180610b44602c913960400191505060405180910390fd5b600154471161054b576040517f08c379a000000000000000000000000000000000000000000000000000000000815260040180806020018281038252602c815260200180610ba0602c913960400191505060405180910390fd5b6000809054906101000a900473ffffffffffffffffffffffffffffffffffffffff1673ffffffffffffffffffffffffffffffffffffffff166108fc60015447039081150290604051600060405180830381858888f193505050501580156105b6573d6000803e3d6000fd5b50565b6000808290506000600290505b818110156105f85760008183816105d957fe5b0614156105eb57600092505050610601565b80806001019150506105c6565b60018211925050505b919050565b670de0b6b3a76400003414610683576040517f08c379a000000000000000000000000000000000000000000000000000000000815260040180806020018281038252601f8152602001807f596f75206e65656420746f20706179203120657468657220746f20706c61790081525060200191505060405180910390fd5b6729a2241af62c00004711610700576040517f08c379a00000000000000000000000000000000000000000000000000000000081526004018080602001828103825260148152602001807f4d616368696e6520686173206e6f2066756e647300000000000000000000000081525060200191505060405180910390fd5b600061070a61033c565b90506000610717826105b9565b9050801561076f573373ffffffffffffffffffffffffffffffffffffffff166108fc6729a2241af62c00009081150290604051600060405180830381858888f1935050505015801561076d573d6000803e3d6000fd5b505b6040518060800160405280600254815260200183815260200182151581526020013373ffffffffffffffffffffffffffffffffffffffff16815250600360006002548152602001908152602001600020600082015181600001556020820151816001015560408201518160020160006101000a81548160ff02191690831515021790555060608201518160020160016101000a81548173ffffffffffffffffffffffffffffffffffffffff021916908373ffffffffffffffffffffffffffffffffffffffff1602179055509050506002600081548092919060010191905055507fc487e908651de449f014e4b75325e7ed04d9b964cef13b5096f5335a5570a1ad82823360405180848152602001831515151581526020018273ffffffffffffffffffffffffffffffffffffffff1673ffffffffffffffffffffffffffffffffffffffff168152602001935050505060405180910390a15050565b6000809054906101000a900473ffffffffffffffffffffffffffffffffffffffff1673ffffffffffffffffffffffffffffffffffffffff163373ffffffffffffffffffffffffffffffffffffffff161461096f576040517f08c379a000000000000000000000000000000000000000000000000000000000815260040180806020018281038252602c815260200180610b44602c913960400191505060405180910390fd5b600047116109c8576040517f08c379a000000000000000000000000000000000000000000000000000000000815260040180806020018281038252602c815260200180610ba0602c913960400191505060405180910390fd5b6000809054906101000a900473ffffffffffffffffffffffffffffffffffffffff1673ffffffffffffffffffffffffffffffffffffffff166108fc479081150290604051600060405180830381858888f19350505050158015610a2f573d6000803e3d6000fd5b50565b6000809054906101000a900473ffffffffffffffffffffffffffffffffffffffff1673ffffffffffffffffffffffffffffffffffffffff163373ffffffffffffffffffffffffffffffffffffffff1614610af4576040517f08c379a000000000000000000000000000000000000000000000000000000000815260040180806020018281038252601c8152602001807f4f6e6c7920746865206f776e6572206d6179206164642066756e64730000000081525060200191505060405180910390fd5b3073ffffffffffffffffffffffffffffffffffffffff166108fc349081150290604051600060405180830381858888f19350505050158015610b3a573d6000803e3d6000fd5b50565b6002548156fe796f7520646f206e6f742068617665207065726d697373696f6e20746f2077697468647261772066756e64734f6e6c7920746865206f776e6572206d6179206163636573732074686520636f6e747261637427732062616c616e6365746865726520617265206e6f2066756e647320696e2074686520636f6e74726163742773206163636f756e74a265627a7a72315820b66dfc8fb302213213932af7b972408389cd9fc25b4db947f905b7d1e9e7606564736f6c63430005100032",
  "source": "pragma solidity ^0.5.0;\r\n\r\ncontract Lottery{\r\n   address payable owner;\r\n   \r\n   uint256 private initialFund = 500000000000000000000;\r\n   \r\n   constructor () payable public{\r\n       owner = msg.sender;\r\n       address(this).transfer(msg.value);\r\n   }\r\n   \r\n/*===================================================================================================================*/\r\n// LOTTERY GOVERNANCE\r\n/*===================================================================================================================*/\r\n   \r\n   //Required to send ethereum to a contract's address\r\n    function () external payable{\r\n    }\r\n    \r\n    //get balance of money in lottery account\r\n    function getBalance() public view returns (uint){\r\n        require(msg.sender == owner, \"Only the owner may access the contract's balance\");\r\n        return address(this).balance;\r\n    }\r\n\r\n    //Transfer any profits to the contract owner\r\n    function withdraw() public {\r\n        require(msg.sender == owner, \"you do not have permission to withdraw funds\");\r\n        require(address(this).balance > initialFund, \"there are no funds in the contract's account\");\r\n        owner.transfer(address(this).balance - initialFund);\r\n    }\r\n    \r\n    //Transfer any and all ether to the owner\r\n    function withdrawAll() public {\r\n        require(msg.sender == owner, \"you do not have permission to withdraw funds\");\r\n        require(address(this).balance > 0, \"there are no funds in the contract's account\");\r\n        owner.transfer(address(this).balance);\r\n    }\r\n    \r\n    //pay ether to the lottery\r\n    function addFunds() payable public {\r\n        require(msg.sender == owner, \"Only the owner may add funds\");\r\n        address(this).transfer(msg.value);\r\n    }\r\n    \r\n/*===================================================================================================================*/\r\n// LOTTERY FUNCTIONALLITY\r\n/*===================================================================================================================*/\r\n    uint public drawIndex = 0;\r\n    mapping (uint => Draw) public draws;\r\n\r\n    struct Draw{\r\n        uint id;\r\n        uint256 number;\r\n        bool winner;\r\n        address player;\r\n    }\r\n\r\n    event DrawCreated(\r\n     uint256 numDrawed,\r\n     bool winner,\r\n     address player\r\n    );\r\n\r\n   //Player draw a number  \r\n   function tryYourLuck() payable public {\r\n       require(msg.value == 1 ether, \"You need to pay 1 ether to play\");\r\n       require(address(this).balance > 3 ether, \"Machine has no funds\");\r\n       uint myNumber = rand();\r\n       bool winner = isPrime(myNumber);\r\n       if (winner){\r\n           msg.sender.transfer(3000000000000000000);\r\n       }\r\n       draws[drawIndex] = Draw(drawIndex, myNumber, winner, msg.sender);\r\n       drawIndex++;\r\n       emit DrawCreated(myNumber, winner, msg.sender);\r\n   }\r\n  \r\n  \r\n   //pseudo-random number generator\r\n   function rand() public view  returns(uint256) {\r\n        uint256 seed = uint256(keccak256(abi.encodePacked(\r\n            block.timestamp + block.difficulty +\r\n            ((uint256(keccak256(abi.encodePacked(block.coinbase)))) / (block.timestamp)) +\r\n            block.gaslimit + \r\n            ((uint256(keccak256(abi.encodePacked(msg.sender)))) / (block.timestamp)) +\r\n            block.number\r\n        )));\r\n    \r\n        return (seed - ((seed / 100) * 100));\r\n    }\r\n\r\n   //only prime numbers get a prize\r\n    function isPrime(uint256 _numberDrawed) pure public returns(bool){\r\n        uint256 num = _numberDrawed;\r\n        uint256 index = 2;\r\n        while(index < num){\r\n            if(num % index == 0 ){\r\n                return false;\r\n            }\r\n            index++;\r\n        } \r\n        return num > 1;\r\n    }\r\n}",
  "sourcePath": "C:/Users/x20170416/Documents/GitHub/block-app/lottery/contracts/Lottery.sol",
  "compiler": {
    "name": "solc",
    "version": "0.5.16+commit.9c3226ce.Emscripten.clang"
  },
  "schemaVersion": "3.4.1",
  "updatedAt": "2021-08-08T20:26:45.149Z",
  "devdoc": {
    "methods": {}
  },
  "userdoc": {
    "methods": {}
  }
}