{
  "contractName": "RugbyDAUMarket",
  "abi": [
    {
      "inputs": [],
      "stateMutability": "nonpayable",
      "type": "constructor"
    },
    {
      "anonymous": false,
      "inputs": [
        {
          "indexed": true,
          "internalType": "uint256",
          "name": "itemId",
          "type": "uint256"
        },
        {
          "indexed": true,
          "internalType": "address",
          "name": "rugbydauTokenContract",
          "type": "address"
        },
        {
          "indexed": true,
          "internalType": "uint256",
          "name": "tokenId",
          "type": "uint256"
        },
        {
          "indexed": false,
          "internalType": "address",
          "name": "seller",
          "type": "address"
        },
        {
          "indexed": false,
          "internalType": "address",
          "name": "owner",
          "type": "address"
        },
        {
          "indexed": false,
          "internalType": "uint256",
          "name": "price",
          "type": "uint256"
        },
        {
          "indexed": false,
          "internalType": "bool",
          "name": "isSold",
          "type": "bool"
        }
      ],
      "name": "MerchandiseCreated",
      "type": "event"
    },
    {
      "inputs": [],
      "name": "getListingPrice",
      "outputs": [
        {
          "internalType": "uint256",
          "name": "",
          "type": "uint256"
        }
      ],
      "stateMutability": "view",
      "type": "function",
      "constant": true
    },
    {
      "inputs": [
        {
          "internalType": "address",
          "name": "rugbydauTokenContract",
          "type": "address"
        },
        {
          "internalType": "uint256",
          "name": "tokenId",
          "type": "uint256"
        },
        {
          "internalType": "uint256",
          "name": "price",
          "type": "uint256"
        }
      ],
      "name": "createMerchandise",
      "outputs": [],
      "stateMutability": "payable",
      "type": "function",
      "payable": true
    },
    {
      "inputs": [
        {
          "internalType": "address",
          "name": "rugbydauTokenContract",
          "type": "address"
        },
        {
          "internalType": "uint256",
          "name": "itemId",
          "type": "uint256"
        }
      ],
      "name": "createSale",
      "outputs": [],
      "stateMutability": "payable",
      "type": "function",
      "payable": true
    },
    {
      "inputs": [],
      "name": "showMarketStock",
      "outputs": [
        {
          "components": [
            {
              "internalType": "uint256",
              "name": "itemId",
              "type": "uint256"
            },
            {
              "internalType": "address",
              "name": "rugbydauTokenContract",
              "type": "address"
            },
            {
              "internalType": "uint256",
              "name": "tokenId",
              "type": "uint256"
            },
            {
              "internalType": "address payable",
              "name": "seller",
              "type": "address"
            },
            {
              "internalType": "address payable",
              "name": "owner",
              "type": "address"
            },
            {
              "internalType": "uint256",
              "name": "price",
              "type": "uint256"
            },
            {
              "internalType": "bool",
              "name": "isSold",
              "type": "bool"
            }
          ],
          "internalType": "struct RugbyDAUMarket.Merchandise[]",
          "name": "",
          "type": "tuple[]"
        }
      ],
      "stateMutability": "view",
      "type": "function",
      "constant": true
    },
    {
      "inputs": [],
      "name": "showMyRugbyDAUs",
      "outputs": [
        {
          "components": [
            {
              "internalType": "uint256",
              "name": "itemId",
              "type": "uint256"
            },
            {
              "internalType": "address",
              "name": "rugbydauTokenContract",
              "type": "address"
            },
            {
              "internalType": "uint256",
              "name": "tokenId",
              "type": "uint256"
            },
            {
              "internalType": "address payable",
              "name": "seller",
              "type": "address"
            },
            {
              "internalType": "address payable",
              "name": "owner",
              "type": "address"
            },
            {
              "internalType": "uint256",
              "name": "price",
              "type": "uint256"
            },
            {
              "internalType": "bool",
              "name": "isSold",
              "type": "bool"
            }
          ],
          "internalType": "struct RugbyDAUMarket.Merchandise[]",
          "name": "",
          "type": "tuple[]"
        }
      ],
      "stateMutability": "view",
      "type": "function",
      "constant": true
    },
    {
      "inputs": [],
      "name": "showMyMerchandise",
      "outputs": [
        {
          "components": [
            {
              "internalType": "uint256",
              "name": "itemId",
              "type": "uint256"
            },
            {
              "internalType": "address",
              "name": "rugbydauTokenContract",
              "type": "address"
            },
            {
              "internalType": "uint256",
              "name": "tokenId",
              "type": "uint256"
            },
            {
              "internalType": "address payable",
              "name": "seller",
              "type": "address"
            },
            {
              "internalType": "address payable",
              "name": "owner",
              "type": "address"
            },
            {
              "internalType": "uint256",
              "name": "price",
              "type": "uint256"
            },
            {
              "internalType": "bool",
              "name": "isSold",
              "type": "bool"
            }
          ],
          "internalType": "struct RugbyDAUMarket.Merchandise[]",
          "name": "",
          "type": "tuple[]"
        }
      ],
      "stateMutability": "view",
      "type": "function",
      "constant": true
    }
  ],
  "bytecode": "0x60806040526509184e72a00060045534801561001a57600080fd5b50600160008190555033600360006101000a81548173ffffffffffffffffffffffffffffffffffffffff021916908373ffffffffffffffffffffffffffffffffffffffff1602179055506118d3806100736000396000f3fe6080604052600436106100555760003560e01c806312440aae1461005a57806312e85585146100855780635d412507146100b05780636d989008146100cc57806370eeafcd146100f7578063b3643e3a14610122575b600080fd5b34801561006657600080fd5b5061006f61013e565b60405161007c91906114df565b60405180910390f35b34801561009157600080fd5b5061009a6104a0565b6040516100a79190611581565b60405180910390f35b6100ca60048036038101906100c59190611217565b6104aa565b005b3480156100d857600080fd5b506100e161080e565b6040516100ee91906114df565b60405180910390f35b34801561010357600080fd5b5061010c610b70565b60405161011991906114df565b60405180910390f35b61013c600480360381019061013791906111d7565b610e4f565b005b6060600061014c6001611108565b905060008060005b838110156101f4573373ffffffffffffffffffffffffffffffffffffffff166005600060018461018491906115e6565b815260200190815260200160002060030160009054906101000a900473ffffffffffffffffffffffffffffffffffffffff1673ffffffffffffffffffffffffffffffffffffffff1614156101e15782806101dd906116ca565b9350505b80806101ec906116ca565b915050610154565b5060008267ffffffffffffffff81111561021157610210611771565b5b60405190808252806020026020018201604052801561024a57816020015b61023761112c565b81526020019060019003908161022f5790505b50905060005b84811015610495573373ffffffffffffffffffffffffffffffffffffffff166005600060018461028091906115e6565b815260200190815260200160002060030160009054906101000a900473ffffffffffffffffffffffffffffffffffffffff1673ffffffffffffffffffffffffffffffffffffffff161415610482576000600560006001846102e191906115e6565b81526020019081526020016000206000015490506000600560008381526020019081526020016000209050806040518060e0016040529081600082015481526020016001820160009054906101000a900473ffffffffffffffffffffffffffffffffffffffff1673ffffffffffffffffffffffffffffffffffffffff1673ffffffffffffffffffffffffffffffffffffffff168152602001600282015481526020016003820160009054906101000a900473ffffffffffffffffffffffffffffffffffffffff1673ffffffffffffffffffffffffffffffffffffffff1673ffffffffffffffffffffffffffffffffffffffff1681526020016004820160009054906101000a900473ffffffffffffffffffffffffffffffffffffffff1673ffffffffffffffffffffffffffffffffffffffff1673ffffffffffffffffffffffffffffffffffffffff168152602001600582015481526020016006820160009054906101000a900460ff16151515158152505084868151811061046657610465611742565b5b6020026020010181905250848061047c906116ca565b95505050505b808061048d906116ca565b915050610250565b508094505050505090565b6000600454905090565b600260005414156104f0576040517f08c379a00000000000000000000000000000000000000000000000000000000081526004016104e790611561565b60405180910390fd5b60026000819055506000811161053b576040517f08c379a000000000000000000000000000000000000000000000000000000000815260040161053290611501565b60405180910390fd5b600454341461057f576040517f08c379a000000000000000000000000000000000000000000000000000000000815260040161057690611541565b60405180910390fd5b6105896001611116565b60006105956001611108565b90506040518060e001604052808281526020018573ffffffffffffffffffffffffffffffffffffffff1681526020018481526020013373ffffffffffffffffffffffffffffffffffffffff168152602001600073ffffffffffffffffffffffffffffffffffffffff16815260200183815260200160001515815250600560008381526020019081526020016000206000820151816000015560208201518160010160006101000a81548173ffffffffffffffffffffffffffffffffffffffff021916908373ffffffffffffffffffffffffffffffffffffffff1602179055506040820151816002015560608201518160030160006101000a81548173ffffffffffffffffffffffffffffffffffffffff021916908373ffffffffffffffffffffffffffffffffffffffff16021790555060808201518160040160006101000a81548173ffffffffffffffffffffffffffffffffffffffff021916908373ffffffffffffffffffffffffffffffffffffffff16021790555060a0820151816005015560c08201518160060160006101000a81548160ff0219169083151502179055509050508373ffffffffffffffffffffffffffffffffffffffff166323b872dd3330866040518463ffffffff1660e01b815260040161077693929190611463565b600060405180830381600087803b15801561079057600080fd5b505af11580156107a4573d6000803e3d6000fd5b50505050828473ffffffffffffffffffffffffffffffffffffffff16827f4c3453ac36a0a5c1d70924bc684f106d06b8c04d9b1b50cf24d57e9b6d7bac413360008760006040516107f8949392919061149a565b60405180910390a4506001600081905550505050565b6060600061081c6001611108565b905060008060005b838110156108c4573373ffffffffffffffffffffffffffffffffffffffff166005600060018461085491906115e6565b815260200190815260200160002060040160009054906101000a900473ffffffffffffffffffffffffffffffffffffffff1673ffffffffffffffffffffffffffffffffffffffff1614156108b15782806108ad906116ca565b9350505b80806108bc906116ca565b915050610824565b5060008267ffffffffffffffff8111156108e1576108e0611771565b5b60405190808252806020026020018201604052801561091a57816020015b61090761112c565b8152602001906001900390816108ff5790505b50905060005b84811015610b65573373ffffffffffffffffffffffffffffffffffffffff166005600060018461095091906115e6565b815260200190815260200160002060040160009054906101000a900473ffffffffffffffffffffffffffffffffffffffff1673ffffffffffffffffffffffffffffffffffffffff161415610b52576000600560006001846109b191906115e6565b81526020019081526020016000206000015490506000600560008381526020019081526020016000209050806040518060e0016040529081600082015481526020016001820160009054906101000a900473ffffffffffffffffffffffffffffffffffffffff1673ffffffffffffffffffffffffffffffffffffffff1673ffffffffffffffffffffffffffffffffffffffff168152602001600282015481526020016003820160009054906101000a900473ffffffffffffffffffffffffffffffffffffffff1673ffffffffffffffffffffffffffffffffffffffff1673ffffffffffffffffffffffffffffffffffffffff1681526020016004820160009054906101000a900473ffffffffffffffffffffffffffffffffffffffff1673ffffffffffffffffffffffffffffffffffffffff1673ffffffffffffffffffffffffffffffffffffffff168152602001600582015481526020016006820160009054906101000a900460ff161515151581525050848681518110610b3657610b35611742565b5b60200260200101819052508480610b4c906116ca565b95505050505b8080610b5d906116ca565b915050610920565b508094505050505090565b60606000610b7e6001611108565b90506000610b8c6002611108565b610b966001611108565b610ba0919061163c565b90506000808267ffffffffffffffff811115610bbf57610bbe611771565b5b604051908082528060200260200182016040528015610bf857816020015b610be561112c565b815260200190600190039081610bdd5790505b50905060005b84811015610e4457600073ffffffffffffffffffffffffffffffffffffffff1660056000600184610c2f91906115e6565b815260200190815260200160002060040160009054906101000a900473ffffffffffffffffffffffffffffffffffffffff1673ffffffffffffffffffffffffffffffffffffffff161415610e3157600060056000600184610c9091906115e6565b81526020019081526020016000206000015490506000600560008381526020019081526020016000209050806040518060e0016040529081600082015481526020016001820160009054906101000a900473ffffffffffffffffffffffffffffffffffffffff1673ffffffffffffffffffffffffffffffffffffffff1673ffffffffffffffffffffffffffffffffffffffff168152602001600282015481526020016003820160009054906101000a900473ffffffffffffffffffffffffffffffffffffffff1673ffffffffffffffffffffffffffffffffffffffff1673ffffffffffffffffffffffffffffffffffffffff1681526020016004820160009054906101000a900473ffffffffffffffffffffffffffffffffffffffff1673ffffffffffffffffffffffffffffffffffffffff1673ffffffffffffffffffffffffffffffffffffffff168152602001600582015481526020016006820160009054906101000a900460ff161515151581525050848681518110610e1557610e14611742565b5b60200260200101819052508480610e2b906116ca565b95505050505b8080610e3c906116ca565b915050610bfe565b508094505050505090565b60026000541415610e95576040517f08c379a0000000000000000000000000000000000000000000000000000000008152600401610e8c90611561565b60405180910390fd5b6002600081905550600060056000838152602001908152602001600020600501549050600060056000848152602001908152602001600020600201549050813414610f15576040517f08c379a0000000000000000000000000000000000000000000000000000000008152600401610f0c90611521565b60405180910390fd5b6005600084815260200190815260200160002060030160009054906101000a900473ffffffffffffffffffffffffffffffffffffffff1673ffffffffffffffffffffffffffffffffffffffff166108fc349081150290604051600060405180830381858888f19350505050158015610f91573d6000803e3d6000fd5b508373ffffffffffffffffffffffffffffffffffffffff166323b872dd3233846040518463ffffffff1660e01b8152600401610fcf93929190611463565b600060405180830381600087803b158015610fe957600080fd5b505af1158015610ffd573d6000803e3d6000fd5b50505050336005600085815260200190815260200160002060040160006101000a81548173ffffffffffffffffffffffffffffffffffffffff021916908373ffffffffffffffffffffffffffffffffffffffff16021790555060016005600085815260200190815260200160002060060160006101000a81548160ff02191690831515021790555061108f6002611116565b600360009054906101000a900473ffffffffffffffffffffffffffffffffffffffff1673ffffffffffffffffffffffffffffffffffffffff166108fc6004549081150290604051600060405180830381858888f193505050501580156110f9573d6000803e3d6000fd5b50505060016000819055505050565b600081600001549050919050565b6001816000016000828254019250508190555050565b6040518060e0016040528060008152602001600073ffffffffffffffffffffffffffffffffffffffff16815260200160008152602001600073ffffffffffffffffffffffffffffffffffffffff168152602001600073ffffffffffffffffffffffffffffffffffffffff168152602001600081526020016000151581525090565b6000813590506111bc8161186f565b92915050565b6000813590506111d181611886565b92915050565b600080604083850312156111ee576111ed6117a0565b5b60006111fc858286016111ad565b925050602061120d858286016111c2565b9150509250929050565b6000806000606084860312156112305761122f6117a0565b5b600061123e868287016111ad565b935050602061124f868287016111c2565b9250506040611260868287016111c2565b9150509250925092565b600061127683836113b7565b60e08301905092915050565b61128b81611682565b82525050565b61129a81611670565b82525050565b6112a981611670565b82525050565b60006112ba826115ac565b6112c481856115c4565b93506112cf8361159c565b8060005b838110156113005781516112e7888261126a565b97506112f2836115b7565b9250506001810190506112d3565b5085935050505092915050565b61131681611694565b82525050565b61132581611694565b82525050565b6000611338601e836115d5565b9150611343826117a5565b602082019050919050565b600061135b602c836115d5565b9150611366826117ce565b604082019050919050565b600061137e601e836115d5565b91506113898261181d565b602082019050919050565b60006113a1601f836115d5565b91506113ac82611846565b602082019050919050565b60e0820160008201516113cd6000850182611445565b5060208201516113e06020850182611291565b5060408201516113f36040850182611445565b5060608201516114066060850182611282565b5060808201516114196080850182611282565b5060a082015161142c60a0850182611445565b5060c082015161143f60c085018261130d565b50505050565b61144e816116c0565b82525050565b61145d816116c0565b82525050565b600060608201905061147860008301866112a0565b61148560208301856112a0565b6114926040830184611454565b949350505050565b60006080820190506114af60008301876112a0565b6114bc60208301866112a0565b6114c96040830185611454565b6114d6606083018461131c565b95945050505050565b600060208201905081810360008301526114f981846112af565b905092915050565b6000602082019050818103600083015261151a8161132b565b9050919050565b6000602082019050818103600083015261153a8161134e565b9050919050565b6000602082019050818103600083015261155a81611371565b9050919050565b6000602082019050818103600083015261157a81611394565b9050919050565b60006020820190506115966000830184611454565b92915050565b6000819050602082019050919050565b600081519050919050565b6000602082019050919050565b600082825260208201905092915050565b600082825260208201905092915050565b60006115f1826116c0565b91506115fc836116c0565b9250827fffffffffffffffffffffffffffffffffffffffffffffffffffffffffffffffff0382111561163157611630611713565b5b828201905092915050565b6000611647826116c0565b9150611652836116c0565b92508282101561166557611664611713565b5b828203905092915050565b600061167b826116a0565b9050919050565b600061168d826116a0565b9050919050565b60008115159050919050565b600073ffffffffffffffffffffffffffffffffffffffff82169050919050565b6000819050919050565b60006116d5826116c0565b91507fffffffffffffffffffffffffffffffffffffffffffffffffffffffffffffffff82141561170857611707611713565b5b600182019050919050565b7f4e487b7100000000000000000000000000000000000000000000000000000000600052601160045260246000fd5b7f4e487b7100000000000000000000000000000000000000000000000000000000600052603260045260246000fd5b7f4e487b7100000000000000000000000000000000000000000000000000000000600052604160045260246000fd5b600080fd5b7f5072696365206d75737420626520626967676572207468616e207a65726f0000600082015250565b7f506c656173652073656e6420746865207265717565737465642070726963652060008201527f666f7220746865206974656d0000000000000000000000000000000000000000602082015250565b7f4d7573742070617920746865206d61726b6574706c6163652773206475650000600082015250565b7f5265656e7472616e637947756172643a207265656e7472616e742063616c6c00600082015250565b61187881611670565b811461188357600080fd5b50565b61188f816116c0565b811461189a57600080fd5b5056fea2646970667358221220e15ba67f26f2483d67d674b0b92828f68d8a1378781ed87fe3b9afee7a595aa464736f6c63430008070033",
  "immutableReferences": {},
  "source": "pragma solidity ^0.8.2;\r\npragma experimental ABIEncoderV2;\r\n\r\nimport \"@openzeppelin/contracts/token/ERC721/ERC721.sol\";\r\nimport \"@openzeppelin/contracts/security/ReentrancyGuard.sol\";\r\nimport \"@openzeppelin/contracts/utils/Counters.sol\";\r\n\r\n\r\ncontract RugbyDAUMarket is ReentrancyGuard {\r\n    //Vars to keep track of the length of the arrays that need display in the shop\r\n    using Counters for Counters.Counter;\r\n    Counters.Counter private _itemIds;\r\n    Counters.Counter private _itemSold;\r\n\r\n    //who is the onwer of the contract (for comissions)\r\n    address payable owner;\r\n    uint listingPrice = 0.00001 ether; //== 0.03 at the moment of coding \r\n\r\n    constructor(){\r\n        owner = payable(msg.sender);\r\n    }   \r\n    //\"Object\" that helps mapping the variables involving the exchange of tokens between the stakeholders of the transaction ()\r\n    struct Merchandise {\r\n        uint itemId;                   // id of the item listed\r\n        address rugbydauTokenContract;  // minting contract's address\r\n        uint256 tokenId;                // id of the token \r\n        address payable seller;         // current owner of the token\r\n        address payable owner;          // original owner of the contract\r\n        uint256 price;                  // price of the token\r\n        bool isSold;                    // \r\n    }\r\n    //map an id to the items for sale\r\n    mapping(uint256 => Merchandise) private idToMerchandise;\r\n    //emit an event for the front end\r\n    event MerchandiseCreated(\r\n        uint indexed itemId,\r\n        address indexed rugbydauTokenContract,\r\n        uint256 indexed tokenId,\r\n        address seller,\r\n        address owner,\r\n        uint256 price,\r\n        bool isSold  \r\n    );\r\n    //Gets the listing pricing\r\n    function getListingPrice() public view returns (uint256){\r\n        return listingPrice;\r\n    }\r\n    //adds a new nft to the marketplace stock (list)\r\n    function createMerchandise(address rugbydauTokenContract, uint256 tokenId, uint256 price) public payable nonReentrant{\r\n        //check that the minter pays the market fees also that a price is set for the item\r\n        require(price>0, \"Price must be bigger than zero\");\r\n        require(msg.value == listingPrice, \"Must pay the marketplace's due\");\r\n        //use counter to determine the index in the merchandise mapping\r\n        _itemIds.increment();\r\n        uint256 itemId = _itemIds.current();\r\n        //create entry in the merchandise mapping\r\n        idToMerchandise[itemId] = Merchandise(\r\n            itemId,                 //id of the item in the market stock\r\n            rugbydauTokenContract,  //contract where the token was minted\r\n            tokenId,                //id of the token\r\n            payable(msg.sender),    //address that created the entry\r\n            payable(address(0)),    //token minter,it's 0 because seller==owner in merch creation\r\n            price,                  //price of item\r\n            false);                 //set to false because item is just being listed\r\n    \r\n        //the marketplace is taking ownership of the contract to be able to transfer\r\n        IERC721(rugbydauTokenContract).transferFrom(msg.sender, address(this), tokenId);\r\n        //emit event\r\n        emit MerchandiseCreated(itemId,rugbydauTokenContract,tokenId,msg.sender,address(0),price,false);\r\n    }\r\n    //processes the sale of a listed nft\r\n    function createSale(address rugbydauTokenContract, uint256 itemId) public payable nonReentrant{\r\n        //use the item Id to get the price and the token id\r\n        uint myPrice = idToMerchandise[itemId].price;\r\n        uint myTokenId = idToMerchandise[itemId].tokenId;\r\n        \r\n        //check that the buyer sends funds\r\n        require(msg.value == myPrice, \"Please send the requested price for the item\");\r\n        \r\n        //transfer the eth payed by customer from this contract's address to the seller's address\r\n        idToMerchandise[itemId].seller.transfer(msg.value);\r\n        \r\n        //transfer the ownership from this contract's address to the buyer's address\r\n        IERC721(rugbydauTokenContract).transferFrom(tx.origin, msg.sender, myTokenId);\r\n        \r\n        //update the Merchandise mapping wth the new owner and changing the isSold to true\r\n        idToMerchandise[itemId].owner= payable(msg.sender);\r\n        idToMerchandise[itemId].isSold = true;\r\n\r\n        //keep track of the number of items sold\r\n        _itemSold.increment();\r\n\r\n        //pay the owner of the marketplace the listing fee\r\n        payable(owner).transfer(listingPrice);\r\n    }\r\n    //Functions querying about NFTs \r\n    //Return the NFTs currently for sale\r\n    function showMarketStock() public view returns (Merchandise[] memory){\r\n        uint stockCount = _itemIds.current();\r\n        uint unsoldStockCount = _itemIds.current() - _itemSold.current();\r\n        uint currentIndex = 0;\r\n\r\n        Merchandise[] memory stock = new Merchandise[](unsoldStockCount);\r\n        for(uint i= 0; i < stockCount; i++){\r\n            //only items with no owner are listed in the marketplace(all others are sold already)\r\n            if(idToMerchandise[i+1].owner == address(0)){\r\n               uint currentId = idToMerchandise[i+1].itemId;\r\n               Merchandise storage currentItem = idToMerchandise[currentId];\r\n               stock[currentIndex] = currentItem;\r\n               currentIndex++;\r\n            }\r\n        }\r\n        //return the array\r\n        return stock;\r\n    }\r\n    //Fetch the msg.sender's own NFTs\r\n    function showMyRugbyDAUs() public view returns (Merchandise[] memory){\r\n        uint totalItemCount = _itemIds.current();\r\n        uint itemCount = 0;\r\n        uint currentIndex = 0;\r\n\r\n        for(uint i = 0; i < totalItemCount; i++){\r\n            if(idToMerchandise[i+1].owner == msg.sender){\r\n                itemCount++;\r\n            }\r\n        }\r\n\r\n        Merchandise[] memory myCollection = new Merchandise[](itemCount);\r\n        for(uint i= 0; i < totalItemCount; i++){\r\n            //only items with no owner are listed in the marketplace(all others are sold already)\r\n            if(idToMerchandise[i+1].owner == msg.sender){\r\n               uint currentId = idToMerchandise[i+1].itemId;\r\n               Merchandise storage currentItem = idToMerchandise[currentId];\r\n               myCollection[currentIndex] = currentItem;\r\n               currentIndex++;\r\n            }\r\n        }\r\n        //return the array\r\n        return myCollection;   \r\n    }\r\n    //Fetch all the merch for sale created by the msg.sender\r\n    function showMyMerchandise() public view returns (Merchandise[] memory){\r\n         uint totalItemCount = _itemIds.current();\r\n        uint itemCount = 0;\r\n        uint currentIndex = 0;\r\n\r\n        for(uint i = 0; i < totalItemCount; i++){\r\n            if(idToMerchandise[i+1].seller == msg.sender){\r\n                itemCount++;\r\n            }\r\n        }\r\n\r\n        Merchandise[] memory myMerchandise = new Merchandise[](itemCount);\r\n        for(uint i= 0; i < totalItemCount; i++){\r\n            //only items whose seller is the same as the msg.sender\r\n            if(idToMerchandise[i+1].seller == msg.sender){\r\n               uint currentId = idToMerchandise[i+1].itemId;\r\n               Merchandise storage currentItem = idToMerchandise[currentId];\r\n               myMerchandise[currentIndex] = currentItem;\r\n               currentIndex++;\r\n            }\r\n        }\r\n        return myMerchandise;\r\n    }\r\n}",
  "sourcePath": "C:/Users/x20170416/Documents/GitHub/block-app/rugbyDAUMarket/contracts/RugbyDAUMarket.sol",
  "compiler": {
    "name": "solc",
    "version": "0.8.7+commit.e28d00a7.Emscripten.clang"
  },
  "schemaVersion": "3.4.1",
  "updatedAt": "2021-09-12T19:43:16.469Z",
  "networkType": "ethereum",
  "devdoc": {
    "kind": "dev",
    "methods": {},
    "version": 1
  },
  "userdoc": {
    "kind": "user",
    "methods": {},
    "version": 1
  }
}