{
  "contractName": "RugbyDAUToken",
  "abi": [
    {
      "inputs": [
        {
          "internalType": "address",
          "name": "_marketAddress",
          "type": "address"
        }
      ],
      "stateMutability": "nonpayable",
      "type": "constructor"
    },
    {
      "anonymous": false,
      "inputs": [
        {
          "indexed": true,
          "internalType": "address",
          "name": "owner",
          "type": "address"
        },
        {
          "indexed": true,
          "internalType": "address",
          "name": "approved",
          "type": "address"
        },
        {
          "indexed": true,
          "internalType": "uint256",
          "name": "tokenId",
          "type": "uint256"
        }
      ],
      "name": "Approval",
      "type": "event"
    },
    {
      "anonymous": false,
      "inputs": [
        {
          "indexed": true,
          "internalType": "address",
          "name": "owner",
          "type": "address"
        },
        {
          "indexed": true,
          "internalType": "address",
          "name": "operator",
          "type": "address"
        },
        {
          "indexed": false,
          "internalType": "bool",
          "name": "approved",
          "type": "bool"
        }
      ],
      "name": "ApprovalForAll",
      "type": "event"
    },
    {
      "anonymous": false,
      "inputs": [
        {
          "indexed": true,
          "internalType": "address",
          "name": "from",
          "type": "address"
        },
        {
          "indexed": true,
          "internalType": "address",
          "name": "to",
          "type": "address"
        },
        {
          "indexed": true,
          "internalType": "uint256",
          "name": "tokenId",
          "type": "uint256"
        }
      ],
      "name": "Transfer",
      "type": "event"
    },
    {
      "inputs": [
        {
          "internalType": "address",
          "name": "to",
          "type": "address"
        },
        {
          "internalType": "uint256",
          "name": "tokenId",
          "type": "uint256"
        }
      ],
      "name": "approve",
      "outputs": [],
      "stateMutability": "nonpayable",
      "type": "function"
    },
    {
      "inputs": [
        {
          "internalType": "address",
          "name": "owner",
          "type": "address"
        }
      ],
      "name": "balanceOf",
      "outputs": [
        {
          "internalType": "uint256",
          "name": "",
          "type": "uint256"
        }
      ],
      "stateMutability": "view",
      "type": "function",
      "constant": true
    },
    {
      "inputs": [
        {
          "internalType": "uint256",
          "name": "tokenId",
          "type": "uint256"
        }
      ],
      "name": "getApproved",
      "outputs": [
        {
          "internalType": "address",
          "name": "",
          "type": "address"
        }
      ],
      "stateMutability": "view",
      "type": "function",
      "constant": true
    },
    {
      "inputs": [
        {
          "internalType": "address",
          "name": "owner",
          "type": "address"
        },
        {
          "internalType": "address",
          "name": "operator",
          "type": "address"
        }
      ],
      "name": "isApprovedForAll",
      "outputs": [
        {
          "internalType": "bool",
          "name": "",
          "type": "bool"
        }
      ],
      "stateMutability": "view",
      "type": "function",
      "constant": true
    },
    {
      "inputs": [],
      "name": "name",
      "outputs": [
        {
          "internalType": "string",
          "name": "",
          "type": "string"
        }
      ],
      "stateMutability": "view",
      "type": "function",
      "constant": true
    },
    {
      "inputs": [
        {
          "internalType": "uint256",
          "name": "tokenId",
          "type": "uint256"
        }
      ],
      "name": "ownerOf",
      "outputs": [
        {
          "internalType": "address",
          "name": "",
          "type": "address"
        }
      ],
      "stateMutability": "view",
      "type": "function",
      "constant": true
    },
    {
      "inputs": [
        {
          "internalType": "address",
          "name": "from",
          "type": "address"
        },
        {
          "internalType": "address",
          "name": "to",
          "type": "address"
        },
        {
          "internalType": "uint256",
          "name": "tokenId",
          "type": "uint256"
        }
      ],
      "name": "safeTransferFrom",
      "outputs": [],
      "stateMutability": "nonpayable",
      "type": "function"
    },
    {
      "inputs": [
        {
          "internalType": "address",
          "name": "from",
          "type": "address"
        },
        {
          "internalType": "address",
          "name": "to",
          "type": "address"
        },
        {
          "internalType": "uint256",
          "name": "tokenId",
          "type": "uint256"
        },
        {
          "internalType": "bytes",
          "name": "_data",
          "type": "bytes"
        }
      ],
      "name": "safeTransferFrom",
      "outputs": [],
      "stateMutability": "nonpayable",
      "type": "function"
    },
    {
      "inputs": [
        {
          "internalType": "address",
          "name": "operator",
          "type": "address"
        },
        {
          "internalType": "bool",
          "name": "approved",
          "type": "bool"
        }
      ],
      "name": "setApprovalForAll",
      "outputs": [],
      "stateMutability": "nonpayable",
      "type": "function"
    },
    {
      "inputs": [],
      "name": "symbol",
      "outputs": [
        {
          "internalType": "string",
          "name": "",
          "type": "string"
        }
      ],
      "stateMutability": "view",
      "type": "function",
      "constant": true
    },
    {
      "inputs": [
        {
          "internalType": "uint256",
          "name": "index",
          "type": "uint256"
        }
      ],
      "name": "tokenByIndex",
      "outputs": [
        {
          "internalType": "uint256",
          "name": "",
          "type": "uint256"
        }
      ],
      "stateMutability": "view",
      "type": "function",
      "constant": true
    },
    {
      "inputs": [
        {
          "internalType": "address",
          "name": "owner",
          "type": "address"
        },
        {
          "internalType": "uint256",
          "name": "index",
          "type": "uint256"
        }
      ],
      "name": "tokenOfOwnerByIndex",
      "outputs": [
        {
          "internalType": "uint256",
          "name": "",
          "type": "uint256"
        }
      ],
      "stateMutability": "view",
      "type": "function",
      "constant": true
    },
    {
      "inputs": [],
      "name": "totalSupply",
      "outputs": [
        {
          "internalType": "uint256",
          "name": "",
          "type": "uint256"
        }
      ],
      "stateMutability": "view",
      "type": "function",
      "constant": true
    },
    {
      "inputs": [
        {
          "internalType": "address",
          "name": "from",
          "type": "address"
        },
        {
          "internalType": "address",
          "name": "to",
          "type": "address"
        },
        {
          "internalType": "uint256",
          "name": "tokenId",
          "type": "uint256"
        }
      ],
      "name": "transferFrom",
      "outputs": [],
      "stateMutability": "nonpayable",
      "type": "function"
    },
    {
      "inputs": [
        {
          "internalType": "address",
          "name": "_creator",
          "type": "address"
        }
      ],
      "name": "setMinter",
      "outputs": [],
      "stateMutability": "nonpayable",
      "type": "function"
    },
    {
      "inputs": [
        {
          "internalType": "address",
          "name": "_creator",
          "type": "address"
        }
      ],
      "name": "revokeMinter",
      "outputs": [],
      "stateMutability": "nonpayable",
      "type": "function"
    },
    {
      "inputs": [
        {
          "internalType": "address",
          "name": "_creator",
          "type": "address"
        }
      ],
      "name": "isMinter",
      "outputs": [
        {
          "internalType": "bool",
          "name": "",
          "type": "bool"
        }
      ],
      "stateMutability": "view",
      "type": "function",
      "constant": true
    },
    {
      "inputs": [
        {
          "internalType": "string",
          "name": "tokenURI",
          "type": "string"
        }
      ],
      "name": "createToken",
      "outputs": [
        {
          "internalType": "uint256",
          "name": "",
          "type": "uint256"
        }
      ],
      "stateMutability": "nonpayable",
      "type": "function"
    },
    {
      "inputs": [
        {
          "internalType": "uint256",
          "name": "tokenId",
          "type": "uint256"
        }
      ],
      "name": "tokenURI",
      "outputs": [
        {
          "internalType": "string",
          "name": "",
          "type": "string"
        }
      ],
      "stateMutability": "view",
      "type": "function",
      "constant": true
    },
    {
      "inputs": [
        {
          "internalType": "bytes4",
          "name": "interfaceId",
          "type": "bytes4"
        }
      ],
      "name": "supportsInterface",
      "outputs": [
        {
          "internalType": "bool",
          "name": "",
          "type": "bool"
        }
      ],
      "stateMutability": "view",
      "type": "function",
      "constant": true
    }
  ],
  "bytecode": "0x60806040523480156200001157600080fd5b5060405162003ccb38038062003ccb833981810160405281019062000037919062000348565b6040518060400160405280600e81526020017f527567627944415520546f6b656e0000000000000000000000000000000000008152506040518060400160405280600481526020017f52474259000000000000000000000000000000000000000000000000000000008152508160009080519060200190620000bb92919062000281565b508060019080519060200190620000d492919062000281565b50505033600d60006101000a81548173ffffffffffffffffffffffffffffffffffffffff021916908373ffffffffffffffffffffffffffffffffffffffff1602179055506200014b600d60009054906101000a900473ffffffffffffffffffffffffffffffffffffffff166200019360201b60201c565b80600c60006101000a81548173ffffffffffffffffffffffffffffffffffffffff021916908373ffffffffffffffffffffffffffffffffffffffff16021790555050620004db565b600d60009054906101000a900473ffffffffffffffffffffffffffffffffffffffff1673ffffffffffffffffffffffffffffffffffffffff163273ffffffffffffffffffffffffffffffffffffffff161462000226576040517f08c379a00000000000000000000000000000000000000000000000000000000081526004016200021d90620003a1565b60405180910390fd5b6001600e60008373ffffffffffffffffffffffffffffffffffffffff1673ffffffffffffffffffffffffffffffffffffffff16815260200190815260200160002060006101000a81548160ff02191690831515021790555050565b8280546200028f9062000408565b90600052602060002090601f016020900481019282620002b35760008555620002ff565b82601f10620002ce57805160ff1916838001178555620002ff565b82800160010185558215620002ff579182015b82811115620002fe578251825591602001919060010190620002e1565b5b5090506200030e919062000312565b5090565b5b808211156200032d57600081600090555060010162000313565b5090565b6000815190506200034281620004c1565b92915050565b6000602082840312156200036157620003606200046d565b5b6000620003718482850162000331565b91505092915050565b600062000389602983620003c3565b9150620003968262000472565b604082019050919050565b60006020820190508181036000830152620003bc816200037a565b9050919050565b600082825260208201905092915050565b6000620003e182620003e8565b9050919050565b600073ffffffffffffffffffffffffffffffffffffffff82169050919050565b600060028204905060018216806200042157607f821691505b602082108114156200043857620004376200043e565b5b50919050565b7f4e487b7100000000000000000000000000000000000000000000000000000000600052602260045260246000fd5b600080fd5b7f4f6e6c7920746865206f776e6572206861732061636365737320746f2074686960008201527f7320666561747572650000000000000000000000000000000000000000000000602082015250565b620004cc81620003d4565b8114620004d857600080fd5b50565b6137e080620004eb6000396000f3fe608060405234801561001057600080fd5b506004361061012c5760003560e01c80636352211e116100ad578063b88d4fde11610071578063b88d4fde1461037b578063c87b56dd14610397578063cfbd4885146103c7578063e985e9c5146103e3578063fca3b5aa146104135761012c565b80636352211e146102b157806370a08231146102e157806395d89b4114610311578063a22cb4651461032f578063aa271e1a1461034b5761012c565b806323b872dd116100f457806323b872dd146101e95780632f745c591461020557806342842e0e1461023557806345576f94146102515780634f6ccce7146102815761012c565b806301ffc9a71461013157806306fdde0314610161578063081812fc1461017f578063095ea7b3146101af57806318160ddd146101cb575b600080fd5b61014b6004803603810190610146919061257e565b61042f565b6040516101589190612a65565b60405180910390f35b610169610441565b6040516101769190612a80565b60405180910390f35b61019960048036038101906101949190612621565b6104d3565b6040516101a691906129fe565b60405180910390f35b6101c960048036038101906101c4919061253e565b610558565b005b6101d3610670565b6040516101e09190612d22565b60405180910390f35b61020360048036038101906101fe9190612428565b61067d565b005b61021f600480360381019061021a919061253e565b6106dd565b60405161022c9190612d22565b60405180910390f35b61024f600480360381019061024a9190612428565b610782565b005b61026b600480360381019061026691906125d8565b6107a2565b6040516102789190612d22565b60405180910390f35b61029b60048036038101906102969190612621565b61084e565b6040516102a89190612d22565b60405180910390f35b6102cb60048036038101906102c69190612621565b6108bf565b6040516102d891906129fe565b60405180910390f35b6102fb60048036038101906102f691906123bb565b610971565b6040516103089190612d22565b60405180910390f35b610319610a29565b6040516103269190612a80565b60405180910390f35b610349600480360381019061034491906124fe565b610abb565b005b610365600480360381019061036091906123bb565b610c3c565b6040516103729190612a65565b60405180910390f35b6103956004803603810190610390919061247b565b610c92565b005b6103b160048036038101906103ac9190612621565b610cf4565b6040516103be9190612a80565b60405180910390f35b6103e160048036038101906103dc91906123bb565b610d06565b005b6103fd60048036038101906103f891906123e8565b610df1565b60405161040a9190612a65565b60405180910390f35b61042d600480360381019061042891906123bb565b610e85565b005b600061043a82610f70565b9050919050565b60606000805461045090612f78565b80601f016020809104026020016040519081016040528092919081815260200182805461047c90612f78565b80156104c95780601f1061049e576101008083540402835291602001916104c9565b820191906000526020600020905b8154815290600101906020018083116104ac57829003601f168201915b5050505050905090565b60006104de82610fea565b61051d576040517f08c379a000000000000000000000000000000000000000000000000000000000815260040161051490612c62565b60405180910390fd5b6004600083815260200190815260200160002060009054906101000a900473ffffffffffffffffffffffffffffffffffffffff169050919050565b6000610563826108bf565b90508073ffffffffffffffffffffffffffffffffffffffff168373ffffffffffffffffffffffffffffffffffffffff1614156105d4576040517f08c379a00000000000000000000000000000000000000000000000000000000081526004016105cb90612cc2565b60405180910390fd5b8073ffffffffffffffffffffffffffffffffffffffff166105f3611056565b73ffffffffffffffffffffffffffffffffffffffff16148061062257506106218161061c611056565b610df1565b5b610661576040517f08c379a000000000000000000000000000000000000000000000000000000000815260040161065890612ba2565b60405180910390fd5b61066b838361105e565b505050565b6000600880549050905090565b61068e610688611056565b82611117565b6106cd576040517f08c379a00000000000000000000000000000000000000000000000000000000081526004016106c490612ce2565b60405180910390fd5b6106d88383836111f5565b505050565b60006106e883610971565b8210610729576040517f08c379a000000000000000000000000000000000000000000000000000000000815260040161072090612ac2565b60405180910390fd5b600660008473ffffffffffffffffffffffffffffffffffffffff1673ffffffffffffffffffffffffffffffffffffffff168152602001908152602001600020600083815260200190815260200160002054905092915050565b61079d83838360405180602001604052806000815250610c92565b505050565b60006107ad32610c3c565b6107ec576040517f08c379a00000000000000000000000000000000000000000000000000000000081526004016107e390612aa2565b60405180910390fd5b6107f6600b611451565b6000610802600b611467565b905061080e3382611475565b6108188184611643565b610845600c60009054906101000a900473ffffffffffffffffffffffffffffffffffffffff166001610abb565b80915050919050565b6000610858610670565b8210610899576040517f08c379a000000000000000000000000000000000000000000000000000000000815260040161089090612d02565b60405180910390fd5b600882815481106108ad576108ac613111565b5b90600052602060002001549050919050565b6000806002600084815260200190815260200160002060009054906101000a900473ffffffffffffffffffffffffffffffffffffffff169050600073ffffffffffffffffffffffffffffffffffffffff168173ffffffffffffffffffffffffffffffffffffffff161415610968576040517f08c379a000000000000000000000000000000000000000000000000000000000815260040161095f90612be2565b60405180910390fd5b80915050919050565b60008073ffffffffffffffffffffffffffffffffffffffff168273ffffffffffffffffffffffffffffffffffffffff1614156109e2576040517f08c379a00000000000000000000000000000000000000000000000000000000081526004016109d990612bc2565b60405180910390fd5b600360008373ffffffffffffffffffffffffffffffffffffffff1673ffffffffffffffffffffffffffffffffffffffff168152602001908152602001600020549050919050565b606060018054610a3890612f78565b80601f0160208091040260200160405190810160405280929190818152602001828054610a6490612f78565b8015610ab15780601f10610a8657610100808354040283529160200191610ab1565b820191906000526020600020905b815481529060010190602001808311610a9457829003601f168201915b5050505050905090565b610ac3611056565b73ffffffffffffffffffffffffffffffffffffffff168273ffffffffffffffffffffffffffffffffffffffff161415610b31576040517f08c379a0000000000000000000000000000000000000000000000000000000008152600401610b2890612b42565b60405180910390fd5b8060056000610b3e611056565b73ffffffffffffffffffffffffffffffffffffffff1673ffffffffffffffffffffffffffffffffffffffff16815260200190815260200160002060008473ffffffffffffffffffffffffffffffffffffffff1673ffffffffffffffffffffffffffffffffffffffff16815260200190815260200160002060006101000a81548160ff0219169083151502179055508173ffffffffffffffffffffffffffffffffffffffff16610beb611056565b73ffffffffffffffffffffffffffffffffffffffff167f17307eab39ab6107e8899845ad3d59bd9653f200f220920489ca2b5937696c3183604051610c309190612a65565b60405180910390a35050565b6000600e60008373ffffffffffffffffffffffffffffffffffffffff1673ffffffffffffffffffffffffffffffffffffffff16815260200190815260200160002060009054906101000a900460ff169050919050565b610ca3610c9d611056565b83611117565b610ce2576040517f08c379a0000000000000000000000000000000000000000000000000000000008152600401610cd990612ce2565b60405180910390fd5b610cee848484846116b7565b50505050565b6060610cff82611713565b9050919050565b600d60009054906101000a900473ffffffffffffffffffffffffffffffffffffffff1673ffffffffffffffffffffffffffffffffffffffff163273ffffffffffffffffffffffffffffffffffffffff1614610d96576040517f08c379a0000000000000000000000000000000000000000000000000000000008152600401610d8d90612b62565b60405180910390fd5b6000600e60008373ffffffffffffffffffffffffffffffffffffffff1673ffffffffffffffffffffffffffffffffffffffff16815260200190815260200160002060006101000a81548160ff02191690831515021790555050565b6000600560008473ffffffffffffffffffffffffffffffffffffffff1673ffffffffffffffffffffffffffffffffffffffff16815260200190815260200160002060008373ffffffffffffffffffffffffffffffffffffffff1673ffffffffffffffffffffffffffffffffffffffff16815260200190815260200160002060009054906101000a900460ff16905092915050565b600d60009054906101000a900473ffffffffffffffffffffffffffffffffffffffff1673ffffffffffffffffffffffffffffffffffffffff163273ffffffffffffffffffffffffffffffffffffffff1614610f15576040517f08c379a0000000000000000000000000000000000000000000000000000000008152600401610f0c90612b62565b60405180910390fd5b6001600e60008373ffffffffffffffffffffffffffffffffffffffff1673ffffffffffffffffffffffffffffffffffffffff16815260200190815260200160002060006101000a81548160ff02191690831515021790555050565b60007f780e9d63000000000000000000000000000000000000000000000000000000007bffffffffffffffffffffffffffffffffffffffffffffffffffffffff1916827bffffffffffffffffffffffffffffffffffffffffffffffffffffffff19161480610fe35750610fe282611865565b5b9050919050565b60008073ffffffffffffffffffffffffffffffffffffffff166002600084815260200190815260200160002060009054906101000a900473ffffffffffffffffffffffffffffffffffffffff1673ffffffffffffffffffffffffffffffffffffffff1614159050919050565b600033905090565b816004600083815260200190815260200160002060006101000a81548173ffffffffffffffffffffffffffffffffffffffff021916908373ffffffffffffffffffffffffffffffffffffffff160217905550808273ffffffffffffffffffffffffffffffffffffffff166110d1836108bf565b73ffffffffffffffffffffffffffffffffffffffff167f8c5be1e5ebec7d5bd14f71427d1e84f3dd0314c0f7b2291e5b200ac8c7c3b92560405160405180910390a45050565b600061112282610fea565b611161576040517f08c379a000000000000000000000000000000000000000000000000000000000815260040161115890612b82565b60405180910390fd5b600061116c836108bf565b90508073ffffffffffffffffffffffffffffffffffffffff168473ffffffffffffffffffffffffffffffffffffffff1614806111db57508373ffffffffffffffffffffffffffffffffffffffff166111c3846104d3565b73ffffffffffffffffffffffffffffffffffffffff16145b806111ec57506111eb8185610df1565b5b91505092915050565b8273ffffffffffffffffffffffffffffffffffffffff16611215826108bf565b73ffffffffffffffffffffffffffffffffffffffff161461126b576040517f08c379a000000000000000000000000000000000000000000000000000000000815260040161126290612c82565b60405180910390fd5b600073ffffffffffffffffffffffffffffffffffffffff168273ffffffffffffffffffffffffffffffffffffffff1614156112db576040517f08c379a00000000000000000000000000000000000000000000000000000000081526004016112d290612b22565b60405180910390fd5b6112e6838383611947565b6112f160008261105e565b6001600360008573ffffffffffffffffffffffffffffffffffffffff1673ffffffffffffffffffffffffffffffffffffffff16815260200190815260200160002060008282546113419190612e8e565b925050819055506001600360008473ffffffffffffffffffffffffffffffffffffffff1673ffffffffffffffffffffffffffffffffffffffff16815260200190815260200160002060008282546113989190612e07565b92505081905550816002600083815260200190815260200160002060006101000a81548173ffffffffffffffffffffffffffffffffffffffff021916908373ffffffffffffffffffffffffffffffffffffffff160217905550808273ffffffffffffffffffffffffffffffffffffffff168473ffffffffffffffffffffffffffffffffffffffff167fddf252ad1be2c89b69c2b068fc378daa952ba7f163c4a11628f55a4df523b3ef60405160405180910390a4505050565b6001816000016000828254019250508190555050565b600081600001549050919050565b600073ffffffffffffffffffffffffffffffffffffffff168273ffffffffffffffffffffffffffffffffffffffff1614156114e5576040517f08c379a00000000000000000000000000000000000000000000000000000000081526004016114dc90612c22565b60405180910390fd5b6114ee81610fea565b1561152e576040517f08c379a000000000000000000000000000000000000000000000000000000000815260040161152590612b02565b60405180910390fd5b61153a60008383611947565b6001600360008473ffffffffffffffffffffffffffffffffffffffff1673ffffffffffffffffffffffffffffffffffffffff168152602001908152602001600020600082825461158a9190612e07565b92505081905550816002600083815260200190815260200160002060006101000a81548173ffffffffffffffffffffffffffffffffffffffff021916908373ffffffffffffffffffffffffffffffffffffffff160217905550808273ffffffffffffffffffffffffffffffffffffffff16600073ffffffffffffffffffffffffffffffffffffffff167fddf252ad1be2c89b69c2b068fc378daa952ba7f163c4a11628f55a4df523b3ef60405160405180910390a45050565b61164c82610fea565b61168b576040517f08c379a000000000000000000000000000000000000000000000000000000000815260040161168290612c02565b60405180910390fd5b80600a600084815260200190815260200160002090805190602001906116b29291906121cf565b505050565b6116c28484846111f5565b6116ce84848484611957565b61170d576040517f08c379a000000000000000000000000000000000000000000000000000000000815260040161170490612ae2565b60405180910390fd5b50505050565b606061171e82610fea565b61175d576040517f08c379a000000000000000000000000000000000000000000000000000000000815260040161175490612c42565b60405180910390fd5b6000600a6000848152602001908152602001600020805461177d90612f78565b80601f01602080910402602001604051908101604052809291908181526020018280546117a990612f78565b80156117f65780601f106117cb576101008083540402835291602001916117f6565b820191906000526020600020905b8154815290600101906020018083116117d957829003601f168201915b505050505090506000611807611aee565b905060008151141561181d578192505050611860565b60008251111561185257808260405160200161183a9291906129da565b60405160208183030381529060405292505050611860565b61185b84611b2b565b925050505b919050565b60007f80ac58cd000000000000000000000000000000000000000000000000000000007bffffffffffffffffffffffffffffffffffffffffffffffffffffffff1916827bffffffffffffffffffffffffffffffffffffffffffffffffffffffff1916148061193057507f5b5e139f000000000000000000000000000000000000000000000000000000007bffffffffffffffffffffffffffffffffffffffffffffffffffffffff1916827bffffffffffffffffffffffffffffffffffffffffffffffffffffffff1916145b80611940575061193f82611bd2565b5b9050919050565b611952838383611c3c565b505050565b60006119788473ffffffffffffffffffffffffffffffffffffffff16611d50565b15611ae1578373ffffffffffffffffffffffffffffffffffffffff1663150b7a026119a1611056565b8786866040518563ffffffff1660e01b81526004016119c39493929190612a19565b602060405180830381600087803b1580156119dd57600080fd5b505af1925050508015611a0e57506040513d601f19601f82011682018060405250810190611a0b91906125ab565b60015b611a91573d8060008114611a3e576040519150601f19603f3d011682016040523d82523d6000602084013e611a43565b606091505b50600081511415611a89576040517f08c379a0000000000000000000000000000000000000000000000000000000008152600401611a8090612ae2565b60405180910390fd5b805181602001fd5b63150b7a0260e01b7bffffffffffffffffffffffffffffffffffffffffffffffffffffffff1916817bffffffffffffffffffffffffffffffffffffffffffffffffffffffff191614915050611ae6565b600190505b949350505050565b60606040518060400160405280601581526020017f68747470733a2f2f697066732e696f2f697066732f0000000000000000000000815250905090565b6060611b3682610fea565b611b75576040517f08c379a0000000000000000000000000000000000000000000000000000000008152600401611b6c90612ca2565b60405180910390fd5b6000611b7f611aee565b90506000815111611b9f5760405180602001604052806000815250611bca565b80611ba984611d63565b604051602001611bba9291906129da565b6040516020818303038152906040525b915050919050565b60007f01ffc9a7000000000000000000000000000000000000000000000000000000007bffffffffffffffffffffffffffffffffffffffffffffffffffffffff1916827bffffffffffffffffffffffffffffffffffffffffffffffffffffffff1916149050919050565b611c47838383611ec4565b600073ffffffffffffffffffffffffffffffffffffffff168373ffffffffffffffffffffffffffffffffffffffff161415611c8a57611c8581611ec9565b611cc9565b8173ffffffffffffffffffffffffffffffffffffffff168373ffffffffffffffffffffffffffffffffffffffff1614611cc857611cc78382611f12565b5b5b600073ffffffffffffffffffffffffffffffffffffffff168273ffffffffffffffffffffffffffffffffffffffff161415611d0c57611d078161207f565b611d4b565b8273ffffffffffffffffffffffffffffffffffffffff168273ffffffffffffffffffffffffffffffffffffffff1614611d4a57611d498282612150565b5b5b505050565b600080823b905060008111915050919050565b60606000821415611dab576040518060400160405280600181526020017f30000000000000000000000000000000000000000000000000000000000000008152509050611ebf565b600082905060005b60008214611ddd578080611dc690612fdb565b915050600a82611dd69190612e5d565b9150611db3565b60008167ffffffffffffffff811115611df957611df8613140565b5b6040519080825280601f01601f191660200182016040528015611e2b5781602001600182028036833780820191505090505b5090505b60008514611eb857600182611e449190612e8e565b9150600a85611e539190613024565b6030611e5f9190612e07565b60f81b818381518110611e7557611e74613111565b5b60200101907effffffffffffffffffffffffffffffffffffffffffffffffffffffffffffff1916908160001a905350600a85611eb19190612e5d565b9450611e2f565b8093505050505b919050565b505050565b6008805490506009600083815260200190815260200160002081905550600881908060018154018082558091505060019003906000526020600020016000909190919091505550565b60006001611f1f84610971565b611f299190612e8e565b905060006007600084815260200190815260200160002054905081811461200e576000600660008673ffffffffffffffffffffffffffffffffffffffff1673ffffffffffffffffffffffffffffffffffffffff168152602001908152602001600020600084815260200190815260200160002054905080600660008773ffffffffffffffffffffffffffffffffffffffff1673ffffffffffffffffffffffffffffffffffffffff168152602001908152602001600020600084815260200190815260200160002081905550816007600083815260200190815260200160002081905550505b6007600084815260200190815260200160002060009055600660008573ffffffffffffffffffffffffffffffffffffffff1673ffffffffffffffffffffffffffffffffffffffff16815260200190815260200160002060008381526020019081526020016000206000905550505050565b600060016008805490506120939190612e8e565b90506000600960008481526020019081526020016000205490506000600883815481106120c3576120c2613111565b5b9060005260206000200154905080600883815481106120e5576120e4613111565b5b906000526020600020018190555081600960008381526020019081526020016000208190555060096000858152602001908152602001600020600090556008805480612134576121336130e2565b5b6001900381819060005260206000200160009055905550505050565b600061215b83610971565b905081600660008573ffffffffffffffffffffffffffffffffffffffff1673ffffffffffffffffffffffffffffffffffffffff168152602001908152602001600020600083815260200190815260200160002081905550806007600084815260200190815260200160002081905550505050565b8280546121db90612f78565b90600052602060002090601f0160209004810192826121fd5760008555612244565b82601f1061221657805160ff1916838001178555612244565b82800160010185558215612244579182015b82811115612243578251825591602001919060010190612228565b5b5090506122519190612255565b5090565b5b8082111561226e576000816000905550600101612256565b5090565b600061228561228084612d62565b612d3d565b9050828152602081018484840111156122a1576122a0613174565b5b6122ac848285612f36565b509392505050565b60006122c76122c284612d93565b612d3d565b9050828152602081018484840111156122e3576122e2613174565b5b6122ee848285612f36565b509392505050565b6000813590506123058161374e565b92915050565b60008135905061231a81613765565b92915050565b60008135905061232f8161377c565b92915050565b6000815190506123448161377c565b92915050565b600082601f83011261235f5761235e61316f565b5b813561236f848260208601612272565b91505092915050565b600082601f83011261238d5761238c61316f565b5b813561239d8482602086016122b4565b91505092915050565b6000813590506123b581613793565b92915050565b6000602082840312156123d1576123d061317e565b5b60006123df848285016122f6565b91505092915050565b600080604083850312156123ff576123fe61317e565b5b600061240d858286016122f6565b925050602061241e858286016122f6565b9150509250929050565b6000806000606084860312156124415761244061317e565b5b600061244f868287016122f6565b9350506020612460868287016122f6565b9250506040612471868287016123a6565b9150509250925092565b600080600080608085870312156124955761249461317e565b5b60006124a3878288016122f6565b94505060206124b4878288016122f6565b93505060406124c5878288016123a6565b925050606085013567ffffffffffffffff8111156124e6576124e5613179565b5b6124f28782880161234a565b91505092959194509250565b600080604083850312156125155761251461317e565b5b6000612523858286016122f6565b92505060206125348582860161230b565b9150509250929050565b600080604083850312156125555761255461317e565b5b6000612563858286016122f6565b9250506020612574858286016123a6565b9150509250929050565b6000602082840312156125945761259361317e565b5b60006125a284828501612320565b91505092915050565b6000602082840312156125c1576125c061317e565b5b60006125cf84828501612335565b91505092915050565b6000602082840312156125ee576125ed61317e565b5b600082013567ffffffffffffffff81111561260c5761260b613179565b5b61261884828501612378565b91505092915050565b6000602082840312156126375761263661317e565b5b6000612645848285016123a6565b91505092915050565b61265781612ec2565b82525050565b61266681612ed4565b82525050565b600061267782612dc4565b6126818185612dda565b9350612691818560208601612f45565b61269a81613183565b840191505092915050565b60006126b082612dcf565b6126ba8185612deb565b93506126ca818560208601612f45565b6126d381613183565b840191505092915050565b60006126e982612dcf565b6126f38185612dfc565b9350612703818560208601612f45565b80840191505092915050565b600061271c602183612deb565b915061272782613194565b604082019050919050565b600061273f602b83612deb565b915061274a826131e3565b604082019050919050565b6000612762603283612deb565b915061276d82613232565b604082019050919050565b6000612785601c83612deb565b915061279082613281565b602082019050919050565b60006127a8602483612deb565b91506127b3826132aa565b604082019050919050565b60006127cb601983612deb565b91506127d6826132f9565b602082019050919050565b60006127ee602983612deb565b91506127f982613322565b604082019050919050565b6000612811602c83612deb565b915061281c82613371565b604082019050919050565b6000612834603883612deb565b915061283f826133c0565b604082019050919050565b6000612857602a83612deb565b91506128628261340f565b604082019050919050565b600061287a602983612deb565b91506128858261345e565b604082019050919050565b600061289d602e83612deb565b91506128a8826134ad565b604082019050919050565b60006128c0602083612deb565b91506128cb826134fc565b602082019050919050565b60006128e3603183612deb565b91506128ee82613525565b604082019050919050565b6000612906602c83612deb565b915061291182613574565b604082019050919050565b6000612929602983612deb565b9150612934826135c3565b604082019050919050565b600061294c602f83612deb565b915061295782613612565b604082019050919050565b600061296f602183612deb565b915061297a82613661565b604082019050919050565b6000612992603183612deb565b915061299d826136b0565b604082019050919050565b60006129b5602c83612deb565b91506129c0826136ff565b604082019050919050565b6129d481612f2c565b82525050565b60006129e682856126de565b91506129f282846126de565b91508190509392505050565b6000602082019050612a13600083018461264e565b92915050565b6000608082019050612a2e600083018761264e565b612a3b602083018661264e565b612a4860408301856129cb565b8181036060830152612a5a818461266c565b905095945050505050565b6000602082019050612a7a600083018461265d565b92915050565b60006020820190508181036000830152612a9a81846126a5565b905092915050565b60006020820190508181036000830152612abb8161270f565b9050919050565b60006020820190508181036000830152612adb81612732565b9050919050565b60006020820190508181036000830152612afb81612755565b9050919050565b60006020820190508181036000830152612b1b81612778565b9050919050565b60006020820190508181036000830152612b3b8161279b565b9050919050565b60006020820190508181036000830152612b5b816127be565b9050919050565b60006020820190508181036000830152612b7b816127e1565b9050919050565b60006020820190508181036000830152612b9b81612804565b9050919050565b60006020820190508181036000830152612bbb81612827565b9050919050565b60006020820190508181036000830152612bdb8161284a565b9050919050565b60006020820190508181036000830152612bfb8161286d565b9050919050565b60006020820190508181036000830152612c1b81612890565b9050919050565b60006020820190508181036000830152612c3b816128b3565b9050919050565b60006020820190508181036000830152612c5b816128d6565b9050919050565b60006020820190508181036000830152612c7b816128f9565b9050919050565b60006020820190508181036000830152612c9b8161291c565b9050919050565b60006020820190508181036000830152612cbb8161293f565b9050919050565b60006020820190508181036000830152612cdb81612962565b9050919050565b60006020820190508181036000830152612cfb81612985565b9050919050565b60006020820190508181036000830152612d1b816129a8565b9050919050565b6000602082019050612d3760008301846129cb565b92915050565b6000612d47612d58565b9050612d538282612faa565b919050565b6000604051905090565b600067ffffffffffffffff821115612d7d57612d7c613140565b5b612d8682613183565b9050602081019050919050565b600067ffffffffffffffff821115612dae57612dad613140565b5b612db782613183565b9050602081019050919050565b600081519050919050565b600081519050919050565b600082825260208201905092915050565b600082825260208201905092915050565b600081905092915050565b6000612e1282612f2c565b9150612e1d83612f2c565b9250827fffffffffffffffffffffffffffffffffffffffffffffffffffffffffffffffff03821115612e5257612e51613055565b5b828201905092915050565b6000612e6882612f2c565b9150612e7383612f2c565b925082612e8357612e82613084565b5b828204905092915050565b6000612e9982612f2c565b9150612ea483612f2c565b925082821015612eb757612eb6613055565b5b828203905092915050565b6000612ecd82612f0c565b9050919050565b60008115159050919050565b60007fffffffff0000000000000000000000000000000000000000000000000000000082169050919050565b600073ffffffffffffffffffffffffffffffffffffffff82169050919050565b6000819050919050565b82818337600083830152505050565b60005b83811015612f63578082015181840152602081019050612f48565b83811115612f72576000848401525b50505050565b60006002820490506001821680612f9057607f821691505b60208210811415612fa457612fa36130b3565b5b50919050565b612fb382613183565b810181811067ffffffffffffffff82111715612fd257612fd1613140565b5b80604052505050565b6000612fe682612f2c565b91507fffffffffffffffffffffffffffffffffffffffffffffffffffffffffffffffff82141561301957613018613055565b5b600182019050919050565b600061302f82612f2c565b915061303a83612f2c565b92508261304a57613049613084565b5b828206905092915050565b7f4e487b7100000000000000000000000000000000000000000000000000000000600052601160045260246000fd5b7f4e487b7100000000000000000000000000000000000000000000000000000000600052601260045260246000fd5b7f4e487b7100000000000000000000000000000000000000000000000000000000600052602260045260246000fd5b7f4e487b7100000000000000000000000000000000000000000000000000000000600052603160045260246000fd5b7f4e487b7100000000000000000000000000000000000000000000000000000000600052603260045260246000fd5b7f4e487b7100000000000000000000000000000000000000000000000000000000600052604160045260246000fd5b600080fd5b600080fd5b600080fd5b600080fd5b6000601f19601f8301169050919050565b7f4f6e6c7920617574686f72697365642063726561746f72732063616e206d696e60008201527f7400000000000000000000000000000000000000000000000000000000000000602082015250565b7f455243373231456e756d657261626c653a206f776e657220696e646578206f7560008201527f74206f6620626f756e6473000000000000000000000000000000000000000000602082015250565b7f4552433732313a207472616e7366657220746f206e6f6e20455243373231526560008201527f63656976657220696d706c656d656e7465720000000000000000000000000000602082015250565b7f4552433732313a20746f6b656e20616c7265616479206d696e74656400000000600082015250565b7f4552433732313a207472616e7366657220746f20746865207a65726f2061646460008201527f7265737300000000000000000000000000000000000000000000000000000000602082015250565b7f4552433732313a20617070726f766520746f2063616c6c657200000000000000600082015250565b7f4f6e6c7920746865206f776e6572206861732061636365737320746f2074686960008201527f7320666561747572650000000000000000000000000000000000000000000000602082015250565b7f4552433732313a206f70657261746f7220717565727920666f72206e6f6e657860008201527f697374656e7420746f6b656e0000000000000000000000000000000000000000602082015250565b7f4552433732313a20617070726f76652063616c6c6572206973206e6f74206f7760008201527f6e6572206e6f7220617070726f76656420666f7220616c6c0000000000000000602082015250565b7f4552433732313a2062616c616e636520717565727920666f7220746865207a6560008201527f726f206164647265737300000000000000000000000000000000000000000000602082015250565b7f4552433732313a206f776e657220717565727920666f72206e6f6e657869737460008201527f656e7420746f6b656e0000000000000000000000000000000000000000000000602082015250565b7f45524337323155524953746f726167653a2055524920736574206f66206e6f6e60008201527f6578697374656e7420746f6b656e000000000000000000000000000000000000602082015250565b7f4552433732313a206d696e7420746f20746865207a65726f2061646472657373600082015250565b7f45524337323155524953746f726167653a2055524920717565727920666f722060008201527f6e6f6e6578697374656e7420746f6b656e000000000000000000000000000000602082015250565b7f4552433732313a20617070726f76656420717565727920666f72206e6f6e657860008201527f697374656e7420746f6b656e0000000000000000000000000000000000000000602082015250565b7f4552433732313a207472616e73666572206f6620746f6b656e2074686174206960008201527f73206e6f74206f776e0000000000000000000000000000000000000000000000602082015250565b7f4552433732314d657461646174613a2055524920717565727920666f72206e6f60008201527f6e6578697374656e7420746f6b656e0000000000000000000000000000000000602082015250565b7f4552433732313a20617070726f76616c20746f2063757272656e74206f776e6560008201527f7200000000000000000000000000000000000000000000000000000000000000602082015250565b7f4552433732313a207472616e736665722063616c6c6572206973206e6f74206f60008201527f776e6572206e6f7220617070726f766564000000000000000000000000000000602082015250565b7f455243373231456e756d657261626c653a20676c6f62616c20696e646578206f60008201527f7574206f6620626f756e64730000000000000000000000000000000000000000602082015250565b61375781612ec2565b811461376257600080fd5b50565b61376e81612ed4565b811461377957600080fd5b50565b61378581612ee0565b811461379057600080fd5b50565b61379c81612f2c565b81146137a757600080fd5b5056fea264697066735822122085ce738af2e8b258f2d9fb0df26418bb14a9baa895676e939f40319a5ad393f664736f6c63430008070033",
  "immutableReferences": {},
  "source": "// SPDX-License-Identifier: MIT\npragma solidity ^0.8.2;\n\nimport \"@openzeppelin/contracts/token/ERC721/ERC721.sol\";\nimport \"@openzeppelin/contracts/token/ERC721/extensions/ERC721Enumerable.sol\";\nimport \"@openzeppelin/contracts/token/ERC721/extensions/ERC721URIStorage.sol\";\nimport \"@openzeppelin/contracts/utils/Counters.sol\";\n\ncontract RugbyDAUToken is ERC721, ERC721Enumerable, ERC721URIStorage {\n    using Counters for Counters.Counter;\n\n    Counters.Counter private _tokenIdCounter;\n\n    //The contract address of the exchange,it requires operator permission to transfer tokens between owner and buyer. The address will be set up in the contract's constructor along with the name and symboi of the token.\n    address contractMarketAddress;\n    address owner;\n    mapping (address => bool) private minters;\n\n    constructor(address _marketAddress) ERC721(\"RugbyDAU Token\", \"RGBY\") {\n        owner = msg.sender;\n        setMinter(owner);\n        contractMarketAddress = _marketAddress;\n    }\n  modifier onlyOwner {\n       require(tx.origin == owner, \"Only the owner has access to this feature\");\n       _;\n    }\n  //internal function to concatenate the base URI to the CID from IPFS\n  function _baseURI() internal pure override returns (string memory) {\n        return \"https://ipfs.io/ipfs/\";\n    }\n  //set and revoke permission to creators to mint\n  function setMinter(address _creator) public onlyOwner{\n      minters[_creator]= true;\n    }\n  function revokeMinter(address _creator) public onlyOwner{\n      minters[_creator]=false;\n    }\n  function isMinter(address _creator) public view returns (bool){\n      return minters[_creator];\n    }\n  \n  //mints a Non-Fungible Token\n  function createToken(string memory tokenURI) public returns (uint) {\n    require(isMinter(tx.origin), \"Only authorised creators can mint\");\n    //add 1 to the array index\n    _tokenIdCounter.increment();\n    uint256 newTokenId = _tokenIdCounter.current();\n\n    //internal functions from ERC721, mint new token and set the URI of the underlying digital asset\n    _mint(msg.sender, newTokenId);\n    _setTokenURI(newTokenId, tokenURI);\n    //required operator approval for the RugbyDAU exchange\n    setApprovalForAll(contractMarketAddress, true);\n    //return id of the token for the react application\n    return newTokenId;\n  }\n \n    \n    // The following functions are overrides required by Solidity.\n     function _beforeTokenTransfer(address from, address to, uint256 tokenId)\n        internal\n        override(ERC721, ERC721Enumerable)\n    {\n        super._beforeTokenTransfer(from, to, tokenId);\n    }\n\n    function _burn(uint256 tokenId) internal override(ERC721, ERC721URIStorage) {\n        super._burn(tokenId);\n    }\n\n    function tokenURI(uint256 tokenId)\n        public\n        view\n        override(ERC721, ERC721URIStorage)\n        returns (string memory)\n    {\n        return super.tokenURI(tokenId);\n    }\n\n    function supportsInterface(bytes4 interfaceId)\n        public\n        view\n        override(ERC721, ERC721Enumerable)\n        returns (bool)\n    {\n        return super.supportsInterface(interfaceId);\n    }\n}\n\n\n  \n\n\n\n",
  "sourcePath": "C:/Users/x20170416/Documents/GitHub/block-app/rugbyDAUMarket/contracts/RugbyDAUToken.sol",
  "compiler": {
    "name": "solc",
    "version": "0.8.7+commit.e28d00a7.Emscripten.clang"
  },
  "schemaVersion": "3.4.1",
  "updatedAt": "2021-09-12T19:43:16.493Z",
  "networkType": "ethereum",
  "devdoc": {
    "kind": "dev",
    "methods": {
      "approve(address,uint256)": {
        "details": "See {IERC721-approve}."
      },
      "balanceOf(address)": {
        "details": "See {IERC721-balanceOf}."
      },
      "getApproved(uint256)": {
        "details": "See {IERC721-getApproved}."
      },
      "isApprovedForAll(address,address)": {
        "details": "See {IERC721-isApprovedForAll}."
      },
      "name()": {
        "details": "See {IERC721Metadata-name}."
      },
      "ownerOf(uint256)": {
        "details": "See {IERC721-ownerOf}."
      },
      "safeTransferFrom(address,address,uint256)": {
        "details": "See {IERC721-safeTransferFrom}."
      },
      "safeTransferFrom(address,address,uint256,bytes)": {
        "details": "See {IERC721-safeTransferFrom}."
      },
      "setApprovalForAll(address,bool)": {
        "details": "See {IERC721-setApprovalForAll}."
      },
      "symbol()": {
        "details": "See {IERC721Metadata-symbol}."
      },
      "tokenByIndex(uint256)": {
        "details": "See {IERC721Enumerable-tokenByIndex}."
      },
      "tokenOfOwnerByIndex(address,uint256)": {
        "details": "See {IERC721Enumerable-tokenOfOwnerByIndex}."
      },
      "totalSupply()": {
        "details": "See {IERC721Enumerable-totalSupply}."
      },
      "transferFrom(address,address,uint256)": {
        "details": "See {IERC721-transferFrom}."
      }
    },
    "version": 1
  },
  "userdoc": {
    "kind": "user",
    "methods": {},
    "version": 1
  }
}