{
  "contractName": "RugbyDAUToken",
  "abi": [
    {
      "inputs": [],
      "stateMutability": "nonpayable",
      "type": "constructor"
    },
    {
      "anonymous": false,
      "inputs": [
        {
          "indexed": true,
          "internalType": "address",
          "name": "owner",
          "type": "address"
        },
        {
          "indexed": true,
          "internalType": "address",
          "name": "approved",
          "type": "address"
        },
        {
          "indexed": true,
          "internalType": "uint256",
          "name": "tokenId",
          "type": "uint256"
        }
      ],
      "name": "Approval",
      "type": "event"
    },
    {
      "anonymous": false,
      "inputs": [
        {
          "indexed": true,
          "internalType": "address",
          "name": "owner",
          "type": "address"
        },
        {
          "indexed": true,
          "internalType": "address",
          "name": "operator",
          "type": "address"
        },
        {
          "indexed": false,
          "internalType": "bool",
          "name": "approved",
          "type": "bool"
        }
      ],
      "name": "ApprovalForAll",
      "type": "event"
    },
    {
      "anonymous": false,
      "inputs": [
        {
          "indexed": true,
          "internalType": "address",
          "name": "from",
          "type": "address"
        },
        {
          "indexed": true,
          "internalType": "address",
          "name": "to",
          "type": "address"
        },
        {
          "indexed": true,
          "internalType": "uint256",
          "name": "tokenId",
          "type": "uint256"
        }
      ],
      "name": "Transfer",
      "type": "event"
    },
    {
      "inputs": [
        {
          "internalType": "address",
          "name": "to",
          "type": "address"
        },
        {
          "internalType": "uint256",
          "name": "tokenId",
          "type": "uint256"
        }
      ],
      "name": "approve",
      "outputs": [],
      "stateMutability": "nonpayable",
      "type": "function"
    },
    {
      "inputs": [
        {
          "internalType": "address",
          "name": "owner",
          "type": "address"
        }
      ],
      "name": "balanceOf",
      "outputs": [
        {
          "internalType": "uint256",
          "name": "",
          "type": "uint256"
        }
      ],
      "stateMutability": "view",
      "type": "function",
      "constant": true
    },
    {
      "inputs": [
        {
          "internalType": "uint256",
          "name": "tokenId",
          "type": "uint256"
        }
      ],
      "name": "getApproved",
      "outputs": [
        {
          "internalType": "address",
          "name": "",
          "type": "address"
        }
      ],
      "stateMutability": "view",
      "type": "function",
      "constant": true
    },
    {
      "inputs": [
        {
          "internalType": "address",
          "name": "owner",
          "type": "address"
        },
        {
          "internalType": "address",
          "name": "operator",
          "type": "address"
        }
      ],
      "name": "isApprovedForAll",
      "outputs": [
        {
          "internalType": "bool",
          "name": "",
          "type": "bool"
        }
      ],
      "stateMutability": "view",
      "type": "function",
      "constant": true
    },
    {
      "inputs": [],
      "name": "name",
      "outputs": [
        {
          "internalType": "string",
          "name": "",
          "type": "string"
        }
      ],
      "stateMutability": "view",
      "type": "function",
      "constant": true
    },
    {
      "inputs": [
        {
          "internalType": "uint256",
          "name": "tokenId",
          "type": "uint256"
        }
      ],
      "name": "ownerOf",
      "outputs": [
        {
          "internalType": "address",
          "name": "",
          "type": "address"
        }
      ],
      "stateMutability": "view",
      "type": "function",
      "constant": true
    },
    {
      "inputs": [
        {
          "internalType": "address",
          "name": "from",
          "type": "address"
        },
        {
          "internalType": "address",
          "name": "to",
          "type": "address"
        },
        {
          "internalType": "uint256",
          "name": "tokenId",
          "type": "uint256"
        }
      ],
      "name": "safeTransferFrom",
      "outputs": [],
      "stateMutability": "nonpayable",
      "type": "function"
    },
    {
      "inputs": [
        {
          "internalType": "address",
          "name": "from",
          "type": "address"
        },
        {
          "internalType": "address",
          "name": "to",
          "type": "address"
        },
        {
          "internalType": "uint256",
          "name": "tokenId",
          "type": "uint256"
        },
        {
          "internalType": "bytes",
          "name": "_data",
          "type": "bytes"
        }
      ],
      "name": "safeTransferFrom",
      "outputs": [],
      "stateMutability": "nonpayable",
      "type": "function"
    },
    {
      "inputs": [
        {
          "internalType": "address",
          "name": "operator",
          "type": "address"
        },
        {
          "internalType": "bool",
          "name": "approved",
          "type": "bool"
        }
      ],
      "name": "setApprovalForAll",
      "outputs": [],
      "stateMutability": "nonpayable",
      "type": "function"
    },
    {
      "inputs": [
        {
          "internalType": "bytes4",
          "name": "interfaceId",
          "type": "bytes4"
        }
      ],
      "name": "supportsInterface",
      "outputs": [
        {
          "internalType": "bool",
          "name": "",
          "type": "bool"
        }
      ],
      "stateMutability": "view",
      "type": "function",
      "constant": true
    },
    {
      "inputs": [],
      "name": "symbol",
      "outputs": [
        {
          "internalType": "string",
          "name": "",
          "type": "string"
        }
      ],
      "stateMutability": "view",
      "type": "function",
      "constant": true
    },
    {
      "inputs": [
        {
          "internalType": "uint256",
          "name": "tokenId",
          "type": "uint256"
        }
      ],
      "name": "tokenURI",
      "outputs": [
        {
          "internalType": "string",
          "name": "",
          "type": "string"
        }
      ],
      "stateMutability": "view",
      "type": "function",
      "constant": true
    },
    {
      "inputs": [
        {
          "internalType": "address",
          "name": "from",
          "type": "address"
        },
        {
          "internalType": "address",
          "name": "to",
          "type": "address"
        },
        {
          "internalType": "uint256",
          "name": "tokenId",
          "type": "uint256"
        }
      ],
      "name": "transferFrom",
      "outputs": [],
      "stateMutability": "nonpayable",
      "type": "function"
    },
    {
      "inputs": [
        {
          "internalType": "address",
          "name": "_creator",
          "type": "address"
        }
      ],
      "name": "setMinter",
      "outputs": [],
      "stateMutability": "nonpayable",
      "type": "function"
    },
    {
      "inputs": [
        {
          "internalType": "address",
          "name": "_creator",
          "type": "address"
        }
      ],
      "name": "revokeMinter",
      "outputs": [],
      "stateMutability": "nonpayable",
      "type": "function"
    },
    {
      "inputs": [
        {
          "internalType": "address",
          "name": "_creator",
          "type": "address"
        }
      ],
      "name": "isMinter",
      "outputs": [
        {
          "internalType": "bool",
          "name": "",
          "type": "bool"
        }
      ],
      "stateMutability": "view",
      "type": "function",
      "constant": true
    },
    {
      "inputs": [
        {
          "internalType": "string",
          "name": "tokenURI",
          "type": "string"
        }
      ],
      "name": "createToken",
      "outputs": [
        {
          "internalType": "uint256",
          "name": "",
          "type": "uint256"
        }
      ],
      "stateMutability": "nonpayable",
      "type": "function"
    },
    {
      "inputs": [
        {
          "internalType": "uint256",
          "name": "_id",
          "type": "uint256"
        },
        {
          "internalType": "string",
          "name": "_hash",
          "type": "string"
        },
        {
          "internalType": "string",
          "name": "_fileName",
          "type": "string"
        },
        {
          "internalType": "string",
          "name": "_fileType",
          "type": "string"
        },
        {
          "internalType": "uint256",
          "name": "_date",
          "type": "uint256"
        }
      ],
      "name": "add",
      "outputs": [],
      "stateMutability": "nonpayable",
      "type": "function"
    },
    {
      "inputs": [
        {
          "internalType": "uint256",
          "name": "_index",
          "type": "uint256"
        },
        {
          "internalType": "uint256",
          "name": "_arrayLength",
          "type": "uint256"
        }
      ],
      "name": "removeFile",
      "outputs": [],
      "stateMutability": "nonpayable",
      "type": "function"
    },
    {
      "inputs": [
        {
          "internalType": "uint256",
          "name": "_index",
          "type": "uint256"
        }
      ],
      "name": "getFile",
      "outputs": [
        {
          "components": [
            {
              "internalType": "uint256",
              "name": "id",
              "type": "uint256"
            },
            {
              "internalType": "string",
              "name": "hash",
              "type": "string"
            },
            {
              "internalType": "string",
              "name": "fileName",
              "type": "string"
            },
            {
              "internalType": "string",
              "name": "fileType",
              "type": "string"
            },
            {
              "internalType": "uint256",
              "name": "date",
              "type": "uint256"
            },
            {
              "internalType": "bool",
              "name": "wasAdded",
              "type": "bool"
            }
          ],
          "internalType": "struct RugbyDAUToken.File",
          "name": "",
          "type": "tuple"
        }
      ],
      "stateMutability": "view",
      "type": "function",
      "constant": true
    },
    {
      "inputs": [],
      "name": "getLength",
      "outputs": [
        {
          "internalType": "uint256",
          "name": "",
          "type": "uint256"
        }
      ],
      "stateMutability": "view",
      "type": "function",
      "constant": true
    }
  ],
  "bytecode": "0x60806040523480156200001157600080fd5b506040518060400160405280600e81526020017f527567627944415520546f6b656e0000000000000000000000000000000000008152506040518060400160405280600481526020017f52474259000000000000000000000000000000000000000000000000000000008152508160009080519060200190620000969291906200021a565b508060019080519060200190620000af9291906200021a565b50505033600960006101000a81548173ffffffffffffffffffffffffffffffffffffffff021916908373ffffffffffffffffffffffffffffffffffffffff16021790555062000126600960009054906101000a900473ffffffffffffffffffffffffffffffffffffffff166200012c60201b60201c565b620003d8565b600960009054906101000a900473ffffffffffffffffffffffffffffffffffffffff1673ffffffffffffffffffffffffffffffffffffffff163273ffffffffffffffffffffffffffffffffffffffff1614620001bf576040517f08c379a0000000000000000000000000000000000000000000000000000000008152600401620001b690620002f1565b60405180910390fd5b6001600a60008373ffffffffffffffffffffffffffffffffffffffff1673ffffffffffffffffffffffffffffffffffffffff16815260200190815260200160002060006101000a81548160ff02191690831515021790555050565b828054620002289062000324565b90600052602060002090601f0160209004810192826200024c576000855562000298565b82601f106200026757805160ff191683800117855562000298565b8280016001018555821562000298579182015b82811115620002975782518255916020019190600101906200027a565b5b509050620002a79190620002ab565b5090565b5b80821115620002c6576000816000905550600101620002ac565b5090565b6000620002d960298362000313565b9150620002e68262000389565b604082019050919050565b600060208201905081810360008301526200030c81620002ca565b9050919050565b600082825260208201905092915050565b600060028204905060018216806200033d57607f821691505b602082108114156200035457620003536200035a565b5b50919050565b7f4e487b7100000000000000000000000000000000000000000000000000000000600052602260045260246000fd5b7f4f6e6c7920746865206f776e6572206861732061636365737320746f2074686960008201527f7320666561747572650000000000000000000000000000000000000000000000602082015250565b61435a80620003e86000396000f3fe608060405234801561001057600080fd5b50600436106101375760003560e01c806370a08231116100b8578063be1c766b1161007c578063be1c766b14610370578063c87b56dd1461038e578063cfbd4885146103be578063db8c3fdc146103da578063e985e9c5146103f6578063fca3b5aa1461042657610137565b806370a08231146102ba57806395d89b41146102ea578063a22cb46514610308578063aa271e1a14610324578063b88d4fde1461035457610137565b806323b872dd116100ff57806323b872dd146101f25780632bfda3131461020e57806342842e0e1461023e57806345576f941461025a5780636352211e1461028a57610137565b806301ffc9a71461013c57806306fdde031461016c578063081812fc1461018a578063095ea7b3146101ba5780630e1e4795146101d6575b600080fd5b61015660048036038101906101519190612ff1565b610442565b604051610163919061368f565b60405180910390f35b610174610524565b60405161018191906136aa565b60405180910390f35b6101a4600480360381019061019f9190613094565b6105b6565b6040516101b19190613628565b60405180910390f35b6101d460048036038101906101cf9190612fb1565b61063b565b005b6101f060048036038101906101eb91906130c1565b610753565b005b61020c60048036038101906102079190612e9b565b611205565b005b61022860048036038101906102239190613094565b611265565b604051610235919061390c565b60405180910390f35b61025860048036038101906102539190612e9b565b6114c3565b005b610274600480360381019061026f919061304b565b6114e3565b604051610281919061392e565b60405180910390f35b6102a4600480360381019061029f9190613094565b611569565b6040516102b19190613628565b60405180910390f35b6102d460048036038101906102cf9190612e2e565b61161b565b6040516102e1919061392e565b60405180910390f35b6102f26116d3565b6040516102ff91906136aa565b60405180910390f35b610322600480360381019061031d9190612f71565b611765565b005b61033e60048036038101906103399190612e2e565b6118e6565b60405161034b919061368f565b60405180910390f35b61036e60048036038101906103699190612eee565b61193c565b005b61037861199e565b604051610385919061392e565b60405180910390f35b6103a860048036038101906103a39190613094565b6119e8565b6040516103b591906136aa565b60405180910390f35b6103d860048036038101906103d39190612e2e565b611b3a565b005b6103f460048036038101906103ef9190613190565b611c25565b005b610410600480360381019061040b9190612e5b565b611e5b565b60405161041d919061368f565b60405180910390f35b610440600480360381019061043b9190612e2e565b611eef565b005b60007f80ac58cd000000000000000000000000000000000000000000000000000000007bffffffffffffffffffffffffffffffffffffffffffffffffffffffff1916827bffffffffffffffffffffffffffffffffffffffffffffffffffffffff1916148061050d57507f5b5e139f000000000000000000000000000000000000000000000000000000007bffffffffffffffffffffffffffffffffffffffffffffffffffffffff1916827bffffffffffffffffffffffffffffffffffffffffffffffffffffffff1916145b8061051d575061051c82611fda565b5b9050919050565b60606000805461053390613bbf565b80601f016020809104026020016040519081016040528092919081815260200182805461055f90613bbf565b80156105ac5780601f10610581576101008083540402835291602001916105ac565b820191906000526020600020905b81548152906001019060200180831161058f57829003601f168201915b5050505050905090565b60006105c182612044565b610600576040517f08c379a00000000000000000000000000000000000000000000000000000000081526004016105f79061386c565b60405180910390fd5b6004600083815260200190815260200160002060009054906101000a900473ffffffffffffffffffffffffffffffffffffffff169050919050565b600061064682611569565b90508073ffffffffffffffffffffffffffffffffffffffff168373ffffffffffffffffffffffffffffffffffffffff1614156106b7576040517f08c379a00000000000000000000000000000000000000000000000000000000081526004016106ae906138cc565b60405180910390fd5b8073ffffffffffffffffffffffffffffffffffffffff166106d66120b0565b73ffffffffffffffffffffffffffffffffffffffff1614806107055750610704816106ff6120b0565b611e5b565b5b610744576040517f08c379a000000000000000000000000000000000000000000000000000000000815260040161073b906137ac565b60405180910390fd5b61074e83836120b8565b505050565b6000600760003373ffffffffffffffffffffffffffffffffffffffff1673ffffffffffffffffffffffffffffffffffffffff1681526020019081526020016000208054905014156108c857600760003373ffffffffffffffffffffffffffffffffffffffff1673ffffffffffffffffffffffffffffffffffffffff1681526020019081526020016000206040518060c0016040528087815260200186815260200185815260200184815260200183815260200160011515815250908060018154018082558091505060019003906000526020600020906006020160009091909190915060008201518160000155602082015181600101908051906020019061085c929190612b3d565b506040820151816002019080519060200190610879929190612b3d565b506060820151816003019080519060200190610896929190612b3d565b506080820151816004015560a08201518160050160006101000a81548160ff02191690831515021790555050506111fe565b6000600760003373ffffffffffffffffffffffffffffffffffffffff1673ffffffffffffffffffffffffffffffffffffffff1681526020019081526020016000208054905090506000600760003373ffffffffffffffffffffffffffffffffffffffff1673ffffffffffffffffffffffffffffffffffffffff16815260200190815260200160002060018361095d9190613aab565b8154811061096e5761096d613d29565b5b90600052602060002090600602016040518060c0016040529081600082015481526020016001820180546109a190613bbf565b80601f01602080910402602001604051908101604052809291908181526020018280546109cd90613bbf565b8015610a1a5780601f106109ef57610100808354040283529160200191610a1a565b820191906000526020600020905b8154815290600101906020018083116109fd57829003601f168201915b50505050508152602001600282018054610a3390613bbf565b80601f0160208091040260200160405190810160405280929190818152602001828054610a5f90613bbf565b8015610aac5780601f10610a8157610100808354040283529160200191610aac565b820191906000526020600020905b815481529060010190602001808311610a8f57829003601f168201915b50505050508152602001600382018054610ac590613bbf565b80601f0160208091040260200160405190810160405280929190818152602001828054610af190613bbf565b8015610b3e5780601f10610b1357610100808354040283529160200191610b3e565b820191906000526020600020905b815481529060010190602001808311610b2157829003601f168201915b50505050508152602001600482015481526020016005820160009054906101000a900460ff16151515158152505090508060a001516110d5575b8060a00151158015610b8b575060018210155b15610e0057600760003373ffffffffffffffffffffffffffffffffffffffff1673ffffffffffffffffffffffffffffffffffffffff168152602001908152602001600020600183610bdc9190613aab565b81548110610bed57610bec613d29565b5b90600052602060002090600602016040518060c001604052908160008201548152602001600182018054610c2090613bbf565b80601f0160208091040260200160405190810160405280929190818152602001828054610c4c90613bbf565b8015610c995780601f10610c6e57610100808354040283529160200191610c99565b820191906000526020600020905b815481529060010190602001808311610c7c57829003601f168201915b50505050508152602001600282018054610cb290613bbf565b80601f0160208091040260200160405190810160405280929190818152602001828054610cde90613bbf565b8015610d2b5780601f10610d0057610100808354040283529160200191610d2b565b820191906000526020600020905b815481529060010190602001808311610d0e57829003601f168201915b50505050508152602001600382018054610d4490613bbf565b80601f0160208091040260200160405190810160405280929190818152602001828054610d7090613bbf565b8015610dbd5780601f10610d9257610100808354040283529160200191610dbd565b820191906000526020600020905b815481529060010190602001808311610da057829003601f168201915b50505050508152602001600482015481526020016005820160009054906101000a900460ff16151515158152505090508180610df890613b95565b925050610b78565b600082148015610e7e5750600760003373ffffffffffffffffffffffffffffffffffffffff1673ffffffffffffffffffffffffffffffffffffffff168152602001908152602001600020600081548110610e5d57610e5c613d29565b5b906000526020600020906006020160050160009054906101000a900460ff16155b15610fa6576040518060c0016040528088815260200187815260200186815260200185815260200184815260200160011515815250600760003373ffffffffffffffffffffffffffffffffffffffff1673ffffffffffffffffffffffffffffffffffffffff168152602001908152602001600020600081548110610f0557610f04613d29565b5b9060005260206000209060060201600082015181600001556020820151816001019080519060200190610f39929190612b3d565b506040820151816002019080519060200190610f56929190612b3d565b506060820151816003019080519060200190610f73929190612b3d565b506080820151816004015560a08201518160050160006101000a81548160ff0219169083151502179055509050506110d0565b6040518060c0016040528088815260200187815260200186815260200185815260200184815260200160011515815250600760003373ffffffffffffffffffffffffffffffffffffffff1673ffffffffffffffffffffffffffffffffffffffff1681526020019081526020016000206001846110229190613a24565b8154811061103357611032613d29565b5b9060005260206000209060060201600082015181600001556020820151816001019080519060200190611067929190612b3d565b506040820151816002019080519060200190611084929190612b3d565b5060608201518160030190805190602001906110a1929190612b3d565b506080820151816004015560a08201518160050160006101000a81548160ff0219169083151502179055509050505b6111fb565b600760003373ffffffffffffffffffffffffffffffffffffffff1673ffffffffffffffffffffffffffffffffffffffff1681526020019081526020016000206040518060c00160405280898152602001888152602001878152602001868152602001858152602001600115158152509080600181540180825580915050600190039060005260206000209060060201600090919091909150600082015181600001556020820151816001019080519060200190611193929190612b3d565b5060408201518160020190805190602001906111b0929190612b3d565b5060608201518160030190805190602001906111cd929190612b3d565b506080820151816004015560a08201518160050160006101000a81548160ff02191690831515021790555050505b50505b5050505050565b6112166112106120b0565b82612171565b611255576040517f08c379a000000000000000000000000000000000000000000000000000000000815260040161124c906138ec565b60405180910390fd5b61126083838361224f565b505050565b61126d612bc3565b600760003373ffffffffffffffffffffffffffffffffffffffff1673ffffffffffffffffffffffffffffffffffffffff16815260200190815260200160002082815481106112be576112bd613d29565b5b90600052602060002090600602016040518060c0016040529081600082015481526020016001820180546112f190613bbf565b80601f016020809104026020016040519081016040528092919081815260200182805461131d90613bbf565b801561136a5780601f1061133f5761010080835404028352916020019161136a565b820191906000526020600020905b81548152906001019060200180831161134d57829003601f168201915b5050505050815260200160028201805461138390613bbf565b80601f01602080910402602001604051908101604052809291908181526020018280546113af90613bbf565b80156113fc5780601f106113d1576101008083540402835291602001916113fc565b820191906000526020600020905b8154815290600101906020018083116113df57829003601f168201915b5050505050815260200160038201805461141590613bbf565b80601f016020809104026020016040519081016040528092919081815260200182805461144190613bbf565b801561148e5780601f106114635761010080835404028352916020019161148e565b820191906000526020600020905b81548152906001019060200180831161147157829003601f168201915b50505050508152602001600482015481526020016005820160009054906101000a900460ff1615151515815250509050919050565b6114de8383836040518060200160405280600081525061193c565b505050565b60006114ee336118e6565b61152d576040517f08c379a0000000000000000000000000000000000000000000000000000000008152600401611524906136cc565b60405180910390fd5b6000600854905061153e33826124ab565b6115488184612679565b6008600081548092919061155b90613c22565b919050555080915050919050565b6000806002600084815260200190815260200160002060009054906101000a900473ffffffffffffffffffffffffffffffffffffffff169050600073ffffffffffffffffffffffffffffffffffffffff168173ffffffffffffffffffffffffffffffffffffffff161415611612576040517f08c379a0000000000000000000000000000000000000000000000000000000008152600401611609906137ec565b60405180910390fd5b80915050919050565b60008073ffffffffffffffffffffffffffffffffffffffff168273ffffffffffffffffffffffffffffffffffffffff16141561168c576040517f08c379a0000000000000000000000000000000000000000000000000000000008152600401611683906137cc565b60405180910390fd5b600360008373ffffffffffffffffffffffffffffffffffffffff1673ffffffffffffffffffffffffffffffffffffffff168152602001908152602001600020549050919050565b6060600180546116e290613bbf565b80601f016020809104026020016040519081016040528092919081815260200182805461170e90613bbf565b801561175b5780601f106117305761010080835404028352916020019161175b565b820191906000526020600020905b81548152906001019060200180831161173e57829003601f168201915b5050505050905090565b61176d6120b0565b73ffffffffffffffffffffffffffffffffffffffff168273ffffffffffffffffffffffffffffffffffffffff1614156117db576040517f08c379a00000000000000000000000000000000000000000000000000000000081526004016117d29061374c565b60405180910390fd5b80600560006117e86120b0565b73ffffffffffffffffffffffffffffffffffffffff1673ffffffffffffffffffffffffffffffffffffffff16815260200190815260200160002060008473ffffffffffffffffffffffffffffffffffffffff1673ffffffffffffffffffffffffffffffffffffffff16815260200190815260200160002060006101000a81548160ff0219169083151502179055508173ffffffffffffffffffffffffffffffffffffffff166118956120b0565b73ffffffffffffffffffffffffffffffffffffffff167f17307eab39ab6107e8899845ad3d59bd9653f200f220920489ca2b5937696c31836040516118da919061368f565b60405180910390a35050565b6000600a60008373ffffffffffffffffffffffffffffffffffffffff1673ffffffffffffffffffffffffffffffffffffffff16815260200190815260200160002060009054906101000a900460ff169050919050565b61194d6119476120b0565b83612171565b61198c576040517f08c379a0000000000000000000000000000000000000000000000000000000008152600401611983906138ec565b60405180910390fd5b611998848484846126ed565b50505050565b6000600760003373ffffffffffffffffffffffffffffffffffffffff1673ffffffffffffffffffffffffffffffffffffffff16815260200190815260200160002080549050905090565b60606119f382612044565b611a32576040517f08c379a0000000000000000000000000000000000000000000000000000000008152600401611a299061384c565b60405180910390fd5b6000600660008481526020019081526020016000208054611a5290613bbf565b80601f0160208091040260200160405190810160405280929190818152602001828054611a7e90613bbf565b8015611acb5780601f10611aa057610100808354040283529160200191611acb565b820191906000526020600020905b815481529060010190602001808311611aae57829003601f168201915b505050505090506000611adc612749565b9050600081511415611af2578192505050611b35565b600082511115611b27578082604051602001611b0f929190613604565b60405160208183030381529060405292505050611b35565b611b3084612786565b925050505b919050565b600960009054906101000a900473ffffffffffffffffffffffffffffffffffffffff1673ffffffffffffffffffffffffffffffffffffffff163273ffffffffffffffffffffffffffffffffffffffff1614611bca576040517f08c379a0000000000000000000000000000000000000000000000000000000008152600401611bc19061376c565b60405180910390fd5b6000600a60008373ffffffffffffffffffffffffffffffffffffffff1673ffffffffffffffffffffffffffffffffffffffff16815260200190815260200160002060006101000a81548160ff02191690831515021790555050565b6000600182611c349190613aab565b9050808314611da057600760003373ffffffffffffffffffffffffffffffffffffffff1673ffffffffffffffffffffffffffffffffffffffff1681526020019081526020016000208181548110611c8e57611c8d613d29565b5b9060005260206000209060060201600760003373ffffffffffffffffffffffffffffffffffffffff1673ffffffffffffffffffffffffffffffffffffffff1681526020019081526020016000208481548110611ced57611cec613d29565b5b9060005260206000209060060201600082015481600001556001820181600101908054611d1990613bbf565b611d24929190612bfb565b506002820181600201908054611d3990613bbf565b611d44929190612bfb565b506003820181600301908054611d5990613bbf565b611d64929190612bfb565b50600482015481600401556005820160009054906101000a900460ff168160050160006101000a81548160ff0219169083151502179055509050505b600760003373ffffffffffffffffffffffffffffffffffffffff1673ffffffffffffffffffffffffffffffffffffffff1681526020019081526020016000208181548110611df157611df0613d29565b5b9060005260206000209060060201600080820160009055600182016000611e189190612c88565b600282016000611e289190612c88565b600382016000611e389190612c88565b60048201600090556005820160006101000a81549060ff02191690555050505050565b6000600560008473ffffffffffffffffffffffffffffffffffffffff1673ffffffffffffffffffffffffffffffffffffffff16815260200190815260200160002060008373ffffffffffffffffffffffffffffffffffffffff1673ffffffffffffffffffffffffffffffffffffffff16815260200190815260200160002060009054906101000a900460ff16905092915050565b600960009054906101000a900473ffffffffffffffffffffffffffffffffffffffff1673ffffffffffffffffffffffffffffffffffffffff163273ffffffffffffffffffffffffffffffffffffffff1614611f7f576040517f08c379a0000000000000000000000000000000000000000000000000000000008152600401611f769061376c565b60405180910390fd5b6001600a60008373ffffffffffffffffffffffffffffffffffffffff1673ffffffffffffffffffffffffffffffffffffffff16815260200190815260200160002060006101000a81548160ff02191690831515021790555050565b60007f01ffc9a7000000000000000000000000000000000000000000000000000000007bffffffffffffffffffffffffffffffffffffffffffffffffffffffff1916827bffffffffffffffffffffffffffffffffffffffffffffffffffffffff1916149050919050565b60008073ffffffffffffffffffffffffffffffffffffffff166002600084815260200190815260200160002060009054906101000a900473ffffffffffffffffffffffffffffffffffffffff1673ffffffffffffffffffffffffffffffffffffffff1614159050919050565b600033905090565b816004600083815260200190815260200160002060006101000a81548173ffffffffffffffffffffffffffffffffffffffff021916908373ffffffffffffffffffffffffffffffffffffffff160217905550808273ffffffffffffffffffffffffffffffffffffffff1661212b83611569565b73ffffffffffffffffffffffffffffffffffffffff167f8c5be1e5ebec7d5bd14f71427d1e84f3dd0314c0f7b2291e5b200ac8c7c3b92560405160405180910390a45050565b600061217c82612044565b6121bb576040517f08c379a00000000000000000000000000000000000000000000000000000000081526004016121b29061378c565b60405180910390fd5b60006121c683611569565b90508073ffffffffffffffffffffffffffffffffffffffff168473ffffffffffffffffffffffffffffffffffffffff16148061223557508373ffffffffffffffffffffffffffffffffffffffff1661221d846105b6565b73ffffffffffffffffffffffffffffffffffffffff16145b8061224657506122458185611e5b565b5b91505092915050565b8273ffffffffffffffffffffffffffffffffffffffff1661226f82611569565b73ffffffffffffffffffffffffffffffffffffffff16146122c5576040517f08c379a00000000000000000000000000000000000000000000000000000000081526004016122bc9061388c565b60405180910390fd5b600073ffffffffffffffffffffffffffffffffffffffff168273ffffffffffffffffffffffffffffffffffffffff161415612335576040517f08c379a000000000000000000000000000000000000000000000000000000000815260040161232c9061372c565b60405180910390fd5b61234083838361282d565b61234b6000826120b8565b6001600360008573ffffffffffffffffffffffffffffffffffffffff1673ffffffffffffffffffffffffffffffffffffffff168152602001908152602001600020600082825461239b9190613aab565b925050819055506001600360008473ffffffffffffffffffffffffffffffffffffffff1673ffffffffffffffffffffffffffffffffffffffff16815260200190815260200160002060008282546123f29190613a24565b92505081905550816002600083815260200190815260200160002060006101000a81548173ffffffffffffffffffffffffffffffffffffffff021916908373ffffffffffffffffffffffffffffffffffffffff160217905550808273ffffffffffffffffffffffffffffffffffffffff168473ffffffffffffffffffffffffffffffffffffffff167fddf252ad1be2c89b69c2b068fc378daa952ba7f163c4a11628f55a4df523b3ef60405160405180910390a4505050565b600073ffffffffffffffffffffffffffffffffffffffff168273ffffffffffffffffffffffffffffffffffffffff16141561251b576040517f08c379a00000000000000000000000000000000000000000000000000000000081526004016125129061382c565b60405180910390fd5b61252481612044565b15612564576040517f08c379a000000000000000000000000000000000000000000000000000000000815260040161255b9061370c565b60405180910390fd5b6125706000838361282d565b6001600360008473ffffffffffffffffffffffffffffffffffffffff1673ffffffffffffffffffffffffffffffffffffffff16815260200190815260200160002060008282546125c09190613a24565b92505081905550816002600083815260200190815260200160002060006101000a81548173ffffffffffffffffffffffffffffffffffffffff021916908373ffffffffffffffffffffffffffffffffffffffff160217905550808273ffffffffffffffffffffffffffffffffffffffff16600073ffffffffffffffffffffffffffffffffffffffff167fddf252ad1be2c89b69c2b068fc378daa952ba7f163c4a11628f55a4df523b3ef60405160405180910390a45050565b61268282612044565b6126c1576040517f08c379a00000000000000000000000000000000000000000000000000000000081526004016126b89061380c565b60405180910390fd5b806006600084815260200190815260200160002090805190602001906126e8929190612b3d565b505050565b6126f884848461224f565b61270484848484612832565b612743576040517f08c379a000000000000000000000000000000000000000000000000000000000815260040161273a906136ec565b60405180910390fd5b50505050565b60606040518060400160405280601581526020017f68747470733a2f2f697066732e696f2f697066732f0000000000000000000000815250905090565b606061279182612044565b6127d0576040517f08c379a00000000000000000000000000000000000000000000000000000000081526004016127c7906138ac565b60405180910390fd5b60006127da612749565b905060008151116127fa5760405180602001604052806000815250612825565b80612804846129c9565b604051602001612815929190613604565b6040516020818303038152906040525b915050919050565b505050565b60006128538473ffffffffffffffffffffffffffffffffffffffff16612b2a565b156129bc578373ffffffffffffffffffffffffffffffffffffffff1663150b7a0261287c6120b0565b8786866040518563ffffffff1660e01b815260040161289e9493929190613643565b602060405180830381600087803b1580156128b857600080fd5b505af19250505080156128e957506040513d601f19601f820116820180604052508101906128e6919061301e565b60015b61296c573d8060008114612919576040519150601f19603f3d011682016040523d82523d6000602084013e61291e565b606091505b50600081511415612964576040517f08c379a000000000000000000000000000000000000000000000000000000000815260040161295b906136ec565b60405180910390fd5b805181602001fd5b63150b7a0260e01b7bffffffffffffffffffffffffffffffffffffffffffffffffffffffff1916817bffffffffffffffffffffffffffffffffffffffffffffffffffffffff1916149150506129c1565b600190505b949350505050565b60606000821415612a11576040518060400160405280600181526020017f30000000000000000000000000000000000000000000000000000000000000008152509050612b25565b600082905060005b60008214612a43578080612a2c90613c22565b915050600a82612a3c9190613a7a565b9150612a19565b60008167ffffffffffffffff811115612a5f57612a5e613d58565b5b6040519080825280601f01601f191660200182016040528015612a915781602001600182028036833780820191505090505b5090505b60008514612b1e57600182612aaa9190613aab565b9150600a85612ab99190613c6b565b6030612ac59190613a24565b60f81b818381518110612adb57612ada613d29565b5b60200101907effffffffffffffffffffffffffffffffffffffffffffffffffffffffffffff1916908160001a905350600a85612b179190613a7a565b9450612a95565b8093505050505b919050565b600080823b905060008111915050919050565b828054612b4990613bbf565b90600052602060002090601f016020900481019282612b6b5760008555612bb2565b82601f10612b8457805160ff1916838001178555612bb2565b82800160010185558215612bb2579182015b82811115612bb1578251825591602001919060010190612b96565b5b509050612bbf9190612cc8565b5090565b6040518060c0016040528060008152602001606081526020016060815260200160608152602001600081526020016000151581525090565b828054612c0790613bbf565b90600052602060002090601f016020900481019282612c295760008555612c77565b82601f10612c3a5780548555612c77565b82800160010185558215612c7757600052602060002091601f016020900482015b82811115612c76578254825591600101919060010190612c5b565b5b509050612c849190612cc8565b5090565b508054612c9490613bbf565b6000825580601f10612ca65750612cc5565b601f016020900490600052602060002090810190612cc49190612cc8565b5b50565b5b80821115612ce1576000816000905550600101612cc9565b5090565b6000612cf8612cf38461396e565b613949565b905082815260208101848484011115612d1457612d13613d8c565b5b612d1f848285613b53565b509392505050565b6000612d3a612d358461399f565b613949565b905082815260208101848484011115612d5657612d55613d8c565b5b612d61848285613b53565b509392505050565b600081359050612d78816142c8565b92915050565b600081359050612d8d816142df565b92915050565b600081359050612da2816142f6565b92915050565b600081519050612db7816142f6565b92915050565b600082601f830112612dd257612dd1613d87565b5b8135612de2848260208601612ce5565b91505092915050565b600082601f830112612e0057612dff613d87565b5b8135612e10848260208601612d27565b91505092915050565b600081359050612e288161430d565b92915050565b600060208284031215612e4457612e43613d96565b5b6000612e5284828501612d69565b91505092915050565b60008060408385031215612e7257612e71613d96565b5b6000612e8085828601612d69565b9250506020612e9185828601612d69565b9150509250929050565b600080600060608486031215612eb457612eb3613d96565b5b6000612ec286828701612d69565b9350506020612ed386828701612d69565b9250506040612ee486828701612e19565b9150509250925092565b60008060008060808587031215612f0857612f07613d96565b5b6000612f1687828801612d69565b9450506020612f2787828801612d69565b9350506040612f3887828801612e19565b925050606085013567ffffffffffffffff811115612f5957612f58613d91565b5b612f6587828801612dbd565b91505092959194509250565b60008060408385031215612f8857612f87613d96565b5b6000612f9685828601612d69565b9250506020612fa785828601612d7e565b9150509250929050565b60008060408385031215612fc857612fc7613d96565b5b6000612fd685828601612d69565b9250506020612fe785828601612e19565b9150509250929050565b60006020828403121561300757613006613d96565b5b600061301584828501612d93565b91505092915050565b60006020828403121561303457613033613d96565b5b600061304284828501612da8565b91505092915050565b60006020828403121561306157613060613d96565b5b600082013567ffffffffffffffff81111561307f5761307e613d91565b5b61308b84828501612deb565b91505092915050565b6000602082840312156130aa576130a9613d96565b5b60006130b884828501612e19565b91505092915050565b600080600080600060a086880312156130dd576130dc613d96565b5b60006130eb88828901612e19565b955050602086013567ffffffffffffffff81111561310c5761310b613d91565b5b61311888828901612deb565b945050604086013567ffffffffffffffff81111561313957613138613d91565b5b61314588828901612deb565b935050606086013567ffffffffffffffff81111561316657613165613d91565b5b61317288828901612deb565b925050608061318388828901612e19565b9150509295509295909350565b600080604083850312156131a7576131a6613d96565b5b60006131b585828601612e19565b92505060206131c685828601612e19565b9150509250929050565b6131d981613adf565b82525050565b6131e881613af1565b82525050565b6131f781613af1565b82525050565b6000613208826139d0565b61321281856139e6565b9350613222818560208601613b62565b61322b81613d9b565b840191505092915050565b6000613241826139db565b61324b81856139f7565b935061325b818560208601613b62565b61326481613d9b565b840191505092915050565b600061327a826139db565b6132848185613a08565b9350613294818560208601613b62565b61329d81613d9b565b840191505092915050565b60006132b3826139db565b6132bd8185613a19565b93506132cd818560208601613b62565b80840191505092915050565b60006132e6602183613a08565b91506132f182613dac565b604082019050919050565b6000613309603283613a08565b915061331482613dfb565b604082019050919050565b600061332c601c83613a08565b915061333782613e4a565b602082019050919050565b600061334f602483613a08565b915061335a82613e73565b604082019050919050565b6000613372601983613a08565b915061337d82613ec2565b602082019050919050565b6000613395602983613a08565b91506133a082613eeb565b604082019050919050565b60006133b8602c83613a08565b91506133c382613f3a565b604082019050919050565b60006133db603883613a08565b91506133e682613f89565b604082019050919050565b60006133fe602a83613a08565b915061340982613fd8565b604082019050919050565b6000613421602983613a08565b915061342c82614027565b604082019050919050565b6000613444602e83613a08565b915061344f82614076565b604082019050919050565b6000613467602083613a08565b9150613472826140c5565b602082019050919050565b600061348a603183613a08565b9150613495826140ee565b604082019050919050565b60006134ad602c83613a08565b91506134b88261413d565b604082019050919050565b60006134d0602983613a08565b91506134db8261418c565b604082019050919050565b60006134f3602f83613a08565b91506134fe826141db565b604082019050919050565b6000613516602183613a08565b91506135218261422a565b604082019050919050565b6000613539603183613a08565b915061354482614279565b604082019050919050565b600060c08301600083015161356760008601826135e6565b506020830151848203602086015261357f8282613236565b915050604083015184820360408601526135998282613236565b915050606083015184820360608601526135b38282613236565b91505060808301516135c860808601826135e6565b5060a08301516135db60a08601826131df565b508091505092915050565b6135ef81613b49565b82525050565b6135fe81613b49565b82525050565b600061361082856132a8565b915061361c82846132a8565b91508190509392505050565b600060208201905061363d60008301846131d0565b92915050565b600060808201905061365860008301876131d0565b61366560208301866131d0565b61367260408301856135f5565b818103606083015261368481846131fd565b905095945050505050565b60006020820190506136a460008301846131ee565b92915050565b600060208201905081810360008301526136c4818461326f565b905092915050565b600060208201905081810360008301526136e5816132d9565b9050919050565b60006020820190508181036000830152613705816132fc565b9050919050565b600060208201905081810360008301526137258161331f565b9050919050565b6000602082019050818103600083015261374581613342565b9050919050565b6000602082019050818103600083015261376581613365565b9050919050565b6000602082019050818103600083015261378581613388565b9050919050565b600060208201905081810360008301526137a5816133ab565b9050919050565b600060208201905081810360008301526137c5816133ce565b9050919050565b600060208201905081810360008301526137e5816133f1565b9050919050565b6000602082019050818103600083015261380581613414565b9050919050565b6000602082019050818103600083015261382581613437565b9050919050565b600060208201905081810360008301526138458161345a565b9050919050565b600060208201905081810360008301526138658161347d565b9050919050565b60006020820190508181036000830152613885816134a0565b9050919050565b600060208201905081810360008301526138a5816134c3565b9050919050565b600060208201905081810360008301526138c5816134e6565b9050919050565b600060208201905081810360008301526138e581613509565b9050919050565b600060208201905081810360008301526139058161352c565b9050919050565b60006020820190508181036000830152613926818461354f565b905092915050565b600060208201905061394360008301846135f5565b92915050565b6000613953613964565b905061395f8282613bf1565b919050565b6000604051905090565b600067ffffffffffffffff82111561398957613988613d58565b5b61399282613d9b565b9050602081019050919050565b600067ffffffffffffffff8211156139ba576139b9613d58565b5b6139c382613d9b565b9050602081019050919050565b600081519050919050565b600081519050919050565b600082825260208201905092915050565b600082825260208201905092915050565b600082825260208201905092915050565b600081905092915050565b6000613a2f82613b49565b9150613a3a83613b49565b9250827fffffffffffffffffffffffffffffffffffffffffffffffffffffffffffffffff03821115613a6f57613a6e613c9c565b5b828201905092915050565b6000613a8582613b49565b9150613a9083613b49565b925082613aa057613a9f613ccb565b5b828204905092915050565b6000613ab682613b49565b9150613ac183613b49565b925082821015613ad457613ad3613c9c565b5b828203905092915050565b6000613aea82613b29565b9050919050565b60008115159050919050565b60007fffffffff0000000000000000000000000000000000000000000000000000000082169050919050565b600073ffffffffffffffffffffffffffffffffffffffff82169050919050565b6000819050919050565b82818337600083830152505050565b60005b83811015613b80578082015181840152602081019050613b65565b83811115613b8f576000848401525b50505050565b6000613ba082613b49565b91506000821415613bb457613bb3613c9c565b5b600182039050919050565b60006002820490506001821680613bd757607f821691505b60208210811415613beb57613bea613cfa565b5b50919050565b613bfa82613d9b565b810181811067ffffffffffffffff82111715613c1957613c18613d58565b5b80604052505050565b6000613c2d82613b49565b91507fffffffffffffffffffffffffffffffffffffffffffffffffffffffffffffffff821415613c6057613c5f613c9c565b5b600182019050919050565b6000613c7682613b49565b9150613c8183613b49565b925082613c9157613c90613ccb565b5b828206905092915050565b7f4e487b7100000000000000000000000000000000000000000000000000000000600052601160045260246000fd5b7f4e487b7100000000000000000000000000000000000000000000000000000000600052601260045260246000fd5b7f4e487b7100000000000000000000000000000000000000000000000000000000600052602260045260246000fd5b7f4e487b7100000000000000000000000000000000000000000000000000000000600052603260045260246000fd5b7f4e487b7100000000000000000000000000000000000000000000000000000000600052604160045260246000fd5b600080fd5b600080fd5b600080fd5b600080fd5b6000601f19601f8301169050919050565b7f4f6e6c7920617574686f72697365642063726561746f72732063616e206d696e60008201527f7400000000000000000000000000000000000000000000000000000000000000602082015250565b7f4552433732313a207472616e7366657220746f206e6f6e20455243373231526560008201527f63656976657220696d706c656d656e7465720000000000000000000000000000602082015250565b7f4552433732313a20746f6b656e20616c7265616479206d696e74656400000000600082015250565b7f4552433732313a207472616e7366657220746f20746865207a65726f2061646460008201527f7265737300000000000000000000000000000000000000000000000000000000602082015250565b7f4552433732313a20617070726f766520746f2063616c6c657200000000000000600082015250565b7f4f6e6c7920746865206f776e6572206861732061636365737320746f2074686960008201527f7320666561747572650000000000000000000000000000000000000000000000602082015250565b7f4552433732313a206f70657261746f7220717565727920666f72206e6f6e657860008201527f697374656e7420746f6b656e0000000000000000000000000000000000000000602082015250565b7f4552433732313a20617070726f76652063616c6c6572206973206e6f74206f7760008201527f6e6572206e6f7220617070726f76656420666f7220616c6c0000000000000000602082015250565b7f4552433732313a2062616c616e636520717565727920666f7220746865207a6560008201527f726f206164647265737300000000000000000000000000000000000000000000602082015250565b7f4552433732313a206f776e657220717565727920666f72206e6f6e657869737460008201527f656e7420746f6b656e0000000000000000000000000000000000000000000000602082015250565b7f45524337323155524953746f726167653a2055524920736574206f66206e6f6e60008201527f6578697374656e7420746f6b656e000000000000000000000000000000000000602082015250565b7f4552433732313a206d696e7420746f20746865207a65726f2061646472657373600082015250565b7f45524337323155524953746f726167653a2055524920717565727920666f722060008201527f6e6f6e6578697374656e7420746f6b656e000000000000000000000000000000602082015250565b7f4552433732313a20617070726f76656420717565727920666f72206e6f6e657860008201527f697374656e7420746f6b656e0000000000000000000000000000000000000000602082015250565b7f4552433732313a207472616e73666572206f6620746f6b656e2074686174206960008201527f73206e6f74206f776e0000000000000000000000000000000000000000000000602082015250565b7f4552433732314d657461646174613a2055524920717565727920666f72206e6f60008201527f6e6578697374656e7420746f6b656e0000000000000000000000000000000000602082015250565b7f4552433732313a20617070726f76616c20746f2063757272656e74206f776e6560008201527f7200000000000000000000000000000000000000000000000000000000000000602082015250565b7f4552433732313a207472616e736665722063616c6c6572206973206e6f74206f60008201527f776e6572206e6f7220617070726f766564000000000000000000000000000000602082015250565b6142d181613adf565b81146142dc57600080fd5b50565b6142e881613af1565b81146142f357600080fd5b50565b6142ff81613afd565b811461430a57600080fd5b50565b61431681613b49565b811461432157600080fd5b5056fea26469706673582212208afce5539c7406677a0c9916b472dcb4e4aa9fcd9479d7c9c31a5a2c9415631b64736f6c63430008070033",
  "immutableReferences": {},
  "source": "// SPDX-License-Identifier: MIT\r\npragma solidity ^0.8.0;\r\n\r\nimport \"@openzeppelin/contracts/token/ERC721/ERC721.sol\";\r\nimport \"@openzeppelin/contracts/token/ERC721/extensions/ERC721URIStorage.sol\";\r\n\r\n\r\ncontract RugbyDAUToken is ERC721URIStorage {\r\n    struct File{\r\n        uint id;\r\n        string hash;\r\n        string fileName;\r\n        string fileType;\r\n        uint date;\r\n        bool wasAdded;\r\n    }\r\n    mapping(address=>File[]) files;\r\n\r\n    uint private _tokenIdCounter;\r\n\r\n    //The contract address of the exchange,it requires operator permission to transfer tokens between owner and buyer. The address will be set up in the contract's constructor along with the name and symboi of the token.\r\n    \r\n    address owner;\r\n    mapping (address => bool) private minters;\r\n\r\n    constructor() ERC721(\"RugbyDAU Token\", \"RGBY\") {\r\n        owner = msg.sender;\r\n        setMinter(owner);\r\n    }\r\n  modifier onlyOwner {\r\n       require(tx.origin == owner, \"Only the owner has access to this feature\");\r\n       _;\r\n    }\r\n  //internal function to concatenate the base URI to the CID from IPFS\r\n  function _baseURI() internal pure override returns (string memory) {\r\n        return \"https://ipfs.io/ipfs/\";\r\n    }\r\n  //set and revoke permission to creators to mint\r\n  function setMinter(address _creator) public onlyOwner{\r\n      minters[_creator]= true;\r\n    }\r\n  function revokeMinter(address _creator) public onlyOwner{\r\n      minters[_creator]=false;\r\n    }\r\n  function isMinter(address _creator) public view returns (bool){\r\n      return minters[_creator];\r\n    }\r\n  \r\n  //mints a Non-Fungible Token\r\n  function createToken(string memory tokenURI) public returns (uint) {\r\n    require(isMinter(msg.sender), \"Only authorised creators can mint\");\r\n    uint256 newTokenId = _tokenIdCounter;\r\n    //internal functions from ERC721, mint new token and set the URI of the underlying digital asset\r\n    _mint(msg.sender, newTokenId);\r\n    _setTokenURI(newTokenId, tokenURI);\r\n    _tokenIdCounter++;\r\n    //required operator approval for the RugbyDAU exchange\r\n    //setApprovalForAll(contractMarketAddress, true);\r\n    //return id of the token for the react application\r\n    return newTokenId;\r\n  }\r\n \r\n     \r\n\r\n    function add(uint _id, string memory _hash, string memory _fileName, string memory _fileType, uint _date) public{\r\n       //First file ever added\r\n        if (files[msg.sender].length == 0){\r\n            files[msg.sender].push(File({id:_id, hash:_hash,fileName:_fileName,fileType:_fileType,date:_date, wasAdded:true}));\r\n        }else{\r\n            //any other add after the first\r\n            uint lastIndex = files[msg.sender].length; \r\n            File memory lastEntry = files[msg.sender][lastIndex-1]; \r\n            //check for a deletion in the last entry of the array\r\n            if(!lastEntry.wasAdded){\r\n                //if a deletion is detected, cycle back until a record is found or the second entry is reached\r\n                while((!lastEntry.wasAdded) && lastIndex>=1){\r\n                    lastEntry = files[msg.sender][lastIndex-1];\r\n                    lastIndex--;\r\n                 }\r\n                 //in case all files were deleted, add the new file in the first position\r\n                 if(lastIndex == 0 && (!files[msg.sender][0].wasAdded)){\r\n                     files[msg.sender][0]=File({id:_id, hash:_hash,fileName:_fileName,fileType:_fileType,date:_date, wasAdded:true});\r\n                 }else{\r\n                     //add the next file in place of the last deleted entry, last index has a +1 because the loop will subtract 1 extra on its last loop\r\n                     files[msg.sender][lastIndex+1]=File({id:_id, hash:_hash,fileName:_fileName,fileType:_fileType,date:_date, wasAdded:true});\r\n                 }\r\n\r\n            }else{\r\n                //If there is no deletion detected push the file to the array\r\n               files[msg.sender].push(File({id: _id,hash:_hash,fileName:_fileName,fileType:_fileType,date:_date, wasAdded:true})); \r\n            }\r\n       }\r\n        \r\n    }\r\n    //if needed swaps last entry with file target for removal then deletes last entry\r\n    function removeFile(uint _index, uint _arrayLength) public{\r\n        uint lastElement = _arrayLength-1;\r\n        if(_index != lastElement){\r\n            files[msg.sender][_index] = files[msg.sender][lastElement];\r\n        }\r\n        delete files[msg.sender][lastElement];\r\n    }\r\n\r\n    //we need this getter as we just cannot loop through the mapped array\r\n    function getFile(uint _index) public view returns(File memory){\r\n        return files[msg.sender][_index];\r\n    }\r\n\r\n    //we need the length of each array in order to properly loop trough each of them\r\n    function getLength() public view returns(uint){\r\n        return files[msg.sender].length;\r\n    } \r\n}\r\n\r\n\r\n  \r\n\r\n\r\n\r\n",
  "sourcePath": "C:/Users/x20170416/Documents/GitHub/block-app/solidity-drive-app/contracts/RugbyDAUToken.sol",
  "compiler": {
    "name": "solc",
    "version": "0.8.7+commit.e28d00a7.Emscripten.clang"
  },
  "schemaVersion": "3.4.1",
  "updatedAt": "2021-09-12T19:53:43.326Z",
  "networkType": "ethereum",
  "devdoc": {
    "kind": "dev",
    "methods": {
      "approve(address,uint256)": {
        "details": "See {IERC721-approve}."
      },
      "balanceOf(address)": {
        "details": "See {IERC721-balanceOf}."
      },
      "getApproved(uint256)": {
        "details": "See {IERC721-getApproved}."
      },
      "isApprovedForAll(address,address)": {
        "details": "See {IERC721-isApprovedForAll}."
      },
      "name()": {
        "details": "See {IERC721Metadata-name}."
      },
      "ownerOf(uint256)": {
        "details": "See {IERC721-ownerOf}."
      },
      "safeTransferFrom(address,address,uint256)": {
        "details": "See {IERC721-safeTransferFrom}."
      },
      "safeTransferFrom(address,address,uint256,bytes)": {
        "details": "See {IERC721-safeTransferFrom}."
      },
      "setApprovalForAll(address,bool)": {
        "details": "See {IERC721-setApprovalForAll}."
      },
      "supportsInterface(bytes4)": {
        "details": "See {IERC165-supportsInterface}."
      },
      "symbol()": {
        "details": "See {IERC721Metadata-symbol}."
      },
      "tokenURI(uint256)": {
        "details": "See {IERC721Metadata-tokenURI}."
      },
      "transferFrom(address,address,uint256)": {
        "details": "See {IERC721-transferFrom}."
      }
    },
    "version": 1
  },
  "userdoc": {
    "kind": "user",
    "methods": {},
    "version": 1
  }
}