{
  "contractName": "RugbyDAUToken",
  "abi": [
    {
      "inputs": [],
      "stateMutability": "nonpayable",
      "type": "constructor"
    },
    {
      "anonymous": false,
      "inputs": [
        {
          "indexed": true,
          "internalType": "address",
          "name": "owner",
          "type": "address"
        },
        {
          "indexed": true,
          "internalType": "address",
          "name": "approved",
          "type": "address"
        },
        {
          "indexed": true,
          "internalType": "uint256",
          "name": "tokenId",
          "type": "uint256"
        }
      ],
      "name": "Approval",
      "type": "event"
    },
    {
      "anonymous": false,
      "inputs": [
        {
          "indexed": true,
          "internalType": "address",
          "name": "owner",
          "type": "address"
        },
        {
          "indexed": true,
          "internalType": "address",
          "name": "operator",
          "type": "address"
        },
        {
          "indexed": false,
          "internalType": "bool",
          "name": "approved",
          "type": "bool"
        }
      ],
      "name": "ApprovalForAll",
      "type": "event"
    },
    {
      "anonymous": false,
      "inputs": [
        {
          "indexed": true,
          "internalType": "address",
          "name": "from",
          "type": "address"
        },
        {
          "indexed": true,
          "internalType": "address",
          "name": "to",
          "type": "address"
        },
        {
          "indexed": true,
          "internalType": "uint256",
          "name": "tokenId",
          "type": "uint256"
        }
      ],
      "name": "Transfer",
      "type": "event"
    },
    {
      "inputs": [
        {
          "internalType": "address",
          "name": "to",
          "type": "address"
        },
        {
          "internalType": "uint256",
          "name": "tokenId",
          "type": "uint256"
        }
      ],
      "name": "approve",
      "outputs": [],
      "stateMutability": "nonpayable",
      "type": "function"
    },
    {
      "inputs": [
        {
          "internalType": "address",
          "name": "owner",
          "type": "address"
        }
      ],
      "name": "balanceOf",
      "outputs": [
        {
          "internalType": "uint256",
          "name": "",
          "type": "uint256"
        }
      ],
      "stateMutability": "view",
      "type": "function",
      "constant": true
    },
    {
      "inputs": [
        {
          "internalType": "uint256",
          "name": "tokenId",
          "type": "uint256"
        }
      ],
      "name": "getApproved",
      "outputs": [
        {
          "internalType": "address",
          "name": "",
          "type": "address"
        }
      ],
      "stateMutability": "view",
      "type": "function",
      "constant": true
    },
    {
      "inputs": [
        {
          "internalType": "address",
          "name": "owner",
          "type": "address"
        },
        {
          "internalType": "address",
          "name": "operator",
          "type": "address"
        }
      ],
      "name": "isApprovedForAll",
      "outputs": [
        {
          "internalType": "bool",
          "name": "",
          "type": "bool"
        }
      ],
      "stateMutability": "view",
      "type": "function",
      "constant": true
    },
    {
      "inputs": [],
      "name": "name",
      "outputs": [
        {
          "internalType": "string",
          "name": "",
          "type": "string"
        }
      ],
      "stateMutability": "view",
      "type": "function",
      "constant": true
    },
    {
      "inputs": [
        {
          "internalType": "uint256",
          "name": "tokenId",
          "type": "uint256"
        }
      ],
      "name": "ownerOf",
      "outputs": [
        {
          "internalType": "address",
          "name": "",
          "type": "address"
        }
      ],
      "stateMutability": "view",
      "type": "function",
      "constant": true
    },
    {
      "inputs": [
        {
          "internalType": "address",
          "name": "from",
          "type": "address"
        },
        {
          "internalType": "address",
          "name": "to",
          "type": "address"
        },
        {
          "internalType": "uint256",
          "name": "tokenId",
          "type": "uint256"
        }
      ],
      "name": "safeTransferFrom",
      "outputs": [],
      "stateMutability": "nonpayable",
      "type": "function"
    },
    {
      "inputs": [
        {
          "internalType": "address",
          "name": "from",
          "type": "address"
        },
        {
          "internalType": "address",
          "name": "to",
          "type": "address"
        },
        {
          "internalType": "uint256",
          "name": "tokenId",
          "type": "uint256"
        },
        {
          "internalType": "bytes",
          "name": "_data",
          "type": "bytes"
        }
      ],
      "name": "safeTransferFrom",
      "outputs": [],
      "stateMutability": "nonpayable",
      "type": "function"
    },
    {
      "inputs": [
        {
          "internalType": "address",
          "name": "operator",
          "type": "address"
        },
        {
          "internalType": "bool",
          "name": "approved",
          "type": "bool"
        }
      ],
      "name": "setApprovalForAll",
      "outputs": [],
      "stateMutability": "nonpayable",
      "type": "function"
    },
    {
      "inputs": [
        {
          "internalType": "bytes4",
          "name": "interfaceId",
          "type": "bytes4"
        }
      ],
      "name": "supportsInterface",
      "outputs": [
        {
          "internalType": "bool",
          "name": "",
          "type": "bool"
        }
      ],
      "stateMutability": "view",
      "type": "function",
      "constant": true
    },
    {
      "inputs": [],
      "name": "symbol",
      "outputs": [
        {
          "internalType": "string",
          "name": "",
          "type": "string"
        }
      ],
      "stateMutability": "view",
      "type": "function",
      "constant": true
    },
    {
      "inputs": [
        {
          "internalType": "uint256",
          "name": "tokenId",
          "type": "uint256"
        }
      ],
      "name": "tokenURI",
      "outputs": [
        {
          "internalType": "string",
          "name": "",
          "type": "string"
        }
      ],
      "stateMutability": "view",
      "type": "function",
      "constant": true
    },
    {
      "inputs": [
        {
          "internalType": "address",
          "name": "from",
          "type": "address"
        },
        {
          "internalType": "address",
          "name": "to",
          "type": "address"
        },
        {
          "internalType": "uint256",
          "name": "tokenId",
          "type": "uint256"
        }
      ],
      "name": "transferFrom",
      "outputs": [],
      "stateMutability": "nonpayable",
      "type": "function"
    },
    {
      "inputs": [
        {
          "internalType": "address",
          "name": "_creator",
          "type": "address"
        }
      ],
      "name": "setMinter",
      "outputs": [],
      "stateMutability": "nonpayable",
      "type": "function"
    },
    {
      "inputs": [
        {
          "internalType": "address",
          "name": "_creator",
          "type": "address"
        }
      ],
      "name": "revokeMinter",
      "outputs": [],
      "stateMutability": "nonpayable",
      "type": "function"
    },
    {
      "inputs": [
        {
          "internalType": "address",
          "name": "_creator",
          "type": "address"
        }
      ],
      "name": "isMinter",
      "outputs": [
        {
          "internalType": "bool",
          "name": "",
          "type": "bool"
        }
      ],
      "stateMutability": "view",
      "type": "function",
      "constant": true
    },
    {
      "inputs": [
        {
          "internalType": "string",
          "name": "_hash",
          "type": "string"
        },
        {
          "internalType": "string",
          "name": "_fileName",
          "type": "string"
        },
        {
          "internalType": "string",
          "name": "_fileType",
          "type": "string"
        },
        {
          "internalType": "uint256",
          "name": "_date",
          "type": "uint256"
        }
      ],
      "name": "add",
      "outputs": [],
      "stateMutability": "nonpayable",
      "type": "function"
    },
    {
      "inputs": [
        {
          "internalType": "uint256",
          "name": "_index",
          "type": "uint256"
        },
        {
          "internalType": "uint256",
          "name": "_tokenId",
          "type": "uint256"
        },
        {
          "internalType": "address",
          "name": "_to",
          "type": "address"
        }
      ],
      "name": "transferRGBY",
      "outputs": [],
      "stateMutability": "nonpayable",
      "type": "function"
    },
    {
      "inputs": [
        {
          "internalType": "uint256",
          "name": "_index",
          "type": "uint256"
        }
      ],
      "name": "getFile",
      "outputs": [
        {
          "components": [
            {
              "internalType": "uint256",
              "name": "id",
              "type": "uint256"
            },
            {
              "internalType": "string",
              "name": "hash",
              "type": "string"
            },
            {
              "internalType": "string",
              "name": "fileName",
              "type": "string"
            },
            {
              "internalType": "string",
              "name": "fileType",
              "type": "string"
            },
            {
              "internalType": "uint256",
              "name": "date",
              "type": "uint256"
            },
            {
              "internalType": "bool",
              "name": "wasAdded",
              "type": "bool"
            }
          ],
          "internalType": "struct RugbyDAUToken.File",
          "name": "",
          "type": "tuple"
        }
      ],
      "stateMutability": "view",
      "type": "function",
      "constant": true
    },
    {
      "inputs": [],
      "name": "getLength",
      "outputs": [
        {
          "internalType": "uint256",
          "name": "",
          "type": "uint256"
        }
      ],
      "stateMutability": "view",
      "type": "function",
      "constant": true
    },
    {
      "inputs": [
        {
          "internalType": "uint256",
          "name": "_index",
          "type": "uint256"
        }
      ],
      "name": "getMarketFile",
      "outputs": [
        {
          "components": [
            {
              "internalType": "uint256",
              "name": "id",
              "type": "uint256"
            },
            {
              "internalType": "string",
              "name": "hash",
              "type": "string"
            },
            {
              "internalType": "string",
              "name": "fileName",
              "type": "string"
            },
            {
              "internalType": "string",
              "name": "fileType",
              "type": "string"
            },
            {
              "internalType": "uint256",
              "name": "date",
              "type": "uint256"
            },
            {
              "internalType": "bool",
              "name": "wasAdded",
              "type": "bool"
            }
          ],
          "internalType": "struct RugbyDAUToken.File",
          "name": "",
          "type": "tuple"
        }
      ],
      "stateMutability": "view",
      "type": "function",
      "constant": true
    },
    {
      "inputs": [],
      "name": "getMarketLength",
      "outputs": [
        {
          "internalType": "uint256",
          "name": "",
          "type": "uint256"
        }
      ],
      "stateMutability": "view",
      "type": "function",
      "constant": true
    }
  ],
  "bytecode": "0x60806040523480156200001157600080fd5b506040518060400160405280600881526020017f52756762794441550000000000000000000000000000000000000000000000008152506040518060400160405280600481526020017f52474259000000000000000000000000000000000000000000000000000000008152508160009080519060200190620000969291906200021a565b508060019080519060200190620000af9291906200021a565b50505033600860006101000a81548173ffffffffffffffffffffffffffffffffffffffff021916908373ffffffffffffffffffffffffffffffffffffffff16021790555062000126600860009054906101000a900473ffffffffffffffffffffffffffffffffffffffff166200012c60201b60201c565b620003d8565b600860009054906101000a900473ffffffffffffffffffffffffffffffffffffffff1673ffffffffffffffffffffffffffffffffffffffff163273ffffffffffffffffffffffffffffffffffffffff1614620001bf576040517f08c379a0000000000000000000000000000000000000000000000000000000008152600401620001b690620002f1565b60405180910390fd5b6001600a60008373ffffffffffffffffffffffffffffffffffffffff1673ffffffffffffffffffffffffffffffffffffffff16815260200190815260200160002060006101000a81548160ff02191690831515021790555050565b828054620002289062000324565b90600052602060002090601f0160209004810192826200024c576000855562000298565b82601f106200026757805160ff191683800117855562000298565b8280016001018555821562000298579182015b82811115620002975782518255916020019190600101906200027a565b5b509050620002a79190620002ab565b5090565b5b80821115620002c6576000816000905550600101620002ac565b5090565b6000620002d960298362000313565b9150620002e68262000389565b604082019050919050565b600060208201905081810360008301526200030c81620002ca565b9050919050565b600082825260208201905092915050565b600060028204905060018216806200033d57607f821691505b602082108114156200035457620003536200035a565b5b50919050565b7f4e487b7100000000000000000000000000000000000000000000000000000000600052602260045260246000fd5b7f4f6e6c7920746865206f776e6572206861732061636365737320746f2074686960008201527f7320666561747572650000000000000000000000000000000000000000000000602082015250565b6153b680620003e86000396000f3fe608060405234801561001057600080fd5b50600436106101425760003560e01c806370a08231116100b8578063b88d4fde1161007c578063b88d4fde14610399578063be1c766b146103b5578063c87b56dd146103d3578063cfbd488514610403578063e985e9c51461041f578063fca3b5aa1461044f57610142565b806370a08231146102e15780637c56c5b01461031157806395d89b411461032f578063a22cb4651461034d578063aa271e1a1461036957610142565b806323b872dd1161010a57806323b872dd146101fd5780632bfda313146102195780633f647a971461024957806342842e0e146102655780634b809ab0146102815780636352211e146102b157610142565b80630102ed321461014757806301ffc9a71461016357806306fdde0314610193578063081812fc146101b1578063095ea7b3146101e1575b600080fd5b610161600480360381019061015c9190614147565b61046b565b005b61017d60048036038101906101789190614005565b611175565b60405161018a919061467c565b60405180910390f35b61019b611257565b6040516101a89190614697565b60405180910390f35b6101cb60048036038101906101c6919061411a565b6112e9565b6040516101d89190614615565b60405180910390f35b6101fb60048036038101906101f69190613fc5565b61136e565b005b61021760048036038101906102129190613eaf565b611486565b005b610233600480360381019061022e919061411a565b6114e6565b6040516102409190614919565b60405180910390f35b610263600480360381019061025e919061405f565b611744565b005b61027f600480360381019061027a9190613eaf565b612271565b005b61029b6004803603810190610296919061411a565b612291565b6040516102a89190614919565b60405180910390f35b6102cb60048036038101906102c6919061411a565b612511565b6040516102d89190614615565b60405180910390f35b6102fb60048036038101906102f69190613e42565b6125c3565b604051610308919061493b565b60405180910390f35b61031961267b565b604051610326919061493b565b60405180910390f35b6103376126e7565b6040516103449190614697565b60405180910390f35b61036760048036038101906103629190613f85565b612779565b005b610383600480360381019061037e9190613e42565b6128fa565b604051610390919061467c565b60405180910390f35b6103b360048036038101906103ae9190613f02565b612950565b005b6103bd6129b2565b6040516103ca919061493b565b60405180910390f35b6103ed60048036038101906103e8919061411a565b6129fc565b6040516103fa9190614697565b60405180910390f35b61041d60048036038101906104189190613e42565b612b4e565b005b61043960048036038101906104349190613e6f565b612c39565b604051610446919061467c565b60405180910390f35b61046960048036038101906104649190613e42565b612ccd565b005b6104753383612db8565b6104b4576040517f08c379a00000000000000000000000000000000000000000000000000000000081526004016104ab906148d9565b60405180910390fd5b6104bf338284612e96565b6000600760003373ffffffffffffffffffffffffffffffffffffffff1673ffffffffffffffffffffffffffffffffffffffff168152602001908152602001600020848154811061051257610511614d36565b5b90600052602060002090600602016040518060c00160405290816000820154815260200160018201805461054590614bcc565b80601f016020809104026020016040519081016040528092919081815260200182805461057190614bcc565b80156105be5780601f10610593576101008083540402835291602001916105be565b820191906000526020600020905b8154815290600101906020018083116105a157829003601f168201915b505050505081526020016002820180546105d790614bcc565b80601f016020809104026020016040519081016040528092919081815260200182805461060390614bcc565b80156106505780601f1061062557610100808354040283529160200191610650565b820191906000526020600020905b81548152906001019060200180831161063357829003601f168201915b5050505050815260200160038201805461066990614bcc565b80601f016020809104026020016040519081016040528092919081815260200182805461069590614bcc565b80156106e25780601f106106b7576101008083540402835291602001916106e2565b820191906000526020600020905b8154815290600101906020018083116106c557829003601f168201915b50505050508152602001600482015481526020016005820160009054906101000a900460ff16151515158152505090506000600760008473ffffffffffffffffffffffffffffffffffffffff1673ffffffffffffffffffffffffffffffffffffffff16815260200190815260200160002080549050141561085857600760008373ffffffffffffffffffffffffffffffffffffffff1673ffffffffffffffffffffffffffffffffffffffff1681526020019081526020016000208190806001815401808255809150506001900390600052602060002090600602016000909190919091506000820151816000015560208201518160010190805190602001906107ec929190613b51565b506040820151816002019080519060200190610809929190613b51565b506060820151816003019080519060200190610826929190613b51565b506080820151816004015560a08201518160050160006101000a81548160ff0219169083151502179055505050611123565b6000600760008473ffffffffffffffffffffffffffffffffffffffff1673ffffffffffffffffffffffffffffffffffffffff1681526020019081526020016000208054905090506000600760008573ffffffffffffffffffffffffffffffffffffffff1673ffffffffffffffffffffffffffffffffffffffff1681526020019081526020016000206001836108ed9190614ab8565b815481106108fe576108fd614d36565b5b90600052602060002090600602016040518060c00160405290816000820154815260200160018201805461093190614bcc565b80601f016020809104026020016040519081016040528092919081815260200182805461095d90614bcc565b80156109aa5780601f1061097f576101008083540402835291602001916109aa565b820191906000526020600020905b81548152906001019060200180831161098d57829003601f168201915b505050505081526020016002820180546109c390614bcc565b80601f01602080910402602001604051908101604052809291908181526020018280546109ef90614bcc565b8015610a3c5780601f10610a1157610100808354040283529160200191610a3c565b820191906000526020600020905b815481529060010190602001808311610a1f57829003601f168201915b50505050508152602001600382018054610a5590614bcc565b80601f0160208091040260200160405190810160405280929190818152602001828054610a8190614bcc565b8015610ace5780601f10610aa357610100808354040283529160200191610ace565b820191906000526020600020905b815481529060010190602001808311610ab157829003601f168201915b50505050508152602001600482015481526020016005820160009054906101000a900460ff16151515158152505090508060a00151611029575b8060a00151158015610b1b575060018210155b15610d9057600760008573ffffffffffffffffffffffffffffffffffffffff1673ffffffffffffffffffffffffffffffffffffffff168152602001908152602001600020600183610b6c9190614ab8565b81548110610b7d57610b7c614d36565b5b90600052602060002090600602016040518060c001604052908160008201548152602001600182018054610bb090614bcc565b80601f0160208091040260200160405190810160405280929190818152602001828054610bdc90614bcc565b8015610c295780601f10610bfe57610100808354040283529160200191610c29565b820191906000526020600020905b815481529060010190602001808311610c0c57829003601f168201915b50505050508152602001600282018054610c4290614bcc565b80601f0160208091040260200160405190810160405280929190818152602001828054610c6e90614bcc565b8015610cbb5780601f10610c9057610100808354040283529160200191610cbb565b820191906000526020600020905b815481529060010190602001808311610c9e57829003601f168201915b50505050508152602001600382018054610cd490614bcc565b80601f0160208091040260200160405190810160405280929190818152602001828054610d0090614bcc565b8015610d4d5780601f10610d2257610100808354040283529160200191610d4d565b820191906000526020600020905b815481529060010190602001808311610d3057829003601f168201915b50505050508152602001600482015481526020016005820160009054906101000a900460ff16151515158152505090508180610d8890614ba2565b925050610b08565b600082148015610e30575060076000600860009054906101000a900473ffffffffffffffffffffffffffffffffffffffff1673ffffffffffffffffffffffffffffffffffffffff1673ffffffffffffffffffffffffffffffffffffffff168152602001908152602001600020600081548110610e0f57610e0e614d36565b5b906000526020600020906006020160050160009054906101000a900460ff16155b15610f295782600760008673ffffffffffffffffffffffffffffffffffffffff1673ffffffffffffffffffffffffffffffffffffffff168152602001908152602001600020600081548110610e8857610e87614d36565b5b9060005260206000209060060201600082015181600001556020820151816001019080519060200190610ebc929190613b51565b506040820151816002019080519060200190610ed9929190613b51565b506060820151816003019080519060200190610ef6929190613b51565b506080820151816004015560a08201518160050160006101000a81548160ff021916908315150217905550905050611024565b82600760008673ffffffffffffffffffffffffffffffffffffffff1673ffffffffffffffffffffffffffffffffffffffff168152602001908152602001600020600184610f769190614a31565b81548110610f8757610f86614d36565b5b9060005260206000209060060201600082015181600001556020820151816001019080519060200190610fbb929190613b51565b506040820151816002019080519060200190610fd8929190613b51565b506060820151816003019080519060200190610ff5929190613b51565b506080820151816004015560a08201518160050160006101000a81548160ff0219169083151502179055509050505b611120565b600760008573ffffffffffffffffffffffffffffffffffffffff1673ffffffffffffffffffffffffffffffffffffffff1681526020019081526020016000208390806001815401808255809150506001900390600052602060002090600602016000909190919091506000820151816000015560208201518160010190805190602001906110b8929190613b51565b5060408201518160020190805190602001906110d5929190613b51565b5060608201518160030190805190602001906110f2929190613b51565b506080820151816004015560a08201518160050160006101000a81548160ff02191690831515021790555050505b50505b61116f84600760003373ffffffffffffffffffffffffffffffffffffffff1673ffffffffffffffffffffffffffffffffffffffff168152602001908152602001600020805490506130f2565b50505050565b60007f80ac58cd000000000000000000000000000000000000000000000000000000007bffffffffffffffffffffffffffffffffffffffffffffffffffffffff1916827bffffffffffffffffffffffffffffffffffffffffffffffffffffffff1916148061124057507f5b5e139f000000000000000000000000000000000000000000000000000000007bffffffffffffffffffffffffffffffffffffffffffffffffffffffff1916827bffffffffffffffffffffffffffffffffffffffffffffffffffffffff1916145b80611250575061124f82613328565b5b9050919050565b60606000805461126690614bcc565b80601f016020809104026020016040519081016040528092919081815260200182805461129290614bcc565b80156112df5780601f106112b4576101008083540402835291602001916112df565b820191906000526020600020905b8154815290600101906020018083116112c257829003601f168201915b5050505050905090565b60006112f482613392565b611333576040517f08c379a000000000000000000000000000000000000000000000000000000000815260040161132a90614859565b60405180910390fd5b6004600083815260200190815260200160002060009054906101000a900473ffffffffffffffffffffffffffffffffffffffff169050919050565b600061137982612511565b90508073ffffffffffffffffffffffffffffffffffffffff168373ffffffffffffffffffffffffffffffffffffffff1614156113ea576040517f08c379a00000000000000000000000000000000000000000000000000000000081526004016113e1906148b9565b60405180910390fd5b8073ffffffffffffffffffffffffffffffffffffffff166114096133fe565b73ffffffffffffffffffffffffffffffffffffffff1614806114385750611437816114326133fe565b612c39565b5b611477576040517f08c379a000000000000000000000000000000000000000000000000000000000815260040161146e90614799565b60405180910390fd5b6114818383613406565b505050565b6114976114916133fe565b82612db8565b6114d6576040517f08c379a00000000000000000000000000000000000000000000000000000000081526004016114cd906148f9565b60405180910390fd5b6114e1838383612e96565b505050565b6114ee613bd7565b600760003373ffffffffffffffffffffffffffffffffffffffff1673ffffffffffffffffffffffffffffffffffffffff168152602001908152602001600020828154811061153f5761153e614d36565b5b90600052602060002090600602016040518060c00160405290816000820154815260200160018201805461157290614bcc565b80601f016020809104026020016040519081016040528092919081815260200182805461159e90614bcc565b80156115eb5780601f106115c0576101008083540402835291602001916115eb565b820191906000526020600020905b8154815290600101906020018083116115ce57829003601f168201915b5050505050815260200160028201805461160490614bcc565b80601f016020809104026020016040519081016040528092919081815260200182805461163090614bcc565b801561167d5780601f106116525761010080835404028352916020019161167d565b820191906000526020600020905b81548152906001019060200180831161166057829003601f168201915b5050505050815260200160038201805461169690614bcc565b80601f01602080910402602001604051908101604052809291908181526020018280546116c290614bcc565b801561170f5780601f106116e45761010080835404028352916020019161170f565b820191906000526020600020905b8154815290600101906020018083116116f257829003601f168201915b50505050508152602001600482015481526020016005820160009054906101000a900460ff1615151515815250509050919050565b61174d336128fa565b61178c576040517f08c379a0000000000000000000000000000000000000000000000000000000008152600401611783906146b9565b60405180910390fd5b6009600081548092919061179f90614c2f565b9190505550600060095490506117b533826134bf565b6117bf818661368d565b6000600760003373ffffffffffffffffffffffffffffffffffffffff1673ffffffffffffffffffffffffffffffffffffffff16815260200190815260200160002080549050141561193457600760003373ffffffffffffffffffffffffffffffffffffffff1673ffffffffffffffffffffffffffffffffffffffff1681526020019081526020016000206040518060c001604052808381526020018781526020018681526020018581526020018481526020016001151581525090806001815401808255809150506001900390600052602060002090600602016000909190919091506000820151816000015560208201518160010190805190602001906118c8929190613b51565b5060408201518160020190805190602001906118e5929190613b51565b506060820151816003019080519060200190611902929190613b51565b506080820151816004015560a08201518160050160006101000a81548160ff021916908315150217905550505061226a565b6000600760003373ffffffffffffffffffffffffffffffffffffffff1673ffffffffffffffffffffffffffffffffffffffff1681526020019081526020016000208054905090506000600760003373ffffffffffffffffffffffffffffffffffffffff1673ffffffffffffffffffffffffffffffffffffffff1681526020019081526020016000206001836119c99190614ab8565b815481106119da576119d9614d36565b5b90600052602060002090600602016040518060c001604052908160008201548152602001600182018054611a0d90614bcc565b80601f0160208091040260200160405190810160405280929190818152602001828054611a3990614bcc565b8015611a865780601f10611a5b57610100808354040283529160200191611a86565b820191906000526020600020905b815481529060010190602001808311611a6957829003601f168201915b50505050508152602001600282018054611a9f90614bcc565b80601f0160208091040260200160405190810160405280929190818152602001828054611acb90614bcc565b8015611b185780601f10611aed57610100808354040283529160200191611b18565b820191906000526020600020905b815481529060010190602001808311611afb57829003601f168201915b50505050508152602001600382018054611b3190614bcc565b80601f0160208091040260200160405190810160405280929190818152602001828054611b5d90614bcc565b8015611baa5780601f10611b7f57610100808354040283529160200191611baa565b820191906000526020600020905b815481529060010190602001808311611b8d57829003601f168201915b50505050508152602001600482015481526020016005820160009054906101000a900460ff16151515158152505090508060a00151612141575b8060a00151158015611bf7575060018210155b15611e6c57600760003373ffffffffffffffffffffffffffffffffffffffff1673ffffffffffffffffffffffffffffffffffffffff168152602001908152602001600020600183611c489190614ab8565b81548110611c5957611c58614d36565b5b90600052602060002090600602016040518060c001604052908160008201548152602001600182018054611c8c90614bcc565b80601f0160208091040260200160405190810160405280929190818152602001828054611cb890614bcc565b8015611d055780601f10611cda57610100808354040283529160200191611d05565b820191906000526020600020905b815481529060010190602001808311611ce857829003601f168201915b50505050508152602001600282018054611d1e90614bcc565b80601f0160208091040260200160405190810160405280929190818152602001828054611d4a90614bcc565b8015611d975780601f10611d6c57610100808354040283529160200191611d97565b820191906000526020600020905b815481529060010190602001808311611d7a57829003601f168201915b50505050508152602001600382018054611db090614bcc565b80601f0160208091040260200160405190810160405280929190818152602001828054611ddc90614bcc565b8015611e295780601f10611dfe57610100808354040283529160200191611e29565b820191906000526020600020905b815481529060010190602001808311611e0c57829003601f168201915b50505050508152602001600482015481526020016005820160009054906101000a900460ff16151515158152505090508180611e6490614ba2565b925050611be4565b600082148015611eea5750600760003373ffffffffffffffffffffffffffffffffffffffff1673ffffffffffffffffffffffffffffffffffffffff168152602001908152602001600020600081548110611ec957611ec8614d36565b5b906000526020600020906006020160050160009054906101000a900460ff16155b15612012576040518060c0016040528084815260200188815260200187815260200186815260200185815260200160011515815250600760003373ffffffffffffffffffffffffffffffffffffffff1673ffffffffffffffffffffffffffffffffffffffff168152602001908152602001600020600081548110611f7157611f70614d36565b5b9060005260206000209060060201600082015181600001556020820151816001019080519060200190611fa5929190613b51565b506040820151816002019080519060200190611fc2929190613b51565b506060820151816003019080519060200190611fdf929190613b51565b506080820151816004015560a08201518160050160006101000a81548160ff02191690831515021790555090505061213c565b6040518060c0016040528084815260200188815260200187815260200186815260200185815260200160011515815250600760003373ffffffffffffffffffffffffffffffffffffffff1673ffffffffffffffffffffffffffffffffffffffff16815260200190815260200160002060018461208e9190614a31565b8154811061209f5761209e614d36565b5b90600052602060002090600602016000820151816000015560208201518160010190805190602001906120d3929190613b51565b5060408201518160020190805190602001906120f0929190613b51565b50606082015181600301908051906020019061210d929190613b51565b506080820151816004015560a08201518160050160006101000a81548160ff0219169083151502179055509050505b612267565b600760003373ffffffffffffffffffffffffffffffffffffffff1673ffffffffffffffffffffffffffffffffffffffff1681526020019081526020016000206040518060c001604052808581526020018981526020018881526020018781526020018681526020016001151581525090806001815401808255809150506001900390600052602060002090600602016000909190919091506000820151816000015560208201518160010190805190602001906121ff929190613b51565b50604082015181600201908051906020019061221c929190613b51565b506060820151816003019080519060200190612239929190613b51565b506080820151816004015560a08201518160050160006101000a81548160ff02191690831515021790555050505b50505b5050505050565b61228c83838360405180602001604052806000815250612950565b505050565b612299613bd7565b60076000600860009054906101000a900473ffffffffffffffffffffffffffffffffffffffff1673ffffffffffffffffffffffffffffffffffffffff1673ffffffffffffffffffffffffffffffffffffffff168152602001908152602001600020828154811061230c5761230b614d36565b5b90600052602060002090600602016040518060c00160405290816000820154815260200160018201805461233f90614bcc565b80601f016020809104026020016040519081016040528092919081815260200182805461236b90614bcc565b80156123b85780601f1061238d576101008083540402835291602001916123b8565b820191906000526020600020905b81548152906001019060200180831161239b57829003601f168201915b505050505081526020016002820180546123d190614bcc565b80601f01602080910402602001604051908101604052809291908181526020018280546123fd90614bcc565b801561244a5780601f1061241f5761010080835404028352916020019161244a565b820191906000526020600020905b81548152906001019060200180831161242d57829003601f168201915b5050505050815260200160038201805461246390614bcc565b80601f016020809104026020016040519081016040528092919081815260200182805461248f90614bcc565b80156124dc5780601f106124b1576101008083540402835291602001916124dc565b820191906000526020600020905b8154815290600101906020018083116124bf57829003601f168201915b50505050508152602001600482015481526020016005820160009054906101000a900460ff1615151515815250509050919050565b6000806002600084815260200190815260200160002060009054906101000a900473ffffffffffffffffffffffffffffffffffffffff169050600073ffffffffffffffffffffffffffffffffffffffff168173ffffffffffffffffffffffffffffffffffffffff1614156125ba576040517f08c379a00000000000000000000000000000000000000000000000000000000081526004016125b1906147d9565b60405180910390fd5b80915050919050565b60008073ffffffffffffffffffffffffffffffffffffffff168273ffffffffffffffffffffffffffffffffffffffff161415612634576040517f08c379a000000000000000000000000000000000000000000000000000000000815260040161262b906147b9565b60405180910390fd5b600360008373ffffffffffffffffffffffffffffffffffffffff1673ffffffffffffffffffffffffffffffffffffffff168152602001908152602001600020549050919050565b600060076000600860009054906101000a900473ffffffffffffffffffffffffffffffffffffffff1673ffffffffffffffffffffffffffffffffffffffff1673ffffffffffffffffffffffffffffffffffffffff16815260200190815260200160002080549050905090565b6060600180546126f690614bcc565b80601f016020809104026020016040519081016040528092919081815260200182805461272290614bcc565b801561276f5780601f106127445761010080835404028352916020019161276f565b820191906000526020600020905b81548152906001019060200180831161275257829003601f168201915b5050505050905090565b6127816133fe565b73ffffffffffffffffffffffffffffffffffffffff168273ffffffffffffffffffffffffffffffffffffffff1614156127ef576040517f08c379a00000000000000000000000000000000000000000000000000000000081526004016127e690614739565b60405180910390fd5b80600560006127fc6133fe565b73ffffffffffffffffffffffffffffffffffffffff1673ffffffffffffffffffffffffffffffffffffffff16815260200190815260200160002060008473ffffffffffffffffffffffffffffffffffffffff1673ffffffffffffffffffffffffffffffffffffffff16815260200190815260200160002060006101000a81548160ff0219169083151502179055508173ffffffffffffffffffffffffffffffffffffffff166128a96133fe565b73ffffffffffffffffffffffffffffffffffffffff167f17307eab39ab6107e8899845ad3d59bd9653f200f220920489ca2b5937696c31836040516128ee919061467c565b60405180910390a35050565b6000600a60008373ffffffffffffffffffffffffffffffffffffffff1673ffffffffffffffffffffffffffffffffffffffff16815260200190815260200160002060009054906101000a900460ff169050919050565b61296161295b6133fe565b83612db8565b6129a0576040517f08c379a0000000000000000000000000000000000000000000000000000000008152600401612997906148f9565b60405180910390fd5b6129ac84848484613701565b50505050565b6000600760003373ffffffffffffffffffffffffffffffffffffffff1673ffffffffffffffffffffffffffffffffffffffff16815260200190815260200160002080549050905090565b6060612a0782613392565b612a46576040517f08c379a0000000000000000000000000000000000000000000000000000000008152600401612a3d90614839565b60405180910390fd5b6000600660008481526020019081526020016000208054612a6690614bcc565b80601f0160208091040260200160405190810160405280929190818152602001828054612a9290614bcc565b8015612adf5780601f10612ab457610100808354040283529160200191612adf565b820191906000526020600020905b815481529060010190602001808311612ac257829003601f168201915b505050505090506000612af061375d565b9050600081511415612b06578192505050612b49565b600082511115612b3b578082604051602001612b239291906145f1565b60405160208183030381529060405292505050612b49565b612b448461379a565b925050505b919050565b600860009054906101000a900473ffffffffffffffffffffffffffffffffffffffff1673ffffffffffffffffffffffffffffffffffffffff163273ffffffffffffffffffffffffffffffffffffffff1614612bde576040517f08c379a0000000000000000000000000000000000000000000000000000000008152600401612bd590614759565b60405180910390fd5b6000600a60008373ffffffffffffffffffffffffffffffffffffffff1673ffffffffffffffffffffffffffffffffffffffff16815260200190815260200160002060006101000a81548160ff02191690831515021790555050565b6000600560008473ffffffffffffffffffffffffffffffffffffffff1673ffffffffffffffffffffffffffffffffffffffff16815260200190815260200160002060008373ffffffffffffffffffffffffffffffffffffffff1673ffffffffffffffffffffffffffffffffffffffff16815260200190815260200160002060009054906101000a900460ff16905092915050565b600860009054906101000a900473ffffffffffffffffffffffffffffffffffffffff1673ffffffffffffffffffffffffffffffffffffffff163273ffffffffffffffffffffffffffffffffffffffff1614612d5d576040517f08c379a0000000000000000000000000000000000000000000000000000000008152600401612d5490614759565b60405180910390fd5b6001600a60008373ffffffffffffffffffffffffffffffffffffffff1673ffffffffffffffffffffffffffffffffffffffff16815260200190815260200160002060006101000a81548160ff02191690831515021790555050565b6000612dc382613392565b612e02576040517f08c379a0000000000000000000000000000000000000000000000000000000008152600401612df990614779565b60405180910390fd5b6000612e0d83612511565b90508073ffffffffffffffffffffffffffffffffffffffff168473ffffffffffffffffffffffffffffffffffffffff161480612e7c57508373ffffffffffffffffffffffffffffffffffffffff16612e64846112e9565b73ffffffffffffffffffffffffffffffffffffffff16145b80612e8d5750612e8c8185612c39565b5b91505092915050565b8273ffffffffffffffffffffffffffffffffffffffff16612eb682612511565b73ffffffffffffffffffffffffffffffffffffffff1614612f0c576040517f08c379a0000000000000000000000000000000000000000000000000000000008152600401612f0390614879565b60405180910390fd5b600073ffffffffffffffffffffffffffffffffffffffff168273ffffffffffffffffffffffffffffffffffffffff161415612f7c576040517f08c379a0000000000000000000000000000000000000000000000000000000008152600401612f7390614719565b60405180910390fd5b612f87838383613841565b612f92600082613406565b6001600360008573ffffffffffffffffffffffffffffffffffffffff1673ffffffffffffffffffffffffffffffffffffffff1681526020019081526020016000206000828254612fe29190614ab8565b925050819055506001600360008473ffffffffffffffffffffffffffffffffffffffff1673ffffffffffffffffffffffffffffffffffffffff16815260200190815260200160002060008282546130399190614a31565b92505081905550816002600083815260200190815260200160002060006101000a81548173ffffffffffffffffffffffffffffffffffffffff021916908373ffffffffffffffffffffffffffffffffffffffff160217905550808273ffffffffffffffffffffffffffffffffffffffff168473ffffffffffffffffffffffffffffffffffffffff167fddf252ad1be2c89b69c2b068fc378daa952ba7f163c4a11628f55a4df523b3ef60405160405180910390a4505050565b60006001826131019190614ab8565b905080831461326d57600760003373ffffffffffffffffffffffffffffffffffffffff1673ffffffffffffffffffffffffffffffffffffffff168152602001908152602001600020818154811061315b5761315a614d36565b5b9060005260206000209060060201600760003373ffffffffffffffffffffffffffffffffffffffff1673ffffffffffffffffffffffffffffffffffffffff16815260200190815260200160002084815481106131ba576131b9614d36565b5b90600052602060002090600602016000820154816000015560018201816001019080546131e690614bcc565b6131f1929190613c0f565b50600282018160020190805461320690614bcc565b613211929190613c0f565b50600382018160030190805461322690614bcc565b613231929190613c0f565b50600482015481600401556005820160009054906101000a900460ff168160050160006101000a81548160ff0219169083151502179055509050505b600760003373ffffffffffffffffffffffffffffffffffffffff1673ffffffffffffffffffffffffffffffffffffffff16815260200190815260200160002081815481106132be576132bd614d36565b5b90600052602060002090600602016000808201600090556001820160006132e59190613c9c565b6002820160006132f59190613c9c565b6003820160006133059190613c9c565b60048201600090556005820160006101000a81549060ff02191690555050505050565b60007f01ffc9a7000000000000000000000000000000000000000000000000000000007bffffffffffffffffffffffffffffffffffffffffffffffffffffffff1916827bffffffffffffffffffffffffffffffffffffffffffffffffffffffff1916149050919050565b60008073ffffffffffffffffffffffffffffffffffffffff166002600084815260200190815260200160002060009054906101000a900473ffffffffffffffffffffffffffffffffffffffff1673ffffffffffffffffffffffffffffffffffffffff1614159050919050565b600033905090565b816004600083815260200190815260200160002060006101000a81548173ffffffffffffffffffffffffffffffffffffffff021916908373ffffffffffffffffffffffffffffffffffffffff160217905550808273ffffffffffffffffffffffffffffffffffffffff1661347983612511565b73ffffffffffffffffffffffffffffffffffffffff167f8c5be1e5ebec7d5bd14f71427d1e84f3dd0314c0f7b2291e5b200ac8c7c3b92560405160405180910390a45050565b600073ffffffffffffffffffffffffffffffffffffffff168273ffffffffffffffffffffffffffffffffffffffff16141561352f576040517f08c379a000000000000000000000000000000000000000000000000000000000815260040161352690614819565b60405180910390fd5b61353881613392565b15613578576040517f08c379a000000000000000000000000000000000000000000000000000000000815260040161356f906146f9565b60405180910390fd5b61358460008383613841565b6001600360008473ffffffffffffffffffffffffffffffffffffffff1673ffffffffffffffffffffffffffffffffffffffff16815260200190815260200160002060008282546135d49190614a31565b92505081905550816002600083815260200190815260200160002060006101000a81548173ffffffffffffffffffffffffffffffffffffffff021916908373ffffffffffffffffffffffffffffffffffffffff160217905550808273ffffffffffffffffffffffffffffffffffffffff16600073ffffffffffffffffffffffffffffffffffffffff167fddf252ad1be2c89b69c2b068fc378daa952ba7f163c4a11628f55a4df523b3ef60405160405180910390a45050565b61369682613392565b6136d5576040517f08c379a00000000000000000000000000000000000000000000000000000000081526004016136cc906147f9565b60405180910390fd5b806006600084815260200190815260200160002090805190602001906136fc929190613b51565b505050565b61370c848484612e96565b61371884848484613846565b613757576040517f08c379a000000000000000000000000000000000000000000000000000000000815260040161374e906146d9565b60405180910390fd5b50505050565b60606040518060400160405280601581526020017f68747470733a2f2f697066732e696f2f697066732f0000000000000000000000815250905090565b60606137a582613392565b6137e4576040517f08c379a00000000000000000000000000000000000000000000000000000000081526004016137db90614899565b60405180910390fd5b60006137ee61375d565b9050600081511161380e5760405180602001604052806000815250613839565b80613818846139dd565b6040516020016138299291906145f1565b6040516020818303038152906040525b915050919050565b505050565b60006138678473ffffffffffffffffffffffffffffffffffffffff16613b3e565b156139d0578373ffffffffffffffffffffffffffffffffffffffff1663150b7a026138906133fe565b8786866040518563ffffffff1660e01b81526004016138b29493929190614630565b602060405180830381600087803b1580156138cc57600080fd5b505af19250505080156138fd57506040513d601f19601f820116820180604052508101906138fa9190614032565b60015b613980573d806000811461392d576040519150601f19603f3d011682016040523d82523d6000602084013e613932565b606091505b50600081511415613978576040517f08c379a000000000000000000000000000000000000000000000000000000000815260040161396f906146d9565b60405180910390fd5b805181602001fd5b63150b7a0260e01b7bffffffffffffffffffffffffffffffffffffffffffffffffffffffff1916817bffffffffffffffffffffffffffffffffffffffffffffffffffffffff1916149150506139d5565b600190505b949350505050565b60606000821415613a25576040518060400160405280600181526020017f30000000000000000000000000000000000000000000000000000000000000008152509050613b39565b600082905060005b60008214613a57578080613a4090614c2f565b915050600a82613a509190614a87565b9150613a2d565b60008167ffffffffffffffff811115613a7357613a72614d65565b5b6040519080825280601f01601f191660200182016040528015613aa55781602001600182028036833780820191505090505b5090505b60008514613b3257600182613abe9190614ab8565b9150600a85613acd9190614c78565b6030613ad99190614a31565b60f81b818381518110613aef57613aee614d36565b5b60200101907effffffffffffffffffffffffffffffffffffffffffffffffffffffffffffff1916908160001a905350600a85613b2b9190614a87565b9450613aa9565b8093505050505b919050565b600080823b905060008111915050919050565b828054613b5d90614bcc565b90600052602060002090601f016020900481019282613b7f5760008555613bc6565b82601f10613b9857805160ff1916838001178555613bc6565b82800160010185558215613bc6579182015b82811115613bc5578251825591602001919060010190613baa565b5b509050613bd39190613cdc565b5090565b6040518060c0016040528060008152602001606081526020016060815260200160608152602001600081526020016000151581525090565b828054613c1b90614bcc565b90600052602060002090601f016020900481019282613c3d5760008555613c8b565b82601f10613c4e5780548555613c8b565b82800160010185558215613c8b57600052602060002091601f016020900482015b82811115613c8a578254825591600101919060010190613c6f565b5b509050613c989190613cdc565b5090565b508054613ca890614bcc565b6000825580601f10613cba5750613cd9565b601f016020900490600052602060002090810190613cd89190613cdc565b5b50565b5b80821115613cf5576000816000905550600101613cdd565b5090565b6000613d0c613d078461497b565b614956565b905082815260208101848484011115613d2857613d27614d99565b5b613d33848285614b60565b509392505050565b6000613d4e613d49846149ac565b614956565b905082815260208101848484011115613d6a57613d69614d99565b5b613d75848285614b60565b509392505050565b600081359050613d8c81615324565b92915050565b600081359050613da18161533b565b92915050565b600081359050613db681615352565b92915050565b600081519050613dcb81615352565b92915050565b600082601f830112613de657613de5614d94565b5b8135613df6848260208601613cf9565b91505092915050565b600082601f830112613e1457613e13614d94565b5b8135613e24848260208601613d3b565b91505092915050565b600081359050613e3c81615369565b92915050565b600060208284031215613e5857613e57614da3565b5b6000613e6684828501613d7d565b91505092915050565b60008060408385031215613e8657613e85614da3565b5b6000613e9485828601613d7d565b9250506020613ea585828601613d7d565b9150509250929050565b600080600060608486031215613ec857613ec7614da3565b5b6000613ed686828701613d7d565b9350506020613ee786828701613d7d565b9250506040613ef886828701613e2d565b9150509250925092565b60008060008060808587031215613f1c57613f1b614da3565b5b6000613f2a87828801613d7d565b9450506020613f3b87828801613d7d565b9350506040613f4c87828801613e2d565b925050606085013567ffffffffffffffff811115613f6d57613f6c614d9e565b5b613f7987828801613dd1565b91505092959194509250565b60008060408385031215613f9c57613f9b614da3565b5b6000613faa85828601613d7d565b9250506020613fbb85828601613d92565b9150509250929050565b60008060408385031215613fdc57613fdb614da3565b5b6000613fea85828601613d7d565b9250506020613ffb85828601613e2d565b9150509250929050565b60006020828403121561401b5761401a614da3565b5b600061402984828501613da7565b91505092915050565b60006020828403121561404857614047614da3565b5b600061405684828501613dbc565b91505092915050565b6000806000806080858703121561407957614078614da3565b5b600085013567ffffffffffffffff81111561409757614096614d9e565b5b6140a387828801613dff565b945050602085013567ffffffffffffffff8111156140c4576140c3614d9e565b5b6140d087828801613dff565b935050604085013567ffffffffffffffff8111156140f1576140f0614d9e565b5b6140fd87828801613dff565b925050606061410e87828801613e2d565b91505092959194509250565b6000602082840312156141305761412f614da3565b5b600061413e84828501613e2d565b91505092915050565b6000806000606084860312156141605761415f614da3565b5b600061416e86828701613e2d565b935050602061417f86828701613e2d565b925050604061419086828701613d7d565b9150509250925092565b6141a381614aec565b82525050565b6141b281614afe565b82525050565b6141c181614afe565b82525050565b60006141d2826149dd565b6141dc81856149f3565b93506141ec818560208601614b6f565b6141f581614da8565b840191505092915050565b600061420b826149e8565b6142158185614a04565b9350614225818560208601614b6f565b61422e81614da8565b840191505092915050565b6000614244826149e8565b61424e8185614a15565b935061425e818560208601614b6f565b61426781614da8565b840191505092915050565b600061427d826149e8565b6142878185614a26565b9350614297818560208601614b6f565b80840191505092915050565b60006142b0602183614a15565b91506142bb82614db9565b604082019050919050565b60006142d3603283614a15565b91506142de82614e08565b604082019050919050565b60006142f6601c83614a15565b915061430182614e57565b602082019050919050565b6000614319602483614a15565b915061432482614e80565b604082019050919050565b600061433c601983614a15565b915061434782614ecf565b602082019050919050565b600061435f602983614a15565b915061436a82614ef8565b604082019050919050565b6000614382602c83614a15565b915061438d82614f47565b604082019050919050565b60006143a5603883614a15565b91506143b082614f96565b604082019050919050565b60006143c8602a83614a15565b91506143d382614fe5565b604082019050919050565b60006143eb602983614a15565b91506143f682615034565b604082019050919050565b600061440e602e83614a15565b915061441982615083565b604082019050919050565b6000614431602083614a15565b915061443c826150d2565b602082019050919050565b6000614454603183614a15565b915061445f826150fb565b604082019050919050565b6000614477602c83614a15565b91506144828261514a565b604082019050919050565b600061449a602983614a15565b91506144a582615199565b604082019050919050565b60006144bd602f83614a15565b91506144c8826151e8565b604082019050919050565b60006144e0602183614a15565b91506144eb82615237565b604082019050919050565b6000614503602e83614a15565b915061450e82615286565b604082019050919050565b6000614526603183614a15565b9150614531826152d5565b604082019050919050565b600060c08301600083015161455460008601826145d3565b506020830151848203602086015261456c8282614200565b915050604083015184820360408601526145868282614200565b915050606083015184820360608601526145a08282614200565b91505060808301516145b560808601826145d3565b5060a08301516145c860a08601826141a9565b508091505092915050565b6145dc81614b56565b82525050565b6145eb81614b56565b82525050565b60006145fd8285614272565b91506146098284614272565b91508190509392505050565b600060208201905061462a600083018461419a565b92915050565b6000608082019050614645600083018761419a565b614652602083018661419a565b61465f60408301856145e2565b818103606083015261467181846141c7565b905095945050505050565b600060208201905061469160008301846141b8565b92915050565b600060208201905081810360008301526146b18184614239565b905092915050565b600060208201905081810360008301526146d2816142a3565b9050919050565b600060208201905081810360008301526146f2816142c6565b9050919050565b60006020820190508181036000830152614712816142e9565b9050919050565b600060208201905081810360008301526147328161430c565b9050919050565b600060208201905081810360008301526147528161432f565b9050919050565b6000602082019050818103600083015261477281614352565b9050919050565b6000602082019050818103600083015261479281614375565b9050919050565b600060208201905081810360008301526147b281614398565b9050919050565b600060208201905081810360008301526147d2816143bb565b9050919050565b600060208201905081810360008301526147f2816143de565b9050919050565b6000602082019050818103600083015261481281614401565b9050919050565b6000602082019050818103600083015261483281614424565b9050919050565b6000602082019050818103600083015261485281614447565b9050919050565b600060208201905081810360008301526148728161446a565b9050919050565b600060208201905081810360008301526148928161448d565b9050919050565b600060208201905081810360008301526148b2816144b0565b9050919050565b600060208201905081810360008301526148d2816144d3565b9050919050565b600060208201905081810360008301526148f2816144f6565b9050919050565b6000602082019050818103600083015261491281614519565b9050919050565b60006020820190508181036000830152614933818461453c565b905092915050565b600060208201905061495060008301846145e2565b92915050565b6000614960614971565b905061496c8282614bfe565b919050565b6000604051905090565b600067ffffffffffffffff82111561499657614995614d65565b5b61499f82614da8565b9050602081019050919050565b600067ffffffffffffffff8211156149c7576149c6614d65565b5b6149d082614da8565b9050602081019050919050565b600081519050919050565b600081519050919050565b600082825260208201905092915050565b600082825260208201905092915050565b600082825260208201905092915050565b600081905092915050565b6000614a3c82614b56565b9150614a4783614b56565b9250827fffffffffffffffffffffffffffffffffffffffffffffffffffffffffffffffff03821115614a7c57614a7b614ca9565b5b828201905092915050565b6000614a9282614b56565b9150614a9d83614b56565b925082614aad57614aac614cd8565b5b828204905092915050565b6000614ac382614b56565b9150614ace83614b56565b925082821015614ae157614ae0614ca9565b5b828203905092915050565b6000614af782614b36565b9050919050565b60008115159050919050565b60007fffffffff0000000000000000000000000000000000000000000000000000000082169050919050565b600073ffffffffffffffffffffffffffffffffffffffff82169050919050565b6000819050919050565b82818337600083830152505050565b60005b83811015614b8d578082015181840152602081019050614b72565b83811115614b9c576000848401525b50505050565b6000614bad82614b56565b91506000821415614bc157614bc0614ca9565b5b600182039050919050565b60006002820490506001821680614be457607f821691505b60208210811415614bf857614bf7614d07565b5b50919050565b614c0782614da8565b810181811067ffffffffffffffff82111715614c2657614c25614d65565b5b80604052505050565b6000614c3a82614b56565b91507fffffffffffffffffffffffffffffffffffffffffffffffffffffffffffffffff821415614c6d57614c6c614ca9565b5b600182019050919050565b6000614c8382614b56565b9150614c8e83614b56565b925082614c9e57614c9d614cd8565b5b828206905092915050565b7f4e487b7100000000000000000000000000000000000000000000000000000000600052601160045260246000fd5b7f4e487b7100000000000000000000000000000000000000000000000000000000600052601260045260246000fd5b7f4e487b7100000000000000000000000000000000000000000000000000000000600052602260045260246000fd5b7f4e487b7100000000000000000000000000000000000000000000000000000000600052603260045260246000fd5b7f4e487b7100000000000000000000000000000000000000000000000000000000600052604160045260246000fd5b600080fd5b600080fd5b600080fd5b600080fd5b6000601f19601f8301169050919050565b7f4f6e6c7920617574686f72697365642063726561746f72732063616e206d696e60008201527f7400000000000000000000000000000000000000000000000000000000000000602082015250565b7f4552433732313a207472616e7366657220746f206e6f6e20455243373231526560008201527f63656976657220696d706c656d656e7465720000000000000000000000000000602082015250565b7f4552433732313a20746f6b656e20616c7265616479206d696e74656400000000600082015250565b7f4552433732313a207472616e7366657220746f20746865207a65726f2061646460008201527f7265737300000000000000000000000000000000000000000000000000000000602082015250565b7f4552433732313a20617070726f766520746f2063616c6c657200000000000000600082015250565b7f4f6e6c7920746865206f776e6572206861732061636365737320746f2074686960008201527f7320666561747572650000000000000000000000000000000000000000000000602082015250565b7f4552433732313a206f70657261746f7220717565727920666f72206e6f6e657860008201527f697374656e7420746f6b656e0000000000000000000000000000000000000000602082015250565b7f4552433732313a20617070726f76652063616c6c6572206973206e6f74206f7760008201527f6e6572206e6f7220617070726f76656420666f7220616c6c0000000000000000602082015250565b7f4552433732313a2062616c616e636520717565727920666f7220746865207a6560008201527f726f206164647265737300000000000000000000000000000000000000000000602082015250565b7f4552433732313a206f776e657220717565727920666f72206e6f6e657869737460008201527f656e7420746f6b656e0000000000000000000000000000000000000000000000602082015250565b7f45524337323155524953746f726167653a2055524920736574206f66206e6f6e60008201527f6578697374656e7420746f6b656e000000000000000000000000000000000000602082015250565b7f4552433732313a206d696e7420746f20746865207a65726f2061646472657373600082015250565b7f45524337323155524953746f726167653a2055524920717565727920666f722060008201527f6e6f6e6578697374656e7420746f6b656e000000000000000000000000000000602082015250565b7f4552433732313a20617070726f76656420717565727920666f72206e6f6e657860008201527f697374656e7420746f6b656e0000000000000000000000000000000000000000602082015250565b7f4552433732313a207472616e73666572206f6620746f6b656e2074686174206960008201527f73206e6f74206f776e0000000000000000000000000000000000000000000000602082015250565b7f4552433732314d657461646174613a2055524920717565727920666f72206e6f60008201527f6e6578697374656e7420746f6b656e0000000000000000000000000000000000602082015250565b7f4552433732313a20617070726f76616c20746f2063757272656e74206f776e6560008201527f7200000000000000000000000000000000000000000000000000000000000000602082015250565b7f4f6e6c7920417070726f766564206f72204f776e65722063616e207472616e7360008201527f666572207468697320746f6b656e000000000000000000000000000000000000602082015250565b7f4552433732313a207472616e736665722063616c6c6572206973206e6f74206f60008201527f776e6572206e6f7220617070726f766564000000000000000000000000000000602082015250565b61532d81614aec565b811461533857600080fd5b50565b61534481614afe565b811461534f57600080fd5b50565b61535b81614b0a565b811461536657600080fd5b50565b61537281614b56565b811461537d57600080fd5b5056fea2646970667358221220763b75ffba1ac981e605af02a5cb87786c28f305bfb885c0bfb8208aa1cc175a64736f6c63430008070033",
  "immutableReferences": {},
  "source": "// SPDX-License-Identifier: MIT\r\npragma solidity ^0.8.0;\r\n\r\nimport \"@openzeppelin/contracts/token/ERC721/ERC721.sol\";\r\nimport \"@openzeppelin/contracts/token/ERC721/extensions/ERC721URIStorage.sol\";\r\n\r\n\r\ncontract RugbyDAUToken is ERC721URIStorage {\r\n    //used for the display of tokens\r\n    struct File{\r\n        uint id;\r\n        string hash;\r\n        string fileName;\r\n        string fileType;\r\n        uint date;\r\n        bool wasAdded;\r\n    }\r\n    mapping(address=>File[]) files;\r\n    \r\n    //used for governance and minting\r\n    address owner;\r\n    uint private _tokenIdCounter;\r\n    mapping (address => bool) private minters;\r\n\r\n    constructor() ERC721(\"RugbyDAU\", \"RGBY\") {\r\n        owner = msg.sender;\r\n        setMinter(owner);\r\n    }\r\n    //restrict the use of certain methods to the contract owner\r\n    modifier onlyOwner {\r\n       require(tx.origin == owner, \"Only the owner has access to this feature\");\r\n       _;\r\n    }\r\n\r\n    //internal function to concatenate the base URI to the CID from IPFS\r\n    function _baseURI() internal pure override returns (string memory) {\r\n        return \"https://ipfs.io/ipfs/\";\r\n    }\r\n    //set and revoke permission to creators to mint\r\n    function setMinter(address _creator) public onlyOwner{\r\n          minters[_creator]= true;\r\n    }\r\n    function revokeMinter(address _creator) public onlyOwner{\r\n          minters[_creator]=false;\r\n    }\r\n    function isMinter(address _creator) public view returns (bool){\r\n          return minters[_creator];\r\n    }\r\n     \r\n    //creates a token and adds the data to the drive\r\n    function add(string memory _hash, string memory _fileName, string memory _fileType, uint _date) public{\r\n        require(isMinter(msg.sender), \"Only authorised creators can mint\");\r\n        //tokens start count from 1, any token showing id in the display has been deleted (there is no token zero)\r\n        _tokenIdCounter++;\r\n        uint256 tokenId = _tokenIdCounter;\r\n        //internal functions from ERC721, mint new token and set the URI of the underlying digital asset\r\n        _mint(msg.sender, tokenId);\r\n        _setTokenURI(tokenId, _hash);\r\n        \r\n       //First file ever added to the drive\r\n        if (files[msg.sender].length == 0){\r\n            files[msg.sender].push(File({id:tokenId, hash:_hash,fileName:_fileName,fileType:_fileType,date:_date, wasAdded:true}));\r\n        }else{\r\n            //any other add after the first\r\n            uint lastIndex = files[msg.sender].length; \r\n            File memory lastEntry = files[msg.sender][lastIndex-1]; \r\n            //check for a deletion in the last entry of the array\r\n            if(!lastEntry.wasAdded){\r\n                //if a deletion is detected, cycle back until a record is found or the second entry is reached\r\n                while((!lastEntry.wasAdded) && lastIndex>=1){\r\n                    lastEntry = files[msg.sender][lastIndex-1];\r\n                    lastIndex--;\r\n                 }\r\n                 //in case all files were deleted, add the new file in the first position\r\n                 if(lastIndex == 0 && (!files[msg.sender][0].wasAdded)){\r\n                     files[msg.sender][0]=File({id:tokenId, hash:_hash,fileName:_fileName,fileType:_fileType,date:_date, wasAdded:true});\r\n                 }else{\r\n                     //add the next file in place of the last deleted entry, last index has a +1 because the loop will subtract 1 extra on its last loop\r\n                     files[msg.sender][lastIndex+1]=File({id:tokenId, hash:_hash,fileName:_fileName,fileType:_fileType,date:_date, wasAdded:true});\r\n                 }\r\n\r\n            }else{\r\n                //If there is no deletion detected push the file to the array\r\n               files[msg.sender].push(File({id: tokenId,hash:_hash,fileName:_fileName,fileType:_fileType,date:_date, wasAdded:true})); \r\n            }\r\n       }\r\n    }\r\n\r\n    function transferRGBY(uint _index, uint _tokenId, address _to) public {\r\n\r\n        require(_isApprovedOrOwner(msg.sender, _tokenId), \"Only Approved or Owner can transfer this token\");\r\n        _transfer(msg.sender, _to, _tokenId);\r\n\r\n        File memory transferFile = files[msg.sender][_index];\r\n\r\n        //First file ever added to the drive\r\n        if (files[_to].length == 0){\r\n            files[_to].push(transferFile);\r\n        }else{\r\n            //any other add after the first\r\n            uint lastIndex = files[_to].length; \r\n            File memory lastEntry = files[_to][lastIndex-1]; \r\n            //check for a deletion in the last entry of the array\r\n            if(!lastEntry.wasAdded){\r\n                //if a deletion is detected, cycle back until a record is found or the second entry is reached\r\n                while((!lastEntry.wasAdded) && lastIndex>=1){\r\n                    lastEntry = files[_to][lastIndex-1];\r\n                    lastIndex--;\r\n                 }\r\n                 //in case all files were deleted, add the new file in the first position\r\n                 if(lastIndex == 0 && (!files[owner][0].wasAdded)){\r\n                     files[_to][0]=transferFile;\r\n                 }else{\r\n                     //add the next file in place of the last deleted entry, last index has a +1 because the loop will subtract 1 extra on its last loop\r\n                     files[_to][lastIndex+1]=transferFile;\r\n                 }\r\n\r\n            }else{\r\n                //If there is no deletion detected push the file to the array\r\n               files[_to].push(transferFile); \r\n            }\r\n       }\r\n       _removeFile(_index, files[msg.sender].length);\r\n    } \r\n\r\n    //if needed swaps last entry with file target for removal then deletes last entry\r\n    function _removeFile(uint _index, uint _arrayLength) internal{\r\n        uint lastElement = _arrayLength-1;\r\n        if(_index != lastElement){\r\n            files[msg.sender][_index] = files[msg.sender][lastElement];\r\n        }\r\n        delete files[msg.sender][lastElement];\r\n    }\r\n\r\n    //we need this getter as we just cannot loop through the mapped array\r\n    function getFile(uint _index) public view returns(File memory){\r\n        return files[msg.sender][_index];\r\n    }\r\n\r\n    //we need the length of each array in order to properly loop trough each of them\r\n    function getLength() public view returns(uint){\r\n        return files[msg.sender].length;\r\n    }\r\n    \r\n    \r\n    //common room \r\n     //we need this getter as we just cannot loop through the mapped array\r\n    function getMarketFile(uint _index) public view returns(File memory){\r\n        return files[owner][_index];\r\n    }\r\n    //we need the length of each array in order to properly loop trough each of them\r\n    function getMarketLength() public view returns(uint){\r\n        return files[owner].length;\r\n    }\r\n\r\n}\r\n\r\n\r\n  \r\n\r\n\r\n\r\n",
  "sourcePath": "C:/Users/x20170416/Documents/GitHub/block-app/solidity-drive-app/contracts/RugbyDAUToken.sol",
  "compiler": {
    "name": "solc",
    "version": "0.8.7+commit.e28d00a7.Emscripten.clang"
  },
  "schemaVersion": "3.4.1",
  "updatedAt": "2021-09-13T13:12:03.215Z",
  "networkType": "ethereum",
  "devdoc": {
    "kind": "dev",
    "methods": {
      "approve(address,uint256)": {
        "details": "See {IERC721-approve}."
      },
      "balanceOf(address)": {
        "details": "See {IERC721-balanceOf}."
      },
      "getApproved(uint256)": {
        "details": "See {IERC721-getApproved}."
      },
      "isApprovedForAll(address,address)": {
        "details": "See {IERC721-isApprovedForAll}."
      },
      "name()": {
        "details": "See {IERC721Metadata-name}."
      },
      "ownerOf(uint256)": {
        "details": "See {IERC721-ownerOf}."
      },
      "safeTransferFrom(address,address,uint256)": {
        "details": "See {IERC721-safeTransferFrom}."
      },
      "safeTransferFrom(address,address,uint256,bytes)": {
        "details": "See {IERC721-safeTransferFrom}."
      },
      "setApprovalForAll(address,bool)": {
        "details": "See {IERC721-setApprovalForAll}."
      },
      "supportsInterface(bytes4)": {
        "details": "See {IERC165-supportsInterface}."
      },
      "symbol()": {
        "details": "See {IERC721Metadata-symbol}."
      },
      "tokenURI(uint256)": {
        "details": "See {IERC721Metadata-tokenURI}."
      },
      "transferFrom(address,address,uint256)": {
        "details": "See {IERC721-transferFrom}."
      }
    },
    "version": 1
  },
  "userdoc": {
    "kind": "user",
    "methods": {},
    "version": 1
  }
}