{
  "contractName": "SolidityDrive",
  "abi": [
    {
      "inputs": [
        {
          "internalType": "string",
          "name": "_hash",
          "type": "string"
        },
        {
          "internalType": "string",
          "name": "_fileName",
          "type": "string"
        },
        {
          "internalType": "string",
          "name": "_fileType",
          "type": "string"
        },
        {
          "internalType": "uint256",
          "name": "_date",
          "type": "uint256"
        }
      ],
      "name": "add",
      "outputs": [],
      "stateMutability": "nonpayable",
      "type": "function"
    },
    {
      "inputs": [
        {
          "internalType": "uint256",
          "name": "_index",
          "type": "uint256"
        },
        {
          "internalType": "uint256",
          "name": "_arrayLength",
          "type": "uint256"
        }
      ],
      "name": "removeFile",
      "outputs": [],
      "stateMutability": "nonpayable",
      "type": "function"
    },
    {
      "inputs": [
        {
          "internalType": "uint256",
          "name": "_index",
          "type": "uint256"
        }
      ],
      "name": "getFile",
      "outputs": [
        {
          "components": [
            {
              "internalType": "string",
              "name": "hash",
              "type": "string"
            },
            {
              "internalType": "string",
              "name": "fileName",
              "type": "string"
            },
            {
              "internalType": "string",
              "name": "fileType",
              "type": "string"
            },
            {
              "internalType": "uint256",
              "name": "date",
              "type": "uint256"
            },
            {
              "internalType": "bool",
              "name": "wasAdded",
              "type": "bool"
            }
          ],
          "internalType": "struct SolidityDrive.File",
          "name": "",
          "type": "tuple"
        }
      ],
      "stateMutability": "view",
      "type": "function",
      "constant": true
    },
    {
      "inputs": [],
      "name": "getLength",
      "outputs": [
        {
          "internalType": "uint256",
          "name": "",
          "type": "uint256"
        }
      ],
      "stateMutability": "view",
      "type": "function",
      "constant": true
    }
  ],
  "bytecode": "0x608060405234801561001057600080fd5b5061176c806100206000396000f3fe608060405234801561001057600080fd5b506004361061004c5760003560e01c80632bfda313146100515780633f647a9714610081578063be1c766b1461009d578063db8c3fdc146100bb575b600080fd5b61006b600480360381019061006691906112c9565b6100d7565b6040516100789190611420565b60405180910390f35b61009b6004803603810190610096919061120e565b61032a565b005b6100a5610d7e565b6040516100b29190611442565b60405180910390f35b6100d560048036038101906100d091906112f6565b610dc7565b005b6100df610fe8565b6000803373ffffffffffffffffffffffffffffffffffffffff1673ffffffffffffffffffffffffffffffffffffffff168152602001908152602001600020828154811061012f5761012e61169c565b5b90600052602060002090600502016040518060a0016040529081600082018054610158906115db565b80601f0160208091040260200160405190810160405280929190818152602001828054610184906115db565b80156101d15780601f106101a6576101008083540402835291602001916101d1565b820191906000526020600020905b8154815290600101906020018083116101b457829003601f168201915b505050505081526020016001820180546101ea906115db565b80601f0160208091040260200160405190810160405280929190818152602001828054610216906115db565b80156102635780601f1061023857610100808354040283529160200191610263565b820191906000526020600020905b81548152906001019060200180831161024657829003601f168201915b5050505050815260200160028201805461027c906115db565b80601f01602080910402602001604051908101604052809291908181526020018280546102a8906115db565b80156102f55780601f106102ca576101008083540402835291602001916102f5565b820191906000526020600020905b8154815290600101906020018083116102d857829003601f168201915b50505050508152602001600382015481526020016004820160009054906101000a900460ff1615151515815250509050919050565b60008060003373ffffffffffffffffffffffffffffffffffffffff1673ffffffffffffffffffffffffffffffffffffffff16815260200190815260200160002080549050141561048d576000803373ffffffffffffffffffffffffffffffffffffffff1673ffffffffffffffffffffffffffffffffffffffff1681526020019081526020016000206040518060a001604052808681526020018581526020018481526020018381526020016001151581525090806001815401808255809150506001900390600052602060002090600502016000909190919091506000820151816000019080519060200190610421929190611019565b50602082015181600101908051906020019061043e929190611019565b50604082015181600201908051906020019061045b929190611019565b506060820151816003015560808201518160040160006101000a81548160ff0219169083151502179055505050610d78565b60008060003373ffffffffffffffffffffffffffffffffffffffff1673ffffffffffffffffffffffffffffffffffffffff16815260200190815260200160002080549050905060008060003373ffffffffffffffffffffffffffffffffffffffff1673ffffffffffffffffffffffffffffffffffffffff1681526020019081526020016000206001836105209190611525565b815481106105315761053061169c565b5b90600052602060002090600502016040518060a001604052908160008201805461055a906115db565b80601f0160208091040260200160405190810160405280929190818152602001828054610586906115db565b80156105d35780601f106105a8576101008083540402835291602001916105d3565b820191906000526020600020905b8154815290600101906020018083116105b657829003601f168201915b505050505081526020016001820180546105ec906115db565b80601f0160208091040260200160405190810160405280929190818152602001828054610618906115db565b80156106655780601f1061063a57610100808354040283529160200191610665565b820191906000526020600020905b81548152906001019060200180831161064857829003601f168201915b5050505050815260200160028201805461067e906115db565b80601f01602080910402602001604051908101604052809291908181526020018280546106aa906115db565b80156106f75780601f106106cc576101008083540402835291602001916106f7565b820191906000526020600020905b8154815290600101906020018083116106da57829003601f168201915b50505050508152602001600382015481526020016004820160009054906101000a900460ff16151515158152505090508060800151610c60575b8060800151158015610744575060018210155b156109ae576000803373ffffffffffffffffffffffffffffffffffffffff1673ffffffffffffffffffffffffffffffffffffffff1681526020019081526020016000206001836107949190611525565b815481106107a5576107a461169c565b5b90600052602060002090600502016040518060a00160405290816000820180546107ce906115db565b80601f01602080910402602001604051908101604052809291908181526020018280546107fa906115db565b80156108475780601f1061081c57610100808354040283529160200191610847565b820191906000526020600020905b81548152906001019060200180831161082a57829003601f168201915b50505050508152602001600182018054610860906115db565b80601f016020809104026020016040519081016040528092919081815260200182805461088c906115db565b80156108d95780601f106108ae576101008083540402835291602001916108d9565b820191906000526020600020905b8154815290600101906020018083116108bc57829003601f168201915b505050505081526020016002820180546108f2906115db565b80601f016020809104026020016040519081016040528092919081815260200182805461091e906115db565b801561096b5780601f106109405761010080835404028352916020019161096b565b820191906000526020600020905b81548152906001019060200180831161094e57829003601f168201915b50505050508152602001600382015481526020016004820160009054906101000a900460ff161515151581525050905081806109a6906115b1565b925050610731565b600082148015610a2b57506000803373ffffffffffffffffffffffffffffffffffffffff1673ffffffffffffffffffffffffffffffffffffffff168152602001908152602001600020600081548110610a0a57610a0961169c565b5b906000526020600020906005020160040160009054906101000a900460ff16155b15610b42576040518060a00160405280878152602001868152602001858152602001848152602001600115158152506000803373ffffffffffffffffffffffffffffffffffffffff1673ffffffffffffffffffffffffffffffffffffffff168152602001908152602001600020600081548110610aab57610aaa61169c565b5b90600052602060002090600502016000820151816000019080519060200190610ad5929190611019565b506020820151816001019080519060200190610af2929190611019565b506040820151816002019080519060200190610b0f929190611019565b506060820151816003015560808201518160040160006101000a81548160ff021916908315150217905550905050610c5b565b6040518060a00160405280878152602001868152602001858152602001848152602001600115158152506000803373ffffffffffffffffffffffffffffffffffffffff1673ffffffffffffffffffffffffffffffffffffffff168152602001908152602001600020600184610bb791906114cf565b81548110610bc857610bc761169c565b5b90600052602060002090600502016000820151816000019080519060200190610bf2929190611019565b506020820151816001019080519060200190610c0f929190611019565b506040820151816002019080519060200190610c2c929190611019565b506060820151816003015560808201518160040160006101000a81548160ff0219169083151502179055509050505b610d75565b6000803373ffffffffffffffffffffffffffffffffffffffff1673ffffffffffffffffffffffffffffffffffffffff1681526020019081526020016000206040518060a001604052808881526020018781526020018681526020018581526020016001151581525090806001815401808255809150506001900390600052602060002090600502016000909190919091506000820151816000019080519060200190610d0d929190611019565b506020820151816001019080519060200190610d2a929190611019565b506040820151816002019080519060200190610d47929190611019565b506060820151816003015560808201518160040160006101000a81548160ff02191690831515021790555050505b50505b50505050565b60008060003373ffffffffffffffffffffffffffffffffffffffff1673ffffffffffffffffffffffffffffffffffffffff16815260200190815260200160002080549050905090565b6000600182610dd69190611525565b9050808314610f36576000803373ffffffffffffffffffffffffffffffffffffffff1673ffffffffffffffffffffffffffffffffffffffff1681526020019081526020016000208181548110610e2f57610e2e61169c565b5b90600052602060002090600502016000803373ffffffffffffffffffffffffffffffffffffffff1673ffffffffffffffffffffffffffffffffffffffff1681526020019081526020016000208481548110610e8d57610e8c61169c565b5b90600052602060002090600502016000820181600001908054610eaf906115db565b610eba92919061109f565b506001820181600101908054610ecf906115db565b610eda92919061109f565b506002820181600201908054610eef906115db565b610efa92919061109f565b50600382015481600301556004820160009054906101000a900460ff168160040160006101000a81548160ff0219169083151502179055509050505b6000803373ffffffffffffffffffffffffffffffffffffffff1673ffffffffffffffffffffffffffffffffffffffff1681526020019081526020016000208181548110610f8657610f8561169c565b5b906000526020600020906005020160008082016000610fa5919061112c565b600182016000610fb5919061112c565b600282016000610fc5919061112c565b60038201600090556004820160006101000a81549060ff02191690555050505050565b6040518060a00160405280606081526020016060815260200160608152602001600081526020016000151581525090565b828054611025906115db565b90600052602060002090601f016020900481019282611047576000855561108e565b82601f1061106057805160ff191683800117855561108e565b8280016001018555821561108e579182015b8281111561108d578251825591602001919060010190611072565b5b50905061109b919061116c565b5090565b8280546110ab906115db565b90600052602060002090601f0160209004810192826110cd576000855561111b565b82601f106110de578054855561111b565b8280016001018555821561111b57600052602060002091601f016020900482015b8281111561111a5782548255916001019190600101906110ff565b5b509050611128919061116c565b5090565b508054611138906115db565b6000825580601f1061114a5750611169565b601f016020900490600052602060002090810190611168919061116c565b5b50565b5b8082111561118557600081600090555060010161116d565b5090565b600061119c61119784611482565b61145d565b9050828152602081018484840111156111b8576111b76116ff565b5b6111c384828561156f565b509392505050565b600082601f8301126111e0576111df6116fa565b5b81356111f0848260208601611189565b91505092915050565b6000813590506112088161171f565b92915050565b6000806000806080858703121561122857611227611709565b5b600085013567ffffffffffffffff81111561124657611245611704565b5b611252878288016111cb565b945050602085013567ffffffffffffffff81111561127357611272611704565b5b61127f878288016111cb565b935050604085013567ffffffffffffffff8111156112a05761129f611704565b5b6112ac878288016111cb565b92505060606112bd878288016111f9565b91505092959194509250565b6000602082840312156112df576112de611709565b5b60006112ed848285016111f9565b91505092915050565b6000806040838503121561130d5761130c611709565b5b600061131b858286016111f9565b925050602061132c858286016111f9565b9150509250929050565b61133f81611559565b82525050565b6000611350826114b3565b61135a81856114be565b935061136a81856020860161157e565b6113738161170e565b840191505092915050565b600060a083016000830151848203600086015261139b8282611345565b915050602083015184820360208601526113b58282611345565b915050604083015184820360408601526113cf8282611345565b91505060608301516113e46060860182611402565b5060808301516113f76080860182611336565b508091505092915050565b61140b81611565565b82525050565b61141a81611565565b82525050565b6000602082019050818103600083015261143a818461137e565b905092915050565b60006020820190506114576000830184611411565b92915050565b6000611467611478565b9050611473828261160d565b919050565b6000604051905090565b600067ffffffffffffffff82111561149d5761149c6116cb565b5b6114a68261170e565b9050602081019050919050565b600081519050919050565b600082825260208201905092915050565b60006114da82611565565b91506114e583611565565b9250827fffffffffffffffffffffffffffffffffffffffffffffffffffffffffffffffff0382111561151a5761151961163e565b5b828201905092915050565b600061153082611565565b915061153b83611565565b92508282101561154e5761154d61163e565b5b828203905092915050565b60008115159050919050565b6000819050919050565b82818337600083830152505050565b60005b8381101561159c578082015181840152602081019050611581565b838111156115ab576000848401525b50505050565b60006115bc82611565565b915060008214156115d0576115cf61163e565b5b600182039050919050565b600060028204905060018216806115f357607f821691505b602082108114156116075761160661166d565b5b50919050565b6116168261170e565b810181811067ffffffffffffffff82111715611635576116346116cb565b5b80604052505050565b7f4e487b7100000000000000000000000000000000000000000000000000000000600052601160045260246000fd5b7f4e487b7100000000000000000000000000000000000000000000000000000000600052602260045260246000fd5b7f4e487b7100000000000000000000000000000000000000000000000000000000600052603260045260246000fd5b7f4e487b7100000000000000000000000000000000000000000000000000000000600052604160045260246000fd5b600080fd5b600080fd5b600080fd5b600080fd5b6000601f19601f8301169050919050565b61172881611565565b811461173357600080fd5b5056fea2646970667358221220bedfbc8381b0bb61fd7fdd8b1508fa07609a3c80705e2ca83d767aae21dc0f9c64736f6c63430008070033",
  "immutableReferences": {},
  "source": "pragma solidity ^0.8.0;\r\n\r\n\r\ncontract SolidityDrive{\r\n\r\n    struct File{\r\n        string hash;\r\n        string fileName;\r\n        string fileType;\r\n        uint date;\r\n        bool wasAdded;\r\n    }\r\n    mapping(address=>File[]) files;\r\n\r\n    function add(string memory _hash, string memory _fileName, string memory _fileType, uint _date) public{\r\n       //First file added\r\n        if (files[msg.sender].length == 0){\r\n            files[msg.sender].push(File({hash:_hash,fileName:_fileName,fileType:_fileType,date:_date, wasAdded:true}));\r\n        }else{\r\n            //any other add after the first\r\n            uint lastIndex = files[msg.sender].length; \r\n            File memory lastEntry = files[msg.sender][lastIndex-1]; \r\n            //check for a deletion in the last entry of the array\r\n            if(!lastEntry.wasAdded){\r\n                //if a deletion is detected, cycle back until a record is found or the second entry is reached\r\n                while((!lastEntry.wasAdded) && lastIndex>=1){\r\n                    lastEntry = files[msg.sender][lastIndex-1];\r\n                    lastIndex--;\r\n                 }\r\n                 if(lastIndex == 0 && (!files[msg.sender][0].wasAdded)){\r\n                     files[msg.sender][0]=File({hash:_hash,fileName:_fileName,fileType:_fileType,date:_date, wasAdded:true});\r\n                 }else{\r\n                     files[msg.sender][lastIndex+1]=File({hash:_hash,fileName:_fileName,fileType:_fileType,date:_date, wasAdded:true});\r\n                 }\r\n\r\n            }else{\r\n                //If there is no deletion detected push the file to the array\r\n               files[msg.sender].push(File({hash:_hash,fileName:_fileName,fileType:_fileType,date:_date, wasAdded:true})); \r\n            }\r\n       }\r\n        \r\n    }\r\n\r\n    //if needed swaps last entry with file target for removal then deletes last entry\r\n    function removeFile(uint _index, uint _arrayLength) public{\r\n        uint lastElement = _arrayLength-1;\r\n        if(_index != lastElement){\r\n            files[msg.sender][_index] = files[msg.sender][lastElement];\r\n        }\r\n        delete files[msg.sender][lastElement];\r\n    }\r\n\r\n    //we need this getter as we just cannot loop through the mapped array\r\n    function getFile(uint _index) public view returns(File memory){\r\n        return files[msg.sender][_index];\r\n    }\r\n\r\n    //we need the length of each array in order to properly loop trough each of them\r\n    function getLength() public view returns(uint){\r\n        return files[msg.sender].length;\r\n    } \r\n}",
  "sourcePath": "C:/Users/x20170416/Documents/GitHub/block-app/solidity-drive-app/contracts/SolidityDrive.sol",
  "compiler": {
    "name": "solc",
    "version": "0.8.7+commit.e28d00a7.Emscripten.clang"
  },
  "schemaVersion": "3.4.1",
  "updatedAt": "2021-09-07T21:10:19.052Z",
  "networkType": "ethereum",
  "devdoc": {
    "kind": "dev",
    "methods": {},
    "version": 1
  },
  "userdoc": {
    "kind": "user",
    "methods": {},
    "version": 1
  }
}