{
  "contractName": "SolidityDrive",
  "abi": [
    {
      "inputs": [
        {
          "internalType": "uint256",
          "name": "_id",
          "type": "uint256"
        },
        {
          "internalType": "string",
          "name": "_hash",
          "type": "string"
        },
        {
          "internalType": "string",
          "name": "_fileName",
          "type": "string"
        },
        {
          "internalType": "string",
          "name": "_fileType",
          "type": "string"
        },
        {
          "internalType": "uint256",
          "name": "_date",
          "type": "uint256"
        }
      ],
      "name": "add",
      "outputs": [],
      "stateMutability": "nonpayable",
      "type": "function"
    },
    {
      "inputs": [
        {
          "internalType": "uint256",
          "name": "_index",
          "type": "uint256"
        },
        {
          "internalType": "uint256",
          "name": "_arrayLength",
          "type": "uint256"
        }
      ],
      "name": "removeFile",
      "outputs": [],
      "stateMutability": "nonpayable",
      "type": "function"
    },
    {
      "inputs": [
        {
          "internalType": "uint256",
          "name": "_index",
          "type": "uint256"
        }
      ],
      "name": "getFile",
      "outputs": [
        {
          "components": [
            {
              "internalType": "uint256",
              "name": "id",
              "type": "uint256"
            },
            {
              "internalType": "string",
              "name": "hash",
              "type": "string"
            },
            {
              "internalType": "string",
              "name": "fileName",
              "type": "string"
            },
            {
              "internalType": "string",
              "name": "fileType",
              "type": "string"
            },
            {
              "internalType": "uint256",
              "name": "date",
              "type": "uint256"
            },
            {
              "internalType": "bool",
              "name": "wasAdded",
              "type": "bool"
            }
          ],
          "internalType": "struct SolidityDrive.File",
          "name": "",
          "type": "tuple"
        }
      ],
      "stateMutability": "view",
      "type": "function",
      "constant": true
    },
    {
      "inputs": [],
      "name": "getLength",
      "outputs": [
        {
          "internalType": "uint256",
          "name": "",
          "type": "uint256"
        }
      ],
      "stateMutability": "view",
      "type": "function",
      "constant": true
    }
  ],
  "bytecode": "0x608060405234801561001057600080fd5b5061180b806100206000396000f3fe608060405234801561001057600080fd5b506004361061004c5760003560e01c80630e1e4795146100515780632bfda3131461006d578063be1c766b1461009d578063db8c3fdc146100bb575b600080fd5b61006b600480360381019061006691906112b3565b6100d7565b005b61008760048036038101906100829190611286565b610b80565b60405161009491906114bf565b60405180910390f35b6100a5610ddd565b6040516100b291906114e1565b60405180910390f35b6100d560048036038101906100d09190611382565b610e26565b005b60008060003373ffffffffffffffffffffffffffffffffffffffff1673ffffffffffffffffffffffffffffffffffffffff16815260200190815260200160002080549050141561024a576000803373ffffffffffffffffffffffffffffffffffffffff1673ffffffffffffffffffffffffffffffffffffffff1681526020019081526020016000206040518060c001604052808781526020018681526020018581526020018481526020018381526020016001151581525090806001815401808255809150506001900390600052602060002090600602016000909190919091506000820151816000015560208201518160010190805190602001906101de929190611059565b5060408201518160020190805190602001906101fb929190611059565b506060820151816003019080519060200190610218929190611059565b506080820151816004015560a08201518160050160006101000a81548160ff0219169083151502179055505050610b79565b60008060003373ffffffffffffffffffffffffffffffffffffffff1673ffffffffffffffffffffffffffffffffffffffff16815260200190815260200160002080549050905060008060003373ffffffffffffffffffffffffffffffffffffffff1673ffffffffffffffffffffffffffffffffffffffff1681526020019081526020016000206001836102dd91906115c4565b815481106102ee576102ed61173b565b5b90600052602060002090600602016040518060c0016040529081600082015481526020016001820180546103219061167a565b80601f016020809104026020016040519081016040528092919081815260200182805461034d9061167a565b801561039a5780601f1061036f5761010080835404028352916020019161039a565b820191906000526020600020905b81548152906001019060200180831161037d57829003601f168201915b505050505081526020016002820180546103b39061167a565b80601f01602080910402602001604051908101604052809291908181526020018280546103df9061167a565b801561042c5780601f106104015761010080835404028352916020019161042c565b820191906000526020600020905b81548152906001019060200180831161040f57829003601f168201915b505050505081526020016003820180546104459061167a565b80601f01602080910402602001604051908101604052809291908181526020018280546104719061167a565b80156104be5780601f10610493576101008083540402835291602001916104be565b820191906000526020600020905b8154815290600101906020018083116104a157829003601f168201915b50505050508152602001600482015481526020016005820160009054906101000a900460ff16151515158152505090508060a00151610a51575b8060a0015115801561050b575060018210155b1561077f576000803373ffffffffffffffffffffffffffffffffffffffff1673ffffffffffffffffffffffffffffffffffffffff16815260200190815260200160002060018361055b91906115c4565b8154811061056c5761056b61173b565b5b90600052602060002090600602016040518060c00160405290816000820154815260200160018201805461059f9061167a565b80601f01602080910402602001604051908101604052809291908181526020018280546105cb9061167a565b80156106185780601f106105ed57610100808354040283529160200191610618565b820191906000526020600020905b8154815290600101906020018083116105fb57829003601f168201915b505050505081526020016002820180546106319061167a565b80601f016020809104026020016040519081016040528092919081815260200182805461065d9061167a565b80156106aa5780601f1061067f576101008083540402835291602001916106aa565b820191906000526020600020905b81548152906001019060200180831161068d57829003601f168201915b505050505081526020016003820180546106c39061167a565b80601f01602080910402602001604051908101604052809291908181526020018280546106ef9061167a565b801561073c5780601f106107115761010080835404028352916020019161073c565b820191906000526020600020905b81548152906001019060200180831161071f57829003601f168201915b50505050508152602001600482015481526020016005820160009054906101000a900460ff1615151515815250509050818061077790611650565b9250506104f8565b6000821480156107fc57506000803373ffffffffffffffffffffffffffffffffffffffff1673ffffffffffffffffffffffffffffffffffffffff1681526020019081526020016000206000815481106107db576107da61173b565b5b906000526020600020906006020160050160009054906101000a900460ff16155b15610923576040518060c00160405280888152602001878152602001868152602001858152602001848152602001600115158152506000803373ffffffffffffffffffffffffffffffffffffffff1673ffffffffffffffffffffffffffffffffffffffff1681526020019081526020016000206000815481106108825761088161173b565b5b90600052602060002090600602016000820151816000015560208201518160010190805190602001906108b6929190611059565b5060408201518160020190805190602001906108d3929190611059565b5060608201518160030190805190602001906108f0929190611059565b506080820151816004015560a08201518160050160006101000a81548160ff021916908315150217905550905050610a4c565b6040518060c00160405280888152602001878152602001868152602001858152602001848152602001600115158152506000803373ffffffffffffffffffffffffffffffffffffffff1673ffffffffffffffffffffffffffffffffffffffff16815260200190815260200160002060018461099e919061156e565b815481106109af576109ae61173b565b5b90600052602060002090600602016000820151816000015560208201518160010190805190602001906109e3929190611059565b506040820151816002019080519060200190610a00929190611059565b506060820151816003019080519060200190610a1d929190611059565b506080820151816004015560a08201518160050160006101000a81548160ff0219169083151502179055509050505b610b76565b6000803373ffffffffffffffffffffffffffffffffffffffff1673ffffffffffffffffffffffffffffffffffffffff1681526020019081526020016000206040518060c00160405280898152602001888152602001878152602001868152602001858152602001600115158152509080600181540180825580915050600190039060005260206000209060060201600090919091909150600082015181600001556020820151816001019080519060200190610b0e929190611059565b506040820151816002019080519060200190610b2b929190611059565b506060820151816003019080519060200190610b48929190611059565b506080820151816004015560a08201518160050160006101000a81548160ff02191690831515021790555050505b50505b5050505050565b610b886110df565b6000803373ffffffffffffffffffffffffffffffffffffffff1673ffffffffffffffffffffffffffffffffffffffff1681526020019081526020016000208281548110610bd857610bd761173b565b5b90600052602060002090600602016040518060c001604052908160008201548152602001600182018054610c0b9061167a565b80601f0160208091040260200160405190810160405280929190818152602001828054610c379061167a565b8015610c845780601f10610c5957610100808354040283529160200191610c84565b820191906000526020600020905b815481529060010190602001808311610c6757829003601f168201915b50505050508152602001600282018054610c9d9061167a565b80601f0160208091040260200160405190810160405280929190818152602001828054610cc99061167a565b8015610d165780601f10610ceb57610100808354040283529160200191610d16565b820191906000526020600020905b815481529060010190602001808311610cf957829003601f168201915b50505050508152602001600382018054610d2f9061167a565b80601f0160208091040260200160405190810160405280929190818152602001828054610d5b9061167a565b8015610da85780601f10610d7d57610100808354040283529160200191610da8565b820191906000526020600020905b815481529060010190602001808311610d8b57829003601f168201915b50505050508152602001600482015481526020016005820160009054906101000a900460ff1615151515815250509050919050565b60008060003373ffffffffffffffffffffffffffffffffffffffff1673ffffffffffffffffffffffffffffffffffffffff16815260200190815260200160002080549050905090565b6000600182610e3591906115c4565b9050808314610f9f576000803373ffffffffffffffffffffffffffffffffffffffff1673ffffffffffffffffffffffffffffffffffffffff1681526020019081526020016000208181548110610e8e57610e8d61173b565b5b90600052602060002090600602016000803373ffffffffffffffffffffffffffffffffffffffff1673ffffffffffffffffffffffffffffffffffffffff1681526020019081526020016000208481548110610eec57610eeb61173b565b5b9060005260206000209060060201600082015481600001556001820181600101908054610f189061167a565b610f23929190611117565b506002820181600201908054610f389061167a565b610f43929190611117565b506003820181600301908054610f589061167a565b610f63929190611117565b50600482015481600401556005820160009054906101000a900460ff168160050160006101000a81548160ff0219169083151502179055509050505b6000803373ffffffffffffffffffffffffffffffffffffffff1673ffffffffffffffffffffffffffffffffffffffff1681526020019081526020016000208181548110610fef57610fee61173b565b5b906000526020600020906006020160008082016000905560018201600061101691906111a4565b60028201600061102691906111a4565b60038201600061103691906111a4565b60048201600090556005820160006101000a81549060ff02191690555050505050565b8280546110659061167a565b90600052602060002090601f01602090048101928261108757600085556110ce565b82601f106110a057805160ff19168380011785556110ce565b828001600101855582156110ce579182015b828111156110cd5782518255916020019190600101906110b2565b5b5090506110db91906111e4565b5090565b6040518060c0016040528060008152602001606081526020016060815260200160608152602001600081526020016000151581525090565b8280546111239061167a565b90600052602060002090601f0160209004810192826111455760008555611193565b82601f106111565780548555611193565b8280016001018555821561119357600052602060002091601f016020900482015b82811115611192578254825591600101919060010190611177565b5b5090506111a091906111e4565b5090565b5080546111b09061167a565b6000825580601f106111c257506111e1565b601f0160209004906000526020600020908101906111e091906111e4565b5b50565b5b808211156111fd5760008160009055506001016111e5565b5090565b600061121461120f84611521565b6114fc565b9050828152602081018484840111156112305761122f61179e565b5b61123b84828561160e565b509392505050565b600082601f83011261125857611257611799565b5b8135611268848260208601611201565b91505092915050565b600081359050611280816117be565b92915050565b60006020828403121561129c5761129b6117a8565b5b60006112aa84828501611271565b91505092915050565b600080600080600060a086880312156112cf576112ce6117a8565b5b60006112dd88828901611271565b955050602086013567ffffffffffffffff8111156112fe576112fd6117a3565b5b61130a88828901611243565b945050604086013567ffffffffffffffff81111561132b5761132a6117a3565b5b61133788828901611243565b935050606086013567ffffffffffffffff811115611358576113576117a3565b5b61136488828901611243565b925050608061137588828901611271565b9150509295509295909350565b60008060408385031215611399576113986117a8565b5b60006113a785828601611271565b92505060206113b885828601611271565b9150509250929050565b6113cb816115f8565b82525050565b60006113dc82611552565b6113e6818561155d565b93506113f681856020860161161d565b6113ff816117ad565b840191505092915050565b600060c08301600083015161142260008601826114a1565b506020830151848203602086015261143a82826113d1565b9150506040830151848203604086015261145482826113d1565b9150506060830151848203606086015261146e82826113d1565b915050608083015161148360808601826114a1565b5060a083015161149660a08601826113c2565b508091505092915050565b6114aa81611604565b82525050565b6114b981611604565b82525050565b600060208201905081810360008301526114d9818461140a565b905092915050565b60006020820190506114f660008301846114b0565b92915050565b6000611506611517565b905061151282826116ac565b919050565b6000604051905090565b600067ffffffffffffffff82111561153c5761153b61176a565b5b611545826117ad565b9050602081019050919050565b600081519050919050565b600082825260208201905092915050565b600061157982611604565b915061158483611604565b9250827fffffffffffffffffffffffffffffffffffffffffffffffffffffffffffffffff038211156115b9576115b86116dd565b5b828201905092915050565b60006115cf82611604565b91506115da83611604565b9250828210156115ed576115ec6116dd565b5b828203905092915050565b60008115159050919050565b6000819050919050565b82818337600083830152505050565b60005b8381101561163b578082015181840152602081019050611620565b8381111561164a576000848401525b50505050565b600061165b82611604565b9150600082141561166f5761166e6116dd565b5b600182039050919050565b6000600282049050600182168061169257607f821691505b602082108114156116a6576116a561170c565b5b50919050565b6116b5826117ad565b810181811067ffffffffffffffff821117156116d4576116d361176a565b5b80604052505050565b7f4e487b7100000000000000000000000000000000000000000000000000000000600052601160045260246000fd5b7f4e487b7100000000000000000000000000000000000000000000000000000000600052602260045260246000fd5b7f4e487b7100000000000000000000000000000000000000000000000000000000600052603260045260246000fd5b7f4e487b7100000000000000000000000000000000000000000000000000000000600052604160045260246000fd5b600080fd5b600080fd5b600080fd5b600080fd5b6000601f19601f8301169050919050565b6117c781611604565b81146117d257600080fd5b5056fea2646970667358221220969c8207fb0f60dde05dc64dced17a167e2d242cfebd9f8473e28eeb70bf4bfd64736f6c63430008070033",
  "immutableReferences": {},
  "source": "pragma solidity ^0.8.0;\r\n\r\n\r\ncontract SolidityDrive{\r\n\r\n    struct File{\r\n        uint id;\r\n        string hash;\r\n        string fileName;\r\n        string fileType;\r\n        uint date;\r\n        bool wasAdded;\r\n    }\r\n    mapping(address=>File[]) files;\r\n\r\n    function add(uint _id, string memory _hash, string memory _fileName, string memory _fileType, uint _date) public{\r\n       //First file ever added\r\n        if (files[msg.sender].length == 0){\r\n            files[msg.sender].push(File({id:_id, hash:_hash,fileName:_fileName,fileType:_fileType,date:_date, wasAdded:true}));\r\n        }else{\r\n            //any other add after the first\r\n            uint lastIndex = files[msg.sender].length; \r\n            File memory lastEntry = files[msg.sender][lastIndex-1]; \r\n            //check for a deletion in the last entry of the array\r\n            if(!lastEntry.wasAdded){\r\n                //if a deletion is detected, cycle back until a record is found or the second entry is reached\r\n                while((!lastEntry.wasAdded) && lastIndex>=1){\r\n                    lastEntry = files[msg.sender][lastIndex-1];\r\n                    lastIndex--;\r\n                 }\r\n                 //in case all files were deleted, add the new file in the first position\r\n                 if(lastIndex == 0 && (!files[msg.sender][0].wasAdded)){\r\n                     files[msg.sender][0]=File({id:_id, hash:_hash,fileName:_fileName,fileType:_fileType,date:_date, wasAdded:true});\r\n                 }else{\r\n                     //add the next file in place of the last deleted entry, last index has a +1 because the loop will subtract 1 extra on its last loop\r\n                     files[msg.sender][lastIndex+1]=File({id:_id, hash:_hash,fileName:_fileName,fileType:_fileType,date:_date, wasAdded:true});\r\n                 }\r\n\r\n            }else{\r\n                //If there is no deletion detected push the file to the array\r\n               files[msg.sender].push(File({id: _id,hash:_hash,fileName:_fileName,fileType:_fileType,date:_date, wasAdded:true})); \r\n            }\r\n       }\r\n        \r\n    }\r\n\r\n    //if needed swaps last entry with file target for removal then deletes last entry\r\n    function removeFile(uint _index, uint _arrayLength) public{\r\n        uint lastElement = _arrayLength-1;\r\n        if(_index != lastElement){\r\n            files[msg.sender][_index] = files[msg.sender][lastElement];\r\n        }\r\n        delete files[msg.sender][lastElement];\r\n    }\r\n\r\n    //we need this getter as we just cannot loop through the mapped array\r\n    function getFile(uint _index) public view returns(File memory){\r\n        return files[msg.sender][_index];\r\n    }\r\n\r\n    //we need the length of each array in order to properly loop trough each of them\r\n    function getLength() public view returns(uint){\r\n        return files[msg.sender].length;\r\n    } \r\n}",
  "sourcePath": "C:/Users/x20170416/Documents/GitHub/block-app/solidity-drive-app/contracts/SolidityDrive.sol",
  "compiler": {
    "name": "solc",
    "version": "0.8.7+commit.e28d00a7.Emscripten.clang"
  },
  "schemaVersion": "3.4.1",
  "updatedAt": "2021-09-12T18:46:12.625Z",
  "networkType": "ethereum",
  "devdoc": {
    "kind": "dev",
    "methods": {},
    "version": 1
  },
  "userdoc": {
    "kind": "user",
    "methods": {},
    "version": 1
  }
}