{
  "contractName": "Loop",
  "abi": [
    {
      "constant": true,
      "inputs": [
        {
          "internalType": "uint256",
          "name": "x",
          "type": "uint256"
        }
      ],
      "name": "factorial",
      "outputs": [
        {
          "internalType": "uint256",
          "name": "",
          "type": "uint256"
        }
      ],
      "payable": false,
      "stateMutability": "pure",
      "type": "function"
    }
  ],
  "bytecode": "0x608060405234801561001057600080fd5b5060d18061001f6000396000f3fe6080604052348015600f57600080fd5b506004361060285760003560e01c80638371483414602d575b600080fd5b605660048036036020811015604157600080fd5b8101908080359060200190929190505050606c565b6040518082815260200191505060405180910390f35b60008082905060008090505b600a81101560925760058201915080806001019150506078565b508091505091905056fea265627a7a723158209efa4d18f2c0212de6e100cd3cd97542810c362d04871a6544ed66b17497e69764736f6c63430005100032",
  "source": "pragma solidity ^0.5.0;\n\ncontract Loop {\n    function factorial(uint x) public pure returns (uint) {\n        uint ans = x;\n        \n        for (uint i = 0; i < 10; i++) {\n            ans = ans + 5;\n        }\n\n        return ans;\n    }\n}\n",
  "sourcePath": "/Users/owner/Desktop/block-chain-labs/Lab-5/smart-contract-for-loop/contracts/Loop.sol",
  "compiler": {
    "name": "solc",
    "version": "0.5.16+commit.9c3226ce.Emscripten.clang"
  },
  "schemaVersion": "3.4.1",
  "updatedAt": "2021-06-04T20:53:14.970Z",
  "devdoc": {
    "methods": {}
  },
  "userdoc": {
    "methods": {}
  }
}