{
  "contractName": "TodoList",
  "abi": [
    {
      "anonymous": false,
      "inputs": [
        {
          "indexed": false,
          "internalType": "uint256",
          "name": "id",
          "type": "uint256"
        },
        {
          "indexed": false,
          "internalType": "bool",
          "name": "completed",
          "type": "bool"
        }
      ],
      "name": "TaskCompleted",
      "type": "event"
    },
    {
      "anonymous": false,
      "inputs": [
        {
          "indexed": false,
          "internalType": "uint256",
          "name": "id",
          "type": "uint256"
        },
        {
          "indexed": false,
          "internalType": "string",
          "name": "content",
          "type": "string"
        },
        {
          "indexed": false,
          "internalType": "bool",
          "name": "completed",
          "type": "bool"
        }
      ],
      "name": "TaskCreated",
      "type": "event"
    },
    {
      "anonymous": false,
      "inputs": [
        {
          "indexed": false,
          "internalType": "uint256",
          "name": "id",
          "type": "uint256"
        },
        {
          "indexed": false,
          "internalType": "string",
          "name": "content",
          "type": "string"
        },
        {
          "indexed": false,
          "internalType": "bool",
          "name": "completed",
          "type": "bool"
        }
      ],
      "name": "TaskUpdated",
      "type": "event"
    },
    {
      "constant": true,
      "inputs": [],
      "name": "taskCount",
      "outputs": [
        {
          "internalType": "uint256",
          "name": "",
          "type": "uint256"
        }
      ],
      "payable": false,
      "stateMutability": "view",
      "type": "function"
    },
    {
      "constant": true,
      "inputs": [
        {
          "internalType": "uint256",
          "name": "",
          "type": "uint256"
        }
      ],
      "name": "tasks",
      "outputs": [
        {
          "internalType": "uint256",
          "name": "id",
          "type": "uint256"
        },
        {
          "internalType": "string",
          "name": "content",
          "type": "string"
        },
        {
          "internalType": "bool",
          "name": "completed",
          "type": "bool"
        }
      ],
      "payable": false,
      "stateMutability": "view",
      "type": "function"
    },
    {
      "constant": false,
      "inputs": [
        {
          "internalType": "string",
          "name": "_content",
          "type": "string"
        }
      ],
      "name": "createTask",
      "outputs": [],
      "payable": false,
      "stateMutability": "nonpayable",
      "type": "function"
    },
    {
      "constant": false,
      "inputs": [
        {
          "internalType": "uint256",
          "name": "_id",
          "type": "uint256"
        },
        {
          "internalType": "string",
          "name": "_content",
          "type": "string"
        }
      ],
      "name": "editTask",
      "outputs": [],
      "payable": false,
      "stateMutability": "nonpayable",
      "type": "function"
    },
    {
      "constant": false,
      "inputs": [
        {
          "internalType": "uint256",
          "name": "_id",
          "type": "uint256"
        }
      ],
      "name": "toggleCompleted",
      "outputs": [],
      "payable": false,
      "stateMutability": "nonpayable",
      "type": "function"
    },
    {
      "constant": true,
      "inputs": [],
      "name": "getAll",
      "outputs": [
        {
          "components": [
            {
              "internalType": "uint256",
              "name": "id",
              "type": "uint256"
            },
            {
              "internalType": "string",
              "name": "content",
              "type": "string"
            },
            {
              "internalType": "bool",
              "name": "completed",
              "type": "bool"
            }
          ],
          "internalType": "struct TodoList.Task[]",
          "name": "",
          "type": "tuple[]"
        }
      ],
      "payable": false,
      "stateMutability": "view",
      "type": "function"
    }
  ],
  "bytecode": "0x60806040526000805534801561001457600080fd5b50610d14806100246000396000f3fe608060405234801561001057600080fd5b50600436106100625760003560e01c8063111002aa14610067578063455f50241461008357806353ed51431461009f5780638d977672146100bd578063b6cb58a5146100ef578063cb7bd9951461010d575b600080fd5b610081600480360361007c9190810190610827565b610129565b005b61009d60048036036100989190810190610868565b6101f9565b005b6100a761039c565b6040516100b49190610aa5565b60405180910390f35b6100d760048036036100d29190810190610868565b6104ff565b6040516100e693929190610b49565b60405180910390f35b6100f76105ce565b6040516101049190610ac7565b60405180910390f35b61012760048036036101229190810190610891565b6105d4565b005b6000808154809291906001019190505550604051806060016040528060005481526020018281526020016000151581525060016000805481526020019081526020016000206000820151816000015560208201518160010190805190602001906101949291906106d3565b5060408201518160020160006101000a81548160ff0219169083151502179055509050507f05d0fb833127fc08168556d0e7ca9554fc3f6bc843b3b7d2bf1c35aea6bab6606000548260006040516101ee93929190610b0b565b60405180910390a150565b610201610753565b6001600083815260200190815260200160002060405180606001604052908160008201548152602001600182018054600181600116156101000203166002900480601f0160208091040260200160405190810160405280929190818152602001828054600181600116156101000203166002900480156102c25780601f10610297576101008083540402835291602001916102c2565b820191906000526020600020905b8154815290600101906020018083116102a557829003601f168201915b505050505081526020016002820160009054906101000a900460ff161515151581525050905080604001511581604001901515908115158152505080600160008481526020019081526020016000206000820151816000015560208201518160010190805190602001906103379291906106d3565b5060408201518160020160006101000a81548160ff0219169083151502179055509050507fe21fa966ca5cd02748c0752352d18c48165e61cb55b4c29cccf924b5a95fcff1828260400151604051610390929190610ae2565b60405180910390a15050565b6060806000546040519080825280602002602001820160405280156103db57816020015b6103c8610776565b8152602001906001900390816103c05790505b50905060008090505b6000548110156104f7576001600082815260200190815260200160002060405180606001604052908160008201548152602001600182018054600181600116156101000203166002900480601f0160208091040260200160405190810160405280929190818152602001828054600181600116156101000203166002900480156104af5780601f10610484576101008083540402835291602001916104af565b820191906000526020600020905b81548152906001019060200180831161049257829003601f168201915b505050505081526020016002820160009054906101000a900460ff1615151515815250508282815181106104df57fe5b602002602001018190525080806001019150506103e4565b508091505090565b6001602052806000526040600020600091509050806000015490806001018054600181600116156101000203166002900480601f0160208091040260200160405190810160405280929190818152602001828054600181600116156101000203166002900480156105b15780601f10610586576101008083540402835291602001916105b1565b820191906000526020600020905b81548152906001019060200180831161059457829003601f168201915b5050505050908060020160009054906101000a900460ff16905083565b60005481565b60405180606001604052808381526020018281526020016001600085815260200190815260200160002060020160009054906101000a900460ff1615158152506001600084815260200190815260200160002060008201518160000155602082015181600101908051906020019061064d9291906106d3565b5060408201518160020160006101000a81548160ff0219169083151502179055509050507f731243b94fd6f4071f6ac97a26cb4cff681428631c877c64cdea5371290b01c182826001600086815260200190815260200160002060020160009054906101000a900460ff166040516106c793929190610b0b565b60405180910390a15050565b828054600181600116156101000203166002900490600052602060002090601f016020900481019282601f1061071457805160ff1916838001178555610742565b82800160010185558215610742579182015b82811115610741578251825591602001919060010190610726565b5b50905061074f9190610799565b5090565b604051806060016040528060008152602001606081526020016000151581525090565b604051806060016040528060008152602001606081526020016000151581525090565b6107bb91905b808211156107b757600081600090555060010161079f565b5090565b90565b600082601f8301126107cf57600080fd5b81356107e26107dd82610bb4565b610b87565b915080825260208301602083018583830111156107fe57600080fd5b610809838284610c67565b50505092915050565b60008135905061082181610cba565b92915050565b60006020828403121561083957600080fd5b600082013567ffffffffffffffff81111561085357600080fd5b61085f848285016107be565b91505092915050565b60006020828403121561087a57600080fd5b600061088884828501610812565b91505092915050565b600080604083850312156108a457600080fd5b60006108b285828601610812565b925050602083013567ffffffffffffffff8111156108cf57600080fd5b6108db858286016107be565b9150509250929050565b60006108f18383610a37565b905092915050565b600061090482610bf0565b61090e8185610c1e565b93508360208202850161092085610be0565b8060005b8581101561095c578484038952815161093d85826108e5565b945061094883610c11565b925060208a01995050600181019050610924565b50829750879550505050505092915050565b61097781610c51565b82525050565b61098681610c51565b82525050565b600061099782610c06565b6109a18185610c40565b93506109b1818560208601610c76565b6109ba81610ca9565b840191505092915050565b60006109d082610bfb565b6109da8185610c2f565b93506109ea818560208601610c76565b6109f381610ca9565b840191505092915050565b6000610a0982610bfb565b610a138185610c40565b9350610a23818560208601610c76565b610a2c81610ca9565b840191505092915050565b6000606083016000830151610a4f6000860182610a87565b5060208301518482036020860152610a6782826109c5565b9150506040830151610a7c604086018261096e565b508091505092915050565b610a9081610c5d565b82525050565b610a9f81610c5d565b82525050565b60006020820190508181036000830152610abf81846108f9565b905092915050565b6000602082019050610adc6000830184610a96565b92915050565b6000604082019050610af76000830185610a96565b610b04602083018461097d565b9392505050565b6000606082019050610b206000830186610a96565b8181036020830152610b32818561098c565b9050610b41604083018461097d565b949350505050565b6000606082019050610b5e6000830186610a96565b8181036020830152610b7081856109fe565b9050610b7f604083018461097d565b949350505050565b6000604051905081810181811067ffffffffffffffff82111715610baa57600080fd5b8060405250919050565b600067ffffffffffffffff821115610bcb57600080fd5b601f19601f8301169050602081019050919050565b6000819050602082019050919050565b600081519050919050565b600081519050919050565b600081519050919050565b6000602082019050919050565b600082825260208201905092915050565b600082825260208201905092915050565b600082825260208201905092915050565b60008115159050919050565b6000819050919050565b82818337600083830152505050565b60005b83811015610c94578082015181840152602081019050610c79565b83811115610ca3576000848401525b50505050565b6000601f19601f8301169050919050565b610cc381610c5d565b8114610cce57600080fd5b5056fea365627a7a7231582074d2424b8ac52f7486160752f0d502ddf2c513d61778d5c1f4f281eedd66b6f66c6578706572696d656e74616cf564736f6c63430005100040",
  "source": "pragma solidity ^0.5.0;\npragma experimental ABIEncoderV2;\n\ncontract TodoList {\n  uint public taskCount = 0;\n\n  struct Task {\n    uint id;\n    string content;\n    bool completed;\n  }\n\n  mapping(uint => Task) public tasks;\n\n  event TaskCreated(\n    uint id,\n    string content,\n    bool completed\n  );\n\n  event TaskCompleted(\n    uint id,\n    bool completed\n  );\n  \n  event TaskUpdated(\n    uint id,\n    string content,\n    bool completed\n  );\n\n  function createTask(string memory _content) public {\n    taskCount ++;\n    tasks[taskCount] = Task(taskCount, _content, false);\n    emit TaskCreated(taskCount, _content, false);\n  }\n\n  function editTask(uint _id, string memory _content) public {\n    tasks[_id] = Task(_id, _content, tasks[_id].completed);\n    emit TaskUpdated(_id, _content, tasks[_id].completed);\n  }\n\n  function toggleCompleted(uint _id) public {\n    Task memory _task = tasks[_id];\n    _task.completed = !_task.completed;\n    tasks[_id] = _task;\n    emit TaskCompleted(_id, _task.completed);\n  }\n  \n  \n  function getAll() public view returns (Task[] memory){\n    Task[] memory todos = new Task[](taskCount);\n    for (uint i = 0; i < taskCount; i++) {\n        todos[i] = tasks[i];\n    }\n    return todos;\n  }\n\n\n}\n",
  "sourcePath": "/Users/owner/Desktop/block-chain-labs/Lab-6/express-metacoin-completed/contracts/TodoList.sol",
  "compiler": {
    "name": "solc",
    "version": "0.5.16+commit.9c3226ce.Emscripten.clang"
  },
  "schemaVersion": "3.4.1",
  "updatedAt": "2021-06-06T14:19:42.625Z",
  "networkType": "ethereum",
  "devdoc": {
    "methods": {}
  },
  "userdoc": {
    "methods": {}
  }
}