{
  "contractName": "Factorial",
  "abi": [
    {
      "constant": true,
      "inputs": [
        {
          "internalType": "uint256",
          "name": "x",
          "type": "uint256"
        }
      ],
      "name": "factorial",
      "outputs": [
        {
          "internalType": "uint256",
          "name": "",
          "type": "uint256"
        }
      ],
      "payable": false,
      "stateMutability": "pure",
      "type": "function"
    }
  ],
  "bytecode": "0x608060405234801561001057600080fd5b5060c78061001f6000396000f3fe6080604052348015600f57600080fd5b506004361060285760003560e01c80638371483414602d575b600080fd5b605660048036036020811015604157600080fd5b8101908080359060200190929190505050606c565b6040518082815260200191505060405180910390f35b60006001821415607e5760019050608d565b81608960018403606c565b0290505b91905056fea265627a7a72315820702a4b67b9a34f190fe74145699924d1fc8e0b1466770e650bdf47756978705264736f6c63430005100032",
  "source": "pragma solidity ^0.5.0;\r\n\r\ncontract Factorial {\r\n    function factorial(uint x) public pure returns (uint) {\r\n        if(x == 1){\r\n            return 1;\r\n        }\r\n        else{\r\n            return (factorial(x-1) * x);\r\n        }\r\n    }\r\n}",
  "sourcePath": "C:/Users/x20170416/Documents/GitHub/block-app/lab-3-balance_exercise/smart-contract/contracts/Factorial.sol",
  "compiler": {
    "name": "solc",
    "version": "0.5.16+commit.9c3226ce.Emscripten.clang"
  },
  "schemaVersion": "3.4.1",
  "updatedAt": "2021-07-01T13:44:43.157Z",
  "devdoc": {
    "methods": {}
  },
  "userdoc": {
    "methods": {}
  }
}