{
  "contractName": "TodoList",
  "abi": [
    {
      "anonymous": false,
      "inputs": [
        {
          "indexed": false,
          "internalType": "uint256",
          "name": "id",
          "type": "uint256"
        },
        {
          "indexed": false,
          "internalType": "bool",
          "name": "completed",
          "type": "bool"
        }
      ],
      "name": "TaskCompleted",
      "type": "event"
    },
    {
      "anonymous": false,
      "inputs": [
        {
          "indexed": false,
          "internalType": "uint256",
          "name": "id",
          "type": "uint256"
        },
        {
          "indexed": false,
          "internalType": "string",
          "name": "content",
          "type": "string"
        },
        {
          "indexed": false,
          "internalType": "bool",
          "name": "completed",
          "type": "bool"
        }
      ],
      "name": "TaskCreated",
      "type": "event"
    },
    {
      "anonymous": false,
      "inputs": [
        {
          "indexed": false,
          "internalType": "uint256",
          "name": "id",
          "type": "uint256"
        },
        {
          "indexed": false,
          "internalType": "string",
          "name": "content",
          "type": "string"
        },
        {
          "indexed": false,
          "internalType": "bool",
          "name": "completed",
          "type": "bool"
        }
      ],
      "name": "TaskUpdated",
      "type": "event"
    },
    {
      "constant": true,
      "inputs": [],
      "name": "taskCount",
      "outputs": [
        {
          "internalType": "uint256",
          "name": "",
          "type": "uint256"
        }
      ],
      "payable": false,
      "stateMutability": "view",
      "type": "function"
    },
    {
      "constant": true,
      "inputs": [
        {
          "internalType": "uint256",
          "name": "",
          "type": "uint256"
        }
      ],
      "name": "tasks",
      "outputs": [
        {
          "internalType": "uint256",
          "name": "id",
          "type": "uint256"
        },
        {
          "internalType": "string",
          "name": "content",
          "type": "string"
        },
        {
          "internalType": "bool",
          "name": "completed",
          "type": "bool"
        }
      ],
      "payable": false,
      "stateMutability": "view",
      "type": "function"
    },
    {
      "constant": false,
      "inputs": [
        {
          "internalType": "string",
          "name": "_content",
          "type": "string"
        }
      ],
      "name": "createTask",
      "outputs": [],
      "payable": false,
      "stateMutability": "nonpayable",
      "type": "function"
    },
    {
      "constant": false,
      "inputs": [
        {
          "internalType": "uint256",
          "name": "_id",
          "type": "uint256"
        }
      ],
      "name": "toggleCompleted",
      "outputs": [],
      "payable": false,
      "stateMutability": "nonpayable",
      "type": "function"
    },
    {
      "constant": true,
      "inputs": [],
      "name": "getAll",
      "outputs": [
        {
          "components": [
            {
              "internalType": "uint256",
              "name": "id",
              "type": "uint256"
            },
            {
              "internalType": "string",
              "name": "content",
              "type": "string"
            },
            {
              "internalType": "bool",
              "name": "completed",
              "type": "bool"
            }
          ],
          "internalType": "struct TodoList.Task[]",
          "name": "",
          "type": "tuple[]"
        }
      ],
      "payable": false,
      "stateMutability": "view",
      "type": "function"
    }
  ],
  "bytecode": "0x60806040526000805534801561001457600080fd5b50610b9a806100246000396000f3fe608060405234801561001057600080fd5b50600436106100575760003560e01c8063111002aa1461005c578063455f50241461007857806353ed5143146100945780638d977672146100b2578063b6cb58a5146100e4575b600080fd5b61007660048036036100719190810190610701565b610102565b005b610092600480360361008d9190810190610742565b6101d2565b005b61009c610375565b6040516100a9919061092b565b60405180910390f35b6100cc60048036036100c79190810190610742565b6104d8565b6040516100db939291906109cf565b60405180910390f35b6100ec6105a7565b6040516100f9919061094d565b60405180910390f35b6040518060600160405280600054815260200182815260200160001515815250600160008054815260200190815260200160002060008201518160000155602082015181600101908051906020019061015c9291906105ad565b5060408201518160020160006101000a81548160ff02191690831515021790555090505060008081548092919060010191905055507f05d0fb833127fc08168556d0e7ca9554fc3f6bc843b3b7d2bf1c35aea6bab6606000548260006040516101c793929190610991565b60405180910390a150565b6101da61062d565b6001600083815260200190815260200160002060405180606001604052908160008201548152602001600182018054600181600116156101000203166002900480601f01602080910402602001604051908101604052809291908181526020018280546001816001161561010002031660029004801561029b5780601f106102705761010080835404028352916020019161029b565b820191906000526020600020905b81548152906001019060200180831161027e57829003601f168201915b505050505081526020016002820160009054906101000a900460ff161515151581525050905080604001511581604001901515908115158152505080600160008481526020019081526020016000206000820151816000015560208201518160010190805190602001906103109291906105ad565b5060408201518160020160006101000a81548160ff0219169083151502179055509050507fe21fa966ca5cd02748c0752352d18c48165e61cb55b4c29cccf924b5a95fcff1828260400151604051610369929190610968565b60405180910390a15050565b6060806000546040519080825280602002602001820160405280156103b457816020015b6103a1610650565b8152602001906001900390816103995790505b50905060008090505b6000548110156104d0576001600082815260200190815260200160002060405180606001604052908160008201548152602001600182018054600181600116156101000203166002900480601f0160208091040260200160405190810160405280929190818152602001828054600181600116156101000203166002900480156104885780601f1061045d57610100808354040283529160200191610488565b820191906000526020600020905b81548152906001019060200180831161046b57829003601f168201915b505050505081526020016002820160009054906101000a900460ff1615151515815250508282815181106104b857fe5b602002602001018190525080806001019150506103bd565b508091505090565b6001602052806000526040600020600091509050806000015490806001018054600181600116156101000203166002900480601f01602080910402602001604051908101604052809291908181526020018280546001816001161561010002031660029004801561058a5780601f1061055f5761010080835404028352916020019161058a565b820191906000526020600020905b81548152906001019060200180831161056d57829003601f168201915b5050505050908060020160009054906101000a900460ff16905083565b60005481565b828054600181600116156101000203166002900490600052602060002090601f016020900481019282601f106105ee57805160ff191683800117855561061c565b8280016001018555821561061c579182015b8281111561061b578251825591602001919060010190610600565b5b5090506106299190610673565b5090565b604051806060016040528060008152602001606081526020016000151581525090565b604051806060016040528060008152602001606081526020016000151581525090565b61069591905b80821115610691576000816000905550600101610679565b5090565b90565b600082601f8301126106a957600080fd5b81356106bc6106b782610a3a565b610a0d565b915080825260208301602083018583830111156106d857600080fd5b6106e3838284610aed565b50505092915050565b6000813590506106fb81610b40565b92915050565b60006020828403121561071357600080fd5b600082013567ffffffffffffffff81111561072d57600080fd5b61073984828501610698565b91505092915050565b60006020828403121561075457600080fd5b6000610762848285016106ec565b91505092915050565b600061077783836108bd565b905092915050565b600061078a82610a76565b6107948185610aa4565b9350836020820285016107a685610a66565b8060005b858110156107e257848403895281516107c3858261076b565b94506107ce83610a97565b925060208a019950506001810190506107aa565b50829750879550505050505092915050565b6107fd81610ad7565b82525050565b61080c81610ad7565b82525050565b600061081d82610a8c565b6108278185610ac6565b9350610837818560208601610afc565b61084081610b2f565b840191505092915050565b600061085682610a81565b6108608185610ab5565b9350610870818560208601610afc565b61087981610b2f565b840191505092915050565b600061088f82610a81565b6108998185610ac6565b93506108a9818560208601610afc565b6108b281610b2f565b840191505092915050565b60006060830160008301516108d5600086018261090d565b50602083015184820360208601526108ed828261084b565b915050604083015161090260408601826107f4565b508091505092915050565b61091681610ae3565b82525050565b61092581610ae3565b82525050565b60006020820190508181036000830152610945818461077f565b905092915050565b6000602082019050610962600083018461091c565b92915050565b600060408201905061097d600083018561091c565b61098a6020830184610803565b9392505050565b60006060820190506109a6600083018661091c565b81810360208301526109b88185610812565b90506109c76040830184610803565b949350505050565b60006060820190506109e4600083018661091c565b81810360208301526109f68185610884565b9050610a056040830184610803565b949350505050565b6000604051905081810181811067ffffffffffffffff82111715610a3057600080fd5b8060405250919050565b600067ffffffffffffffff821115610a5157600080fd5b601f19601f8301169050602081019050919050565b6000819050602082019050919050565b600081519050919050565b600081519050919050565b600081519050919050565b6000602082019050919050565b600082825260208201905092915050565b600082825260208201905092915050565b600082825260208201905092915050565b60008115159050919050565b6000819050919050565b82818337600083830152505050565b60005b83811015610b1a578082015181840152602081019050610aff565b83811115610b29576000848401525b50505050565b6000601f19601f8301169050919050565b610b4981610ae3565b8114610b5457600080fd5b5056fea365627a7a7231582061132d24a657b1e23f0277e5a01514e9f9853a2727985372b237b5eee0b3a6de6c6578706572696d656e74616cf564736f6c63430005100040",
  "source": "pragma solidity ^0.5.0;\npragma experimental ABIEncoderV2;\n\ncontract TodoList {\n  uint public taskCount = 0;\n\n  struct Task {\n    uint id;\n    string content;\n    bool completed;\n  }\n\n  mapping(uint => Task) public tasks;\n\n  event TaskCreated(\n    uint id,\n    string content,\n    bool completed\n  );\n\n  event TaskCompleted(\n    uint id,\n    bool completed\n  );\n  \n  event TaskUpdated(\n    uint id,\n    string content,\n    bool completed\n  );\n\n  function createTask(string memory _content) public {\n    tasks[taskCount] = Task(taskCount, _content, false);\n    taskCount ++;\n    emit TaskCreated(taskCount, _content, false);\n  }\n\n  function toggleCompleted(uint _id) public {\n    Task memory _task = tasks[_id];\n    _task.completed = !_task.completed;\n    tasks[_id] = _task;\n    emit TaskCompleted(_id, _task.completed);\n  }\n  \n  \n  function getAll() public view returns (Task[] memory){\n    Task[] memory todos = new Task[](taskCount);\n    for (uint i = 0; i < taskCount; i++) {\n        todos[i] = tasks[i];\n    }\n    return todos;\n  }\n\n\n}\n\n",
  "sourcePath": "C:/Users/x20170416/Documents/GitHub/block-app/express-todo-list/contracts/TodoList.sol",
  "compiler": {
    "name": "solc",
    "version": "0.5.16+commit.9c3226ce.Emscripten.clang"
  },
  "schemaVersion": "3.4.1",
  "updatedAt": "2021-07-04T14:14:53.692Z",
  "networkType": "ethereum",
  "devdoc": {
    "methods": {}
  },
  "userdoc": {
    "methods": {}
  }
}